:100000000C944C000C9469000C9469000C946900E9
:100010000C9469000C9469000C9469000C946900BC
:100020000C9469000C943C010C9469000C946900D8
:100030000C9469000C940B050C9469000C946900F5
:100040000C9469000C9469000C9469000C9469008C
:100050000C9469000C9469000C9469000C9469007C
:100060000C9469000C946900B600AE00B2009B00CD
:10007000A500A000A900D302D302CB02CF02D30275
:10008000D302D302D602D602F102F302FC0200032D
:10009000F80204030903070311241FBECFEFD8E0C1
:1000A000DEBFCDBF11E0A0E0B1E0E0EEF7E102C0BD
:1000B00005900D92A23BB107D9F721E0A2EBB1E088
:1000C00001C01D92AC3EB207E1F70E94F4060C9409
:1000D000EE0B0C94000062E085E290E00C94440288
:1000E000CF93DF93D82FC0E0CD1764F464E08BE2A8
:1000F00090E00E94440264E08BE290E00E9444029F
:10010000CF5FF2CFDF91CF91089562E085E290E07A
:100110000E94380283E00C947000CF93DF93EC01CF
:100120000E948500FE013496E730F10530F5EC5C65
:10013000FF4F0C94DD070E946B0081E00E9470006D
:100140000E946B0081E00E9470000E946B0081E0C1
:1001500010C00E946B0081E00E9470000E946B0042
:1001600082E007C00E946B0082E0EDCF0E946B002E
:1001700083E0DF91CF910C947000DF91CF910895CF
:100180000F931F93CF93DF938C01EB01CB010E9460
:10019000ED018823D1F1CE010E94E301882399F07B
:1001A000CE010E94F701882371F08CEF9FEF0E942F
:1001B0008D0042E050E0BE01C801DF91CF911F9158
:1001C0000F910C945903CE010E94E301811108C0E4
:1001D000CE010E94F701882319F08DEF9FEF0CC02C
:1001E000CE010E94E301882369F0CE010E94F7014D
:1001F000811108C08EEF9FEFDF91CF911F910F917A
:100200000C948D0081E090E0F7CFCE010E94E301D5
:10021000811108C0CE010E94F701882319F080E007
:1002200090E0EACFCE010E94E301882341F0CE01A5
:100230000E94F701811103C082E090E0DDCFCE0182
:100240000E94E301882341F0CE010E94F701882338
:1002500019F08FEF9FEFD0CFDF91CF911F910F91CA
:100260000C94850062E084E290E00E942D0264E03C
:100270008AE290E00C942D021F920F920FB60F921B
:1002800011242F938F939F938091B3019091B40188
:1002900001969093B4018093B3018091B301909142
:1002A000B4018138994239F481E08093B20110920F
:1002B000B4011092B3019F918F912F910F900FBEB7
:1002C0000F901F901895F894E1EBF0E081E08083A7
:1002D000A0EBB0E08C918C7F8C938081877F8083B2
:1002E000789408951092B4011092B3011092B20163
:1002F000F894E0E7F0E08081816080831092B200A2
:1003000078940895F894E0E7F0E080818E7F808310
:100310007894089569E070E00E94E4020C94720100
:100320000F931F93CF93DF938C01EB01CB010E94BE
:10033000CB01BE01C8010E944B068091B201882307
:1003400069F00E9482018B8181508B83811103C0EF
:100350004AE050E013C043E050E010C0CE010E94DC
:100360000102811113C08091B5018F5F8093B501A7
:10037000882361F00E94820144E050E0BE01C80180
:10038000DF91CF911F910F910C945903DF91CF9181
:100390001F910F910895CF93DF93EC0164E182E008
:1003A0000E94CB069D838C8364E180E00E94CB0693
:1003B0009987888764E181E00E94CB069F838E83C2
:1003C000DF91CF91089521E0FC01848195818A3FDE
:1003D000910508F420E0822F089521E0FC01868138
:1003E00097818115924008F420E0822F089521E042
:1003F000FC01808591858C39914008F420E0822FA2
:100400000895FC01848195818A3F910570F0868171
:1004100097818115924048F091E0208531852C39F3
:10042000314008F490E0892F089580E00895FC01A0
:10043000848195818A3F910570F486819781811529
:10044000924048F491E0208531852C39314008F004
:1004500090E0892F089580E00895FC01408121E01B
:1004600030E001C0220F6A95EAF7242B208308951B
:10047000FC01908121E030E001C0220F6A95EAF78B
:100480002095292320830895FC01408121E030E05C
:1004900001C0220F6A95EAF7242720830895F89473
:1004A00015BC85B5836085BD14BC84B5836084BDEF
:1004B000789408958630A1F484B5611104C08F73D7
:1004C00084BD5E9808956F3F21F48F7384BD5E9A5A
:1004D0000895806884BD84B58F7B84BD67BD089511
:1004E000853099F484B5611104C08F7C84BD5D981A
:1004F00008956F3F21F48F7C84BD5D9A08958062DA
:1005000084BD84B58F7E84BD68BD089567E08BE2AD
:1005100090E00E942D0260E085E290E00C943802A9
:1005200060E085E290E00E942D0267E08BE290E0BF
:100530000C94380263E085E290E00E942D0261E0B5
:1005400085E290E00C94380261E085E290E00E9440
:100550002D0263E085E290E00C94380267E08BE2C4
:1005600090E00E94380260E085E290E00C9438024E
:1005700063E085E290E00E94380261E085E290E06D
:100580000C943802049789309105A0F4855C9F4F44
:10059000FC010C94DD070E9490020C949A020E94C8
:1005A00086020C94A4020E948602F7CF0E94AE023B
:1005B0000C94B80208958AB180668AB9579A84B1BA
:1005C0008B6884B90C944F02CF93DF93EC01CB017D
:1005D000FB013497E830F105E0F4EC5BFF4F0C943D
:1005E000DD0728E712C021E42A8728EC2B8711C0F9
:1005F00028EC2A8721E4FACF20EA2A872AEFF6CFCF
:100600002AEF2A8720EAF2CF21E42A87EFCF1A8641
:100610001B860E94C2026A8585E00E945A026B8591
:1006200086E0DF91CF910C945A02AF92BF92CF92A5
:10063000DF92EF92FF920F931F93CF93DF937C0192
:10064000EB015A01690188E090E00E94E307FC0198
:10065000892B21F481E090E00E94EE0BD183C083CE
:10066000B382A282D582C48217830683DE011196EB
:10067000AA0FBB1FAE0DBF1DED93FC93CD2B71F4E4
:10068000D701ED93FC93CCE0D0E08BE7A82E81E07E
:10069000B82EC12CD12C00E010E0D5CFDF91CF9146
:1006A0001F910F91FF90EF90DF90CF90BF90AF9090
:1006B0000895DC01CB01FA013196EE0FFF1FEA0F1E
:1006C000FB1F0190F081E02DED93FC930480F581F8
:1006D000E02D309709F0099408950F931F93CF935D
:1006E000DF938C010E5F1F4FEC016C96F801808147
:1006F00091810E947B08F801119211928F01EC17F1
:10070000FD07A1F7DF91CF911F910F9108950F93EE
:100710001F93CF93DF93EC018B01E881F981048073
:10072000F581E02DCB010995E881F98180819181E6
:100730000C9739F00680F781E02DB801CE010995BC
:10074000F3CFCE01DF91CF911F910F910C946D03E8
:100750000E9498060E9432010E94DB0267E670E068
:1007600080E090E00E9435060E944A050C946301E7
:10077000FB012081222319F041E050E002C043E058
:1007800050E00C94590364E070E00E94E40281E0C0
:1007900090E00C948D000F931F93CF93DF938C0107
:1007A000EB01CB010E94CB01BE01C8010E944B06A8
:1007B000CE010E94E301882341F0CE010E94F7019F
:1007C000811103C045E050E017C0CE010E94F7013F
:1007D000882341F0CE010E94E301811103C048E06B
:1007E00050E00AC08A81882379F0CE010E9401027C
:1007F000882351F049E050E0BE01C801DF91CF915C
:100800001F910F910C945903DF91CF911F910F917C
:10081000089565E070E00E94E4028EEF9FEF0C9473
:100820008D000F931F93CF93DF938C01EB01CB01CE
:100830000E94CB01BE01C8010E944B06CE010E945E
:10084000E301811103C046E050E007C0CE010E94E1
:10085000ED01882351F044E050E0BE01C801DF9172
:10086000CF911F910F910C945903DF91CF911F915C
:100870000F91089568E070E00E94E4028DEF9FEF11
:100880000C948D000F931F93CF93DF938C01EB019A
:10089000CB010E94CB01BE01C8010E944B06CE01D4
:1008A0000E94F701811103C047E050E007C0CE016C
:1008B0000E94ED01882351F044E050E0BE01C801E0
:1008C000DF91CF911F910F910C945903DF91CF913C
:1008D0001F910F91089566E070E00E94E40282E0AB
:1008E00090E00C948D000F931F93CF93DF938C01B6
:1008F000EB01CB010E94CB01BE01C8010E944B0657
:10090000CE010E94E301882319F045E050E007C0C2
:10091000CE010E94ED01882351F044E050E0BE0179
:10092000C801DF91CF911F910F910C945903DF9172
:10093000CF911F910F91089567E070E00E94E4024B
:1009400080E090E00C948D000F931F93CF93DF9382
:100950008C01EB01CB010E94CB01BE01C8010E94BA
:100960004B06CE010E94F701882319F048E050E0C1
:1009700007C0CE010E94ED01882351F044E050E011
:10098000BE01C801DF91CF911F910F910C945903C3
:10099000DF91CF911F910F91089564E070E00E9464
:1009A000E4028CEF9FEF0C948D000F931F93CF9375
:1009B000DF938C01EB01CB010E94CB01BE01C8018A
:1009C0000E944B06CE010E94010281110AC044E040
:1009D00050E0BE01C801DF91CF911F910F910C949F
:1009E0005903DF91CF911F910F9108950F931F939A
:1009F000CF93DF938C01EB01CB010E94CB01BE01B1
:100A0000C8010E944B06BE01C801DF91CF911F9122
:100A10000F910C94C0001F920F920FB60F921124E9
:100A20002F933F938F939F938091BA019091BB0135
:100A300001969093BB018093BA018091B801909187
:100A4000B90101969093B9018093B8018091BA01E0
:100A50009091BB01489739F41092BB011092BA01F2
:100A600081E08093B7012091B8013091B901809164
:100A7000E6019091E7012817390719F481E0809386
:100A8000B6019F918F913F912F910F900FBE0F90C4
:100A90001F901895F894E1E8F0E081E08083A0E8E9
:100AA000B0E08C918C7F8C938081877E808378945A
:100AB0000895009729F0019749F488E399E302C06B
:100AC0008EE49EE09093E7018093E6011092BB01D3
:100AD0001092BA011092B9011092B8011092B701A8
:100AE0001092B601F89480916F00816080936F003E
:100AF000109285001092840078940895F894EFE69F
:100B0000F0E080818E7F8083789408958CEF9FEF52
:100B10000E948D0080E090E00C9459050F931F9384
:100B2000CF93DF938C01EB01CB010E94CB0180912D
:100B3000B601882329F00E947E0543E050E009C0F9
:100B4000CE010E940102811108C00E947E0541E091
:100B500050E0BE01C8010E9459038091B70188236B
:100B6000C9F01092B70180910001909101010496A3
:100B700039F48BEF9FEF0E948D008BEF9FEF06C043
:100B80008CEF9FEF0E948D008CEF9FEF90930101FF
:100B900080930001DF91CF911F910F910895CF9322
:100BA000DF93EC016BE070E00E94E40280E891E0EA
:100BB0000E94290681E090E00E94590583E08B8322
:100BC000DF91CF9108950F931F93CF93DF93EC01A3
:100BD0008B018091B601882361F00E947E0543E07D
:100BE00050E0B801CE01DF91CF911F910F910C948D
:100BF00059038091B7018823C9F01092B701809101
:100C0000000190910101049639F48BEF9FEF0E944F
:100C10008D008BEF9FEF06C08CEF9FEF0E948D0041
:100C20008CEF9FEF9093010180930001DF91CF91B2
:100C30001F910F9108958091C00087FFFCCF809194
:100C4000C60008959091C00095FFFCCF8093C60028
:100C50000895CF93DF93EC018991882319F00E94C6
:100C60002206FACFDF91CF9108950F931F93072F9C
:100C7000182F292F33270093C5006093C40088E103
:100C80008093C1008EE08093C20080EB91E01F91C1
:100C90000F910C9429069C01FB018181882309F4A2
:100CA00046C08091E4019091E50164E670E00E9405
:100CB000A707892B99F5D90183851F928F93828588
:100CC0001F928F9381858F9380858F9387818F93D8
:100CD00086818F9385818F9384818F93ED91FC9191
:100CE00083818F9382818F9381E991E09F938F938A
:100CF0008CEB91E09F938F930E9404098CEB91E021
:100D00000E9429061092E5011092E4018DB79EB76A
:100D100040960FB6F8949EBF0FBE8DBF8091E40140
:100D20009091E50101969093E5018093E401089587
:100D30001AB814B887B1887F87B980E480937C00A3
:100D400087E080937A0080917A00806880937A00AF
:100D500080917A00806480937A0080917A0086FD89
:100D6000FCCF8091780090917900089590917C005B
:100D7000907E8F71892B80937C0080917A008064B3
:100D800080937A0080917A0086FDFCCF8091780074
:100D9000909179000895CF92DF92EF92FF921F9386
:100DA000CF93DF93182FD62FC0E0C12CD12C760122
:100DB000CD1749F0812F0E94B606C80ED91EE11C3E
:100DC000F11CCF5FF5CF2C2F30E040E050E0C701A1
:100DD000B6010E94BB07C901DF91CF911F91FF901F
:100DE000EF90DF90CF900895EF92FF920F931F93B3
:100DF000CF93DF93CDB7DEB7A8970FB6F894DEBFD9
:100E00000FBECDBF7E018DE1E80EF11C8CE0F70135
:100E100011928A95E9F781E08F8F83E088A308EB30
:100E200013E028EA33E048E051E060E070E0CE01F2
:100E300001960E9415030BEC13E023EC33E04DE028
:100E400051E064E070E0CE0101960E94150301E1DB
:100E500014E029E034E045E151E065E070E0CE01C6
:100E600001960E94150302E414E02AE334E04FE106
:100E700051E068E070E0CE0101960E94150303E79F
:100E800014E02BE634E04AE251E066E070E0CE0187
:100E900001960E94150304EA14E02CE934E044E3CF
:100EA00051E067E070E0CE0101960E9415030EE864
:100EB00015E026E835E04FE351E062E070E0CE0156
:100EC00001960E94150306EF14E020E030E049E4AB
:100ED00051E061E070E0CE0101960E94150305ED3E
:100EE00014E02DEC34E048E551E063E070E0CE0121
:100EF00001960E94150300E911E02AE831E044E67A
:100F000051E069E070E0CE0101960E94150303EE06
:100F100015E02FEC35E04EE651E06AE070E0CE01DE
:100F200001960E941503B701CE0101960E94870326
:100F300080E090E0A8960FB6F894DEBF0FBECDBF5C
:100F4000DF91CF911F910F91FF90EF900895AA1B11
:100F5000BB1B51E107C0AA1FBB1FA617B70710F0A4
:100F6000A61BB70B881F991F5A95A9F780959095D6
:100F7000BC01CD010895A1E21A2EAA1BBB1BFD01E5
:100F80000DC0AA1FBB1FEE1FFF1FA217B307E40768
:100F9000F50720F0A21BB30BE40BF50B661F771FC0
:100FA000881F991F1A9469F76095709580959095A0
:100FB0009B01AC01BD01CF010895EE0FFF1F05900D
:100FC000F491E02D09940F931F93CF93DF93823018
:100FD000910510F482E090E0E091EA01F091EB01DC
:100FE00020E030E0A0E0B0E0309719F1408151817D
:100FF0000281138148175907C8F08417950769F4CF
:10100000109731F012960C93129713961C9327C0E9
:101010000093EA011093EB0122C02115310519F06C
:101020004217530718F49A01BD01EF01DF01F801DF
:10103000DBCF21153105F9F0281B390B24303105A0
:1010400080F48A819B816115710521F0FB019383F6
:10105000828304C09093EB018093EA01FE013296F3
:1010600044C0FE01E20FF31F819391932250310996
:10107000398328833AC02091E8013091E901232B7C
:1010800041F420910401309105013093E90120934E
:10109000E80120910201309103012115310541F44D
:1010A0002DB73EB74091060150910701241B350B27
:1010B000E091E801F091E901E217F307A0F42E1B9B
:1010C0003F0B2817390778F0AC014E5F5F4F2417AC
:1010D000350748F04E0F5F1F5093E9014093E80138
:1010E0008193919302C0E0E0F0E0CF01DF91CF91D6
:1010F0001F910F910895CF93DF93009709F481C05A
:10110000FC01329713821282A091EA01B091EB01A7
:10111000109781F420813181820F931F2091E80183
:101120003091E9012817390751F5F093E901E0936F
:10113000E80167C0ED0120E030E0CE17DF0740F4A2
:101140004A815B819E0141155105F1F0EA01F5CF1D
:10115000D383C28340815181840F951FC817D9075B
:1011600059F488819981840F951F02969183808319
:101170008A819B81938382832115310529F4F09321
:10118000EB01E093EA013DC0E901FB83EA83499169
:101190005991C40FD51FEC17FD0761F4808191812F
:1011A000840F951F0296E901998388838281938138
:1011B0009B838A83E0E0F0E012968D919C911397D7
:1011C000009719F0FD01DC01F7CF8D919C911197EB
:1011D0009D012E5F3F4F820F931F2091E8013091B8
:1011E000E9012817390769F4309729F41092EB01C7
:1011F0001092EA0102C013821282B093E901A09317
:10120000E801DF91CF910895AEE0B0E0EAE0F9E0C7
:101210000C94C50B0D891E8986E08C831A83098383
:101220008FEF9FE79E838D83AE01475E5F4F6F898F
:10123000788DCE0101960E942609EF81F885E00F96
:10124000F11F10822E96E4E00C94E10BABE0B0E0CD
:10125000ECE2F9E00C94B70B6C017B018A01FC0114
:1012600017821682838181FFCCC1CE0101963C0199
:10127000F6019381F70193FD859193FF81917F01A1
:10128000882309F4BAC1853239F493FD859193FF1F
:1012900081917F01853229F4B60190E00E941D0BF7
:1012A000E7CF912C212C312CFFE1F315D8F08B32B4
:1012B00079F038F4803279F08332A1F4232D206163
:1012C0001DC08D3261F0803369F4232D216016C07A
:1012D000832D8260382EE32DE4603E2E2AC0F32D4C
:1012E000F8601DC037FC2DC020ED280F2A3040F0DB
:1012F0008E32B9F436FC81C1232D2064322E19C000
:1013000036FE06C08AE0989E200D1124922E11C050
:10131000EAE02E9E200D1124222EF32DF0623F2EA6
:1013200008C08C3621F4832D8068382E02C08836A0
:1013300041F4F70193FD859193FF81917F01811124
:10134000B3CF982F9F7D9554933028F40C5F1F4F97
:101350009FE399830DC0833631F0833771F0833575
:1013600009F059C021C0F801808189830E5F1F4FA9
:1013700088248394912C530113C02801F2E04F0E6E
:10138000511CF801A080B18036FE03C0692D70E0C9
:1013900002C06FEF7FEFC5010E94120B4C0182016A
:1013A000F32DFF773F2E16C0280122E0420E511C7C
:1013B000F801A080B18036FE03C0692D70E002C044
:1013C0006FEF7FEFC5010E94070B4C01F32DF06812
:1013D0003F2E820133FC1BC0822D90E088169906B7
:1013E000B0F4B60180E290E00E941D0B2A94F4CF85
:1013F000F50137FC859137FE81915F01B60190E0E0
:101400000E941D0B21102A9421E0821A9108811458
:10141000910471F7E8C0843611F0893641F5F8017E
:1014200037FE07C060817181828193810C5F1F4FFD
:1014300008C060817181072E000C880B990B0E5F2C
:101440001F4FF32DFF763F2E97FF09C09095809593
:10145000709561957F4F8F4F9F4FF0683F2E2AE028
:1014600030E0A3010E94590B882E861845C08537AD
:1014700031F4232D2F7EB22E2AE030E025C0932DAB
:10148000997FB92E8F36C1F018F4883579F0B5C040
:10149000803719F0883721F0B0C0E92FE061BE2E07
:1014A000B4FE0DC0FB2DF460BF2E09C034FE0AC08F
:1014B000292F2660B22E06C028E030E005C020E1CA
:1014C00030E002C020E132E0F801B7FE07C06081E1
:1014D0007181828193810C5F1F4F06C06081718191
:1014E00080E090E00E5F1F4FA3010E94590B882EF1
:1014F0008618FB2DFF773F2E36FE0DC0232D2E7F45
:10150000A22E891458F434FE0BC032FC09C0832D7E
:101510008E7EA82E05C0B82CA32C03C0B82C01C009
:10152000B92CA4FE0FC0FE01E80DF11D80818033AF
:1015300021F49A2D997EA92E09C0A2FE06C0B3946B
:10154000B39404C08A2D867809F0B394A3FC11C02B
:10155000A0FE06C0B21488F4280C922C9B180EC072
:10156000B21460F4B60180E290E00E941D0BB394C7
:10157000F7CFB21418F42B1802C0982C212CA4FE1B
:1015800010C0B60180E390E00E941D0BA2FE17C0C0
:10159000A1FC03C088E790E002C088E590E0B601B6
:1015A0000CC08A2D867859F0A1FE02C08BE201C0E2
:1015B00080E2A7FC8DE2B60190E00E941D0B891429
:1015C00038F4B60180E390E00E941D0B9A94F7CFA7
:1015D0008A94F301E80DF11D8081B60190E00E942C
:1015E0001D0B8110F5CF222009F442CEB60180E216
:1015F00090E00E941D0B2A94F6CFF6018681978118
:1016000002C08FEF9FEF2B96E2E10C94D30BFC010D
:101610000590615070400110D8F7809590958E0F1D
:101620009F1F0895FC016150704001900110D8F790
:10163000809590958E0F9F1F08950F931F93CF93C2
:10164000DF93FB01238121FD03C08FEF9FEF2CC0AF
:1016500022FF16C0468157812481358142175307E6
:1016600044F4A081B1819D012F5F3F4F31832083DE
:101670008C93268137812F5F3F4F3783268314C099
:101680008B01EC01FB010084F185E02D0995892B8C
:10169000E1F6D80116968D919C91179701961796B1
:1016A0009C938E931697CE01DF91CF911F910F914E
:1016B0000895FA01AA27283051F1203181F1E894E8
:1016C0006F936E7F6E5F7F4F8F4F9F4FAF4FB1E035
:1016D0003ED0B4E03CD0670F781F891F9A1FA11D30
:1016E000680F791F8A1F911DA11D6A0F711D811D31
:1016F000911DA11D20D009F468943F912AE0269FF6
:1017000011243019305D3193DEF6CF010895462F54
:101710004770405D4193B3E00FD0C9F7F6CF462F35
:101720004F70405D4A3318F0495D31FD405241939E
:1017300002D0A9F7EACFB4E0A6959795879577955B
:101740006795BA95C9F700976105710508959B01E2
:10175000AC010A2E06945795479537952795BA956B
:10176000C9F7620F731F841F951FA01D08952F9244
:101770003F924F925F926F927F928F929F92AF9221
:10178000BF92CF92DF92EF92FF920F931F93CF936E
:10179000DF93CDB7DEB7CA1BDB0B0FB6F894DEBF05
:1017A0000FBECDBF09942A88398848885F846E842B
:1017B0007D848C849B84AA84B984C884DF80EE8075
:1017C000FD800C811B81AA81B981CE0FD11D0FB67E
:1017D000F894DEBF0FBECDBFED010895F894FFCFA2
:1017E000FCFF0000EC012000494E495400464F52D6
:1017F00057415244004C4546545F534F46540052A3
:10180000494748545F534F4654004C4546545F483F
:101810004152440052494748545F484152440043B2
:101820004F554E54444F574E00434845434B5F532A
:1018300054415254504F53004C454156455F535408
:1018400041525400434845434B5F4C415000474F81
:10185000414C5F5245414348454400457869740016
:101860000A5941592C2046494E4953484544210ABA
:10187000002573204C3A2564207C204D3A256420B5
:101880007C20523A25640A202564207C2025640AA5
:021890000A004C
:00000001FF
