:100000000C943B000C9458000C9458000C9458002D
:100010000C9458000C9458000C9458000C949101C6
:100020000C9458000C9458000C9458000C945800F0
:100030000C9458000C9458000C9458000C945800E0
:100040000C9458000C9458000C9458000C945800D0
:100050000C9458000C9458000C9458000C945800C0
:100060000C9458000C9458006B036303670350030F
:100070005A0355035E0311241FBECFEFD8E0DEBF45
:10008000CDBF11E0A0E0B1E0E0E2F4E102C00590F4
:100090000D92A638B107D9F721E0A6E8B1E001C07A
:1000A0001D92A73BB207E1F70E9429050C940E0AA6
:1000B0000C940000CF93DF93EC0164E182E00E9496
:1000C000DE049B838A8364E180E00E94DE049F83D8
:1000D0008E8364E181E00E94DE049D838C83DF9146
:1000E000CF91089521E0FC01828193818115924096
:1000F0000CF420E0822F089521E0FC018481958199
:10010000811592400CF420E0822F089521E0FC013B
:1001100086819781811592400CF420E0822F08950A
:100120000E94AB040E9475030E94700467E670E0B1
:1001300080E090E00C949903FB012081222319F0C8
:1001400041E050E002C043E050E00C94D10263E093
:1001500070E00E94790481E090E00C9442030F93D8
:100160001F93CF93DF938C01EB01CB010E945A00C8
:10017000BE01C8010E94AF038A819B818115924014
:100180001CF044E050E007C08E819F8181159240B1
:1001900054F047E050E0BE01C801DF91CF911F91BC
:1001A0000F910C94D102DF91CF911F910F9108957F
:1001B00065E070E00E94790482E090E00C944203D4
:1001C00066E070E00E94790480E090E00C944203C5
:1001D0000F931F93CF93DF938C01EB01CB010E9410
:1001E0005A00BE01C8010E94AF038C819D81811518
:1001F000924054F043E050E0BE01C801DF91CF913E
:100200001F910F910C94D102DF91CF911F910F910B
:1002100008950C94E80064E070E00E9479048EEF89
:100220009FEF0C9442030F931F93CF93DF938C01A6
:10023000EB01CB010E945A00BE01C8010E94AF032E
:100240008C819D81811592405CF08E819F8181150A
:10025000924034F443E050E0BE01C8010E94D10254
:100260008C819D8181159240A4F48E819F8181159E
:1002700092407CF48A819B818115924054F445E040
:1002800050E0BE01C801DF91CF911F910F910C94F6
:10029000D102DF91CF911F910F91089567E070E037
:1002A0000E9479048DEF9FEF0C9442030F931F93EC
:1002B000CF93DF938C01EB01CB010E945A00BE016A
:1002C000C8010E94AF038C819D81811592405CF032
:1002D0008E819F818115924034F443E050E0BE014D
:1002E000C8010E94D1028C819D8181159240A4F4A5
:1002F0008E819F81811592407CF48A819B8181153A
:10030000924054F446E050E0BE01C801DF91CF9125
:100310001F910F910C94D102DF91CF911F910F91FA
:1003200008951F920F920FB60F9211242F933F93AF
:100330004F935F936F937F938F939F93AF93BF93ED
:10034000EF93FF938091870190918801019690939C
:100350008801809387018A3628E1920729F48BEF80
:100360009FEF0E94420310C0843D904369F48CEFDC
:100370009FEF0E94420310928801109287018091A2
:1003800086018F5F80938601FF91EF91BF91AF91BE
:100390009F918F917F916F915F914F913F912F919D
:1003A0000F900FBE0F901F901895F89481E08093E6
:1003B000B100E0E7F0E080818260808382E080939A
:1003C000B0001092B2008FEF8093B300789408953C
:1003D000F894E1EBF0E080818E7F8083E0E7F0E04D
:1003E00080818D7F8083E0EBF0E080818D7F808352
:1003F0001092B2008FEF8093B3007894089508951F
:100400000F931F93CF93DF938C01EB01CB010E94DD
:100410005A004C815D812A813B818E819F814115EB
:10042000524004F1211532408CF081159240A4F025
:100430008CEF9FEF0E94420342E050E0BE01C801F2
:10044000DF91CF911F910F910C94D10281159240B1
:1004500034F08DEF9FEF1AC08EEF9FEF17C081E051
:1004600090E014C02115324034F48115924064F0BC
:1004700080E090E00BC0811592401CF482E090E097
:1004800005C08FEF9FEF02C08BEF9FEFDF91CF9101
:100490001F910F910C9442038CEF9FEF0E94420337
:1004A0000E94D50110928801109287011092860156
:1004B00008950F931F93CF93DF938C01EB01CB0132
:1004C0000E945A00809186018A3429F40E94E80132
:1004D00043E050E013C08A819B818115924054F023
:1004E0008C819D81811592402CF08E819F81811598
:1004F000924064F40E94E80141E050E0BE01C8016E
:10050000DF91CF911F910F910C94D102DF91CF9188
:100510001F910F91089508950895AF92BF92CF92C1
:10052000DF92EF92FF920F931F93CF93DF937C01A3
:10053000EB015A01690188E090E00E940306FC018A
:10054000892B21F481E090E00E940E0AD183C083C0
:10055000B382A282D582C48217830683DE011196FC
:10056000AA0FBB1FAE0DBF1DED93FC93CD2B71F4F5
:10057000D701ED93FC93CAE0D0E080E6A82E81E09D
:10058000B82EC12CD12C00E010E0D5CFDF91CF9157
:100590001F910F91FF90EF90DF90CF90BF90AF90A1
:1005A0000895DC01CB01FA013196EE0FFF1FEA0F2F
:1005B000FB1F0190F081E02DED93FC930480F58109
:1005C000E02D309709F0099408950F931F93CF936E
:1005D000DF938C010E5F1F4FEC016896F80180815C
:1005E00091810E949B06F801119211928F01EC17E4
:1005F000FD07A1F7DF91CF911F910F9108950F9300
:100600001F93CF93DF93EC018B01E881F981048084
:10061000F581E02DCB010995E881F98180819181F7
:100620000A9739F00680F781E02DB801CE010995CF
:10063000F3CFCE01DF91CF911F910F910C94E50282
:1006400062E085E290E00C941E05CF93DF93D82FF3
:10065000C0E0CD1764F464E08BE290E00E941E05D8
:1006600064E08BE290E00E941E05CF5FF2CFDF9145
:10067000CF91089562E085E290E00E94120583E048
:100680000C942503CF93DF93EC010E943A03FE0103
:100690003496E730F10530F5EC5CFF4F0C94FD0526
:1006A0000E94200381E00E9425030E94200381E034
:1006B0000E9425030E94200381E010C00E942003B5
:1006C00081E00E9425030E94200382E007C00E946F
:1006D000200382E0EDCF0E94200383E0DF91CF91E1
:1006E0000C942503DF91CF91089562E084E290E0BD
:1006F0000E94070564E08AE290E00C94070580916F
:10070000C00087FFFCCF8091C60008959091C00083
:1007100095FFFCCF8093C6000895CF93DF93EC0143
:100720008991882319F00E948603FACFDF91CF9137
:1007300008950F931F93072F182F292F3327009306
:10074000C5006093C40088E18093C1008EE080936F
:10075000C20084E891E01F910F910C948D039C01DD
:10076000FB018181882309F440C08091B1019091FF
:10077000B201AC014F5F5F4F5093B2014093B101A2
:1007800064E670E00E94C705892B79F5D90181855F
:100790001F928F9380851F928F9387818F9386817D
:1007A0008F9385818F9384818F9383818F938281AF
:1007B0008F93ED91FC9183818F9382818F9385E656
:1007C00091E09F938F9389E891E09F938F930E948C
:1007D00024078DB79EB740960FB6F8949EBF0FBE04
:1007E0008DBF89E891E00C948D030895F89415BCB1
:1007F00085B5836085BD14BC84B5836084BD789461
:1008000008958630A1F484B5611104C08F7384BD4E
:100810005E9808956F3F21F48F7384BD5E9A0895AA
:10082000806884BD84B58F7B84BD67BD08958530A5
:1008300099F484B5611104C08F7C84BD5D980895DE
:100840006F3F21F48F7C84BD5D9A0895806284BDE2
:1008500084B58F7E84BD68BD089567E08BE290E02B
:100860000E94070560E085E290E00C94120560E0CC
:1008700085E290E00E94070567E08BE290E00C942F
:10088000120563E085E290E00E94070561E085E2E1
:1008900090E00C94120561E085E290E00E9407056B
:1008A00063E085E290E00C9412058530910569F0D3
:1008B00030F48330910581F0049771F0089586300B
:1008C000910531F0079741F008950E94370406C062
:1008D0000E942D040C944B040E942D040C9441049E
:1008E0008AB180668AB9579A84B18B6884B90C94AE
:1008F000F603CF93DF93EC01CB016530710599F0DE
:1009000050F463307105A9F064307105C1F42EE62E
:10091000288720EA13C06630710549F067307105F9
:1009200071F420EA09C02EE628872EEB07C02EEBD3
:1009300003C020EA288702C028872EE629870E9464
:100940005504688585E00E940104698586E0DF9191
:10095000CF910C9401041AB814B887B1887F87B975
:1009600080E480937C0087E080937A0080917A0015
:10097000806880937A0080917A00806480937A0006
:1009800080917A0086FDFCCF80917800909179006B
:10099000089590917C00907E8F71892B80937C00CC
:1009A00080917A00806480937A0080917A0086FD3D
:1009B000FCCF80917800909179000895CF92DF92DA
:1009C000EF92FF921F93CF93DF93182FD62FC0E0A3
:1009D000C12CD12C7601CD1749F0812F0E94C9047A
:1009E000C80ED91EE11CF11CCF5FF5CF2C2F30E0D3
:1009F00040E050E0C701B6010E94DB05C901DF916C
:100A0000CF911F91FF90EF90DF90CF900895FC0160
:100A1000408121E030E001C0220F6A95EAF7242BE3
:100A200020830895FC01908121E030E001C0220F75
:100A30006A95EAF72095292320830895FC014081D7
:100A400021E030E001C0220F6A95EAF724272083D5
:100A50000895EF92FF920F931F93CF93DF93CDB73B
:100A6000DEB7A2970FB6F894DEBF0FBECDBF7E01F2
:100A700089E1E80EF11C8AE0F70111928A95E9F705
:100A800081E0898F8A8F0CE910E020E930E046E0B0
:100A900051E060E070E0CE0101960E948D020FEA05
:100AA00010E027EA30E04BE051E063E070E0CE0177
:100AB00001960E948D0209E011E028ED30E043E14B
:100AC00051E065E070E0CE0101960E948D0208EED3
:100AD00010E020EE30E048E151E066E070E0CE0149
:100AE00001960E948D0206E511E02EE431E04EE110
:100AF00051E067E070E0CE0101960E948D0203E1B3
:100B000011E02BE031E04EE251E064E070E0CE0114
:100B100001960E948D0200E012E02FEF31E04DE3DC
:100B200051E061E070E0CE0101960E948D0209E57E
:100B300012E02CE432E04CE451E062E070E0CE01DF
:100B400001960E948D020CE812E02BE832E046E5A7
:100B500051E068E070E0CE0101960E948D028BEFBB
:100B60009FEF0E944203B701CE0101960E94FF024F
:100B700080E090E0A2960FB6F894DEBF0FBECDBF26
:100B8000DF91CF911F910F91FF90EF900895AA1BD5
:100B9000BB1B51E107C0AA1FBB1FA617B70710F068
:100BA000A61BB70B881F991F5A95A9F7809590959A
:100BB000BC01CD010895A1E21A2EAA1BBB1BFD01A9
:100BC0000DC0AA1FBB1FEE1FFF1FA217B307E4072C
:100BD000F50720F0A21BB30BE40BF50B661F771F84
:100BE000881F991F1A9469F7609570958095909564
:100BF0009B01AC01BD01CF010895EE0FFF1F0590D1
:100C0000F491E02D09940F931F93CF93DF938230DB
:100C1000910510F482E090E0E091B501F091B60109
:100C200020E030E0A0E0B0E0309719F14081518140
:100C30000281138148175907C8F08417950769F492
:100C4000109731F012960C93129713961C9327C0AD
:100C50000093B5011093B60122C02115310519F09A
:100C60004217530718F49A01BD01EF01DF01F801A3
:100C7000DBCF21153105F9F0281B390B2430310564
:100C800080F48A819B816115710521F0FB019383BA
:100C9000828304C09093B6018093B501FE01329621
:100CA00044C0FE01E20FF31F81939193225031095A
:100CB000398328833AC02091B3013091B401232BAA
:100CC00041F420910201309103013093B40120934B
:100CD000B30120910001309101012115310541F44A
:100CE0002DB73EB74091040150910501241B350BEF
:100CF000E091B301F091B401E217F307A0F42E1BC9
:100D00003F0B2817390778F0AC014E5F5F4F24176F
:100D1000350748F04E0F5F1F5093B4014093B30165
:100D20008193919302C0E0E0F0E0CF01DF91CF9199
:100D30001F910F910895CF93DF93009709F481C01D
:100D4000FC01329713821282A091B501B091B601D5
:100D5000109781F420813181820F931F2091B3017C
:100D60003091B4012817390751F5F093B401E0939D
:100D7000B30167C0ED0120E030E0CE17DF0740F49B
:100D80004A815B819E0141155105F1F0EA01F5CFE1
:100D9000D383C28340815181840F951FC817D9071F
:100DA00059F488819981840F951F029691838083DD
:100DB0008A819B81938382832115310529F4F093E5
:100DC000B601E093B5013DC0E901FB83EA83499197
:100DD0005991C40FD51FEC17FD0761F480819181F3
:100DE000840F951F0296E9019983888382819381FC
:100DF0009B838A83E0E0F0E012968D919C9113979B
:100E0000009719F0FD01DC01F7CF8D919C911197AE
:100E10009D012E5F3F4F820F931F2091B3013091B0
:100E2000B4012817390769F4309729F41092B601F4
:100E30001092B50102C013821282B093B401A09344
:100E4000B301DF91CF910895AEE0B0E0EAE2F7E0C0
:100E50000C94E5090D891E8986E08C831A83098329
:100E60008FEF9FE79E838D83AE01475E5F4F6F8953
:100E7000788DCE0101960E944607EF81F885E00F3C
:100E8000F11F10822E96E4E00C94010AABE0B0E072
:100E9000ECE4F7E00C94D7096C017B018A01FC01BA
:100EA00017821682838181FFCCC1CE0101963C015D
:100EB000F6019381F70193FD859193FF81917F0165
:100EC000882309F4BAC1853239F493FD859193FFE3
:100ED00081917F01853229F4B60190E00E943D099D
:100EE000E7CF912C212C312CFFE1F315D8F08B3278
:100EF00079F038F4803279F08332A1F4232D206127
:100F00001DC08D3261F0803369F4232D216016C03D
:100F1000832D8260382EE32DE4603E2E2AC0F32D0F
:100F2000F8601DC037FC2DC020ED280F2A3040F09E
:100F30008E32B9F436FC81C1232D2064322E19C0C3
:100F400036FE06C08AE0989E200D1124922E11C014
:100F5000EAE02E9E200D1124222EF32DF0623F2E6A
:100F600008C08C3621F4832D8068382E02C0883664
:100F700041F4F70193FD859193FF81917F018111E8
:100F8000B3CF982F9F7D9554933028F40C5F1F4F5B
:100F90009FE399830DC0833631F0833771F0833539
:100FA00009F059C021C0F801808189830E5F1F4F6D
:100FB00088248394912C530113C02801F2E04F0E32
:100FC000511CF801A080B18036FE03C0692D70E08D
:100FD00002C06FEF7FEFC5010E9432094C01820110
:100FE000F32DFF773F2E16C0280122E0420E511C40
:100FF000F801A080B18036FE03C0692D70E002C008
:101000006FEF7FEFC5010E9427094C01F32DF068B7
:101010003F2E820133FC1BC0822D90E0881699067A
:10102000B0F4B60180E290E00E943D092A94F4CF2A
:10103000F50137FC859137FE81915F01B60190E0A3
:101040000E943D0921102A9421E0821A91088114FE
:10105000910471F7E8C0843611F0893641F5F80142
:1010600037FE07C060817181828193810C5F1F4FC1
:1010700008C060817181072E000C880B990B0E5FF0
:101080001F4FF32DFF763F2E97FF09C09095809557
:10109000709561957F4F8F4F9F4FF0683F2E2AE0EC
:1010A00030E0A3010E947909882E861845C0853753
:1010B00031F4232D2F7EB22E2AE030E025C0932D6F
:1010C000997FB92E8F36C1F018F4883579F0B5C004
:1010D000803719F0883721F0B0C0E92FE061BE2ECB
:1010E000B4FE0DC0FB2DF460BF2E09C034FE0AC053
:1010F000292F2660B22E06C028E030E005C020E18E
:1011000030E002C020E132E0F801B7FE07C06081A4
:101110007181828193810C5F1F4F06C06081718154
:1011200080E090E00E5F1F4FA3010E947909882E96
:101130008618FB2DFF773F2E36FE0DC0232D2E7F08
:10114000A22E891458F434FE0BC032FC09C0832D42
:101150008E7EA82E05C0B82CA32C03C0B82C01C0CD
:10116000B92CA4FE0FC0FE01E80DF11D8081803373
:1011700021F49A2D997EA92E09C0A2FE06C0B3942F
:10118000B39404C08A2D867809F0B394A3FC11C0EF
:10119000A0FE06C0B21488F4280C922C9B180EC036
:1011A000B21460F4B60180E290E00E943D09B3946D
:1011B000F7CFB21418F42B1802C0982C212CA4FEDF
:1011C00010C0B60180E390E00E943D09A2FE17C066
:1011D000A1FC03C088E790E002C088E590E0B6017A
:1011E0000CC08A2D867859F0A1FE02C08BE201C0A6
:1011F00080E2A7FC8DE2B60190E00E943D098914CF
:1012000038F4B60180E390E00E943D099A94F7CF4C
:101210008A94F301E80DF11D8081B60190E00E94EF
:101220003D098110F5CF222009F442CEB60180E2BB
:1012300090E00E943D092A94F6CFF60186819781BD
:1012400002C08FEF9FEF2B96E2E10C94F309FC01B3
:101250000590615070400110D8F7809590958E0FE1
:101260009F1F0895FC016150704001900110D8F754
:10127000809590958E0F9F1F08950F931F93CF9386
:10128000DF93FB01238121FD03C08FEF9FEF2CC073
:1012900022FF16C0468157812481358142175307AA
:1012A00044F4A081B1819D012F5F3F4F31832083A2
:1012B0008C93268137812F5F3F4F3783268314C05D
:1012C0008B01EC01FB010084F185E02D0995892B50
:1012D000E1F6D80116968D919C9117970196179675
:1012E0009C938E931697CE01DF91CF911F910F9112
:1012F0000895FA01AA27283051F1203181F1E894AC
:101300006F936E7F6E5F7F4F8F4F9F4FAF4FB1E0F8
:101310003ED0B4E03CD0670F781F891F9A1FA11DF3
:10132000680F791F8A1F911DA11D6A0F711D811DF4
:10133000911DA11D20D009F468943F912AE0269FB9
:1013400011243019305D3193DEF6CF010895462F18
:101350004770405D4193B3E00FD0C9F7F6CF462FF9
:101360004F70405D4A3318F0495D31FD4052419362
:1013700002D0A9F7EACFB4E0A6959795879577951F
:101380006795BA95C9F700976105710508959B01A6
:10139000AC010A2E06945795479537952795BA952F
:1013A000C9F7620F731F841F951FA01D08952F9208
:1013B0003F924F925F926F927F928F929F92AF92E5
:1013C000BF92CF92DF92EF92FF920F931F93CF9332
:1013D000DF93CDB7DEB7CA1BDB0B0FB6F894DEBFC9
:1013E0000FBECDBF09942A88398848885F846E84EF
:1013F0007D848C849B84AA84B984C884DF80EE8039
:10140000FD800C811B81AA81B981CE0FD11D0FB641
:10141000F894DEBF0FBECDBFED010895F894FFCF65
:101420000000B7012000496E697400466F72776151
:101430007264004C65667400526967687400534FAB
:1014400046542052494748545F4841524400534F44
:101450004654204C4546545F484152440043484559
:10146000434B5F5354415254504F5300434F554EDA
:1014700054444F574E00434845434B5F4C41500046
:1014800045786974002573204C3A2564207C204DF2
:101490003A2564207C20523A25640A202564207C69
:0614A0002025640A0A0089
:00000001FF
