:100000000C943B000C9458000C9458000C9458002D
:100010000C9458000C9458000C9458000C94580000
:100020000C9458000C9458000C9458000C945800F0
:100030000C9458000C9458000C9458000C945800E0
:100040000C9458000C9458000C9458000C945800D0
:100050000C9458000C9458000C9458000C945800C0
:100060000C9458000C9458006B0263026702500213
:100070005A0255025E0211241FBECFEFD8E0DEBF48
:10008000CDBF11E0A0E0B1E0E2E1F2E102C00590F5
:100090000D92A638B107D9F721E0A6E8B1E001C07A
:1000A0001D92A43BB207E1F70E9429040C940709B2
:1000B0000C940000CF93DF93EC0164E182E00E9496
:1000C000DE039B838A8364E180E00E94DE039F83DA
:1000D0008E8364E181E00E94DE039D838C83DF9147
:1000E000CF91089521E0FC01828193818115924096
:1000F0000CF420E0822F089521E0FC018481958199
:10010000811592400CF420E0822F089521E0FC013B
:1001100086819781811592400CF420E0822F08950A
:100120000E94AB030E9475020E94700367E670E0B4
:1001300080E090E00C94990243E050E00C94D401EC
:1001400063E070E00E94790381E090E00C94420249
:100150000F931F93CF93DF938C01EB01CB010E9490
:100160005A00BE01C8010E94AF028A819B8181159D
:1001700092401CF044E050E007C08E819F818115C1
:10018000924054F047E050E0BE01C801DF91CF91AA
:100190001F910F910C94D401DF91CF911F910F917A
:1001A000089565E070E00E94790382E090E00C948D
:1001B000420266E070E00E94790380E090E00C94D7
:1001C00042020F931F93CF93DF938C01EB01CB017E
:1001D0000E945A00BE01C8010E94AF028C819D811D
:1001E0008115924054F043E050E0BE01C801DF9118
:1001F000CF911F910F910C94D401DF91CF911F915A
:100200000F9108950C94E10064E070E00E9479037E
:100210008EEF9FEF0C9442020F931F93CF93DF93C7
:100220008C01EB01CB010E945A00BE01C8010E9463
:10023000AF028C819D81811592405CF08E819F81FF
:100240008115924034F443E050E0BE01C8010E94A1
:10025000D4018C819D8181159240A4F48E819F816F
:10026000811592407CF48A819B818115924054F4DF
:1002700045E050E0BE01C801DF91CF911F910F9181
:100280000C94D401DF91CF911F910F91089567E0F5
:1002900070E00E9479038DEF9FEF0C9442020F9360
:1002A0001F93CF93DF938C01EB01CB010E945A0087
:1002B000BE01C8010E94AF028C819D8181159240D0
:1002C0005CF08E819F818115924034F443E050E0D0
:1002D000BE01C8010E94D4018C819D81811592408C
:1002E000A4F48E819F81811592407CF48A819B8148
:1002F0008115924054F446E050E0BE01C801DF9100
:10030000CF911F910F910C94D401DF91CF911F9148
:100310000F910895089508950895089508950895F2
:10032000AF92BF92CF92DF92EF92FF920F931F9303
:10033000CF93DF937C01EB015A01690188E090E0E3
:100340000E94FC04FC01892B21F481E090E00E94D2
:100350000709D183C083B382A282D582C482178366
:100360000683DE011196AA0FBB1FAE0DBF1DED93D4
:10037000FC93CD2B71F4D701ED93FC93CAE0D0E050
:1003800080E6A82E81E0B82EC12CD12C00E010E030
:10039000D5CFDF91CF911F910F91FF90EF90DF901C
:1003A000CF90BF90AF900895DC01CB01FA01319658
:1003B000EE0FFF1FEA0FFB1F0190F081E02DED9380
:1003C000FC930480F581E02D09940F931F93CF9344
:1003D000DF938C010E5F1F4FEC016896F80180815E
:1003E00091810E949405F801119211928F01EC17EE
:1003F000FD07A1F7DF91CF911F910F9108950F9302
:100400001F93CF93DF93EC018B01E881F981048086
:10041000F581E02DCB010995E881F98180819181F9
:100420000A9739F00680F781E02DB801CE010995D1
:10043000F3CFCE01DF91CF911F910F910C94E50185
:1004400062E085E290E00C941E04CF93DF93D82FF6
:10045000C0E0CD1764F464E08BE290E00E941E04DB
:1004600064E08BE290E00E941E04CF5FF2CFDF9148
:10047000CF91089562E085E290E00E94120483E04B
:100480000C942502CF93DF93EC010E943A02FE0107
:100490003496E730F10530F5EC5CFF4F0C94F60430
:1004A0000E94200281E00E9425020E94200281E039
:1004B0000E9425020E94200281E010C00E942002BA
:1004C00081E00E9425020E94200282E007C00E9473
:1004D000200282E0EDCF0E94200283E0DF91CF91E5
:1004E0000C942502DF91CF91089562E084E290E0C0
:1004F0000E94070464E08AE290E00C940704809173
:10050000C00087FFFCCF8091C60008959091C00085
:1005100095FFFCCF8093C6000895CF93DF93EC0145
:100520008991882319F00E948602FACFDF91CF913A
:1005300008950F931F93072F182F292F3327009308
:10054000C5006093C40088E18093C1008EE0809371
:10055000C20084E891E01F910F910C948D029C01E0
:10056000FB018181882309F440C08091AE01909104
:10057000AF01AC014F5F5F4F5093AF014093AE01AD
:1005800064E670E00E94C004892B79F5D901818569
:100590001F928F9380851F928F9387818F9386817F
:1005A0008F9385818F9384818F9383818F938281B1
:1005B0008F93ED91FC9183818F9382818F9385E658
:1005C00091E09F938F9386E891E09F938F930E9491
:1005D0001D068DB79EB740960FB6F8949EBF0FBE0E
:1005E0008DBF86E891E00C948D020895F89415BCB7
:1005F00085B5836085BD14BC84B5836084BD789463
:1006000008958630A1F484B5611104C08F7384BD50
:100610005E9808956F3F21F48F7384BD5E9A0895AC
:10062000806884BD84B58F7B84BD67BD08958530A7
:1006300099F484B5611104C08F7C84BD5D980895E0
:100640006F3F21F48F7C84BD5D9A0895806284BDE4
:1006500084B58F7E84BD68BD089567E08BE290E02D
:100660000E94070460E085E290E00C94120460E0D0
:1006700085E290E00E94070467E08BE290E00C9432
:10068000120463E085E290E00E94070461E085E2E5
:1006900090E00C94120461E085E290E00E9407046F
:1006A00063E085E290E00C9412048530910569F0D6
:1006B00030F48330910581F0049771F0089586300D
:1006C000910531F0079741F008950E94370306C065
:1006D0000E942D030C944B030E942D030C944103A4
:1006E0008AB180668AB9579A84B18B6884B90C94B0
:1006F000F602CF93DF93EC01CB016530710599F0E1
:1007000050F463307105A9F064307105C1F42EE630
:10071000288720EA13C06630710549F067307105FB
:1007200071F420EA09C02EE628872EEB07C02EEBD5
:1007300003C020EA288702C028872EE629870E9466
:100740005503688585E00E940103698586E0DF9195
:10075000CF910C9401031AB814B887B1887F87B978
:1007600080E480937C0087E080937A0080917A0017
:10077000806880937A0080917A00806480937A0008
:1007800080917A0086FDFCCF80917800909179006D
:10079000089590917C00907E8F71892B80937C00CE
:1007A00080917A00806480937A0080917A0086FD3F
:1007B000FCCF80917800909179000895CF92DF92DC
:1007C000EF92FF921F93CF93DF93182FD62FC0E0A5
:1007D000C12CD12C7601CD1749F0812F0E94C9037D
:1007E000C80ED91EE11CF11CCF5FF5CF2C2F30E0D5
:1007F00040E050E0C701B6010E94D404C901DF9176
:10080000CF911F91FF90EF90DF90CF900895FC0162
:10081000408121E030E001C0220F6A95EAF7242BE5
:1008200020830895FC01908121E030E001C0220F77
:100830006A95EAF72095292320830895FC014081D9
:1008400021E030E001C0220F6A95EAF724272083D7
:100850000895EF92FF920F931F93CF93DF93CDB73D
:10086000DEB7A2970FB6F894DEBF0FBECDBF7E01F4
:1008700089E1E80EF11C8AE0F70111928A95E9F707
:100880000CE910E020E930E046E051E060E070E083
:10089000CE0101960E94900108EA10E020EA30E0C3
:1008A0004BE051E063E070E0CE0101960E949001C0
:1008B00002E011E021ED30E043E151E065E070E05D
:1008C000CE0101960E94900101EE10E029ED30E08A
:1008D00048E151E066E070E0CE0101960E9490018F
:1008E0000FE411E027E431E04EE151E067E070E011
:1008F000CE0101960E9490010CE011E024E031E06D
:100900004EE251E064E070E0CE0101960E94900159
:100910000BE811E02AE831E04DE351E061E070E0DE
:10092000CE0101960E9490010DE811E02CE831E023
:100930004CE451E062E070E0CE0101960E9490012B
:100940000FE811E02EE831E046E551E068E070E0A4
:10095000CE0101960E949001B701CE0101960E943E
:10096000FF0180E090E0A2960FB6F894DEBF0FBEC4
:10097000CDBFDF91CF911F910F91FF90EF90089520
:10098000AA1BBB1B51E107C0AA1FBB1FA617B707B5
:1009900010F0A61BB70B881F991F5A95A9F78095D1
:1009A0009095BC01CD010895A1E21A2EAA1BBB1B94
:1009B000FD010DC0AA1FBB1FEE1FFF1FA217B3072B
:1009C000E407F50720F0A21BB30BE40BF50B661F41
:1009D000771F881F991F1A9469F760957095809505
:1009E00090959B01AC01BD01CF010895EE0FFF1F53
:1009F0000590F491E02D09940F931F93CF93DF930B
:100A00008230910510F482E090E0E091B201F09123
:100A1000B30120E030E0A0E0B0E0309719F1408170
:100A200051810281138148175907C8F0841795072F
:100A300069F4109731F012960C93129713961C9349
:100A400027C00093B2011093B30122C021153105D4
:100A500019F04217530718F49A01BD01EF01DF01A5
:100A6000F801DBCF21153105F9F0281B390B2430B3
:100A7000310580F48A819B816115710521F0FB01AC
:100A80009383828304C09093B3018093B201FE01EB
:100A9000329644C0FE01E20FF31F819391932250DE
:100AA0003109398328833AC02091B0013091B101D6
:100AB000232B41F420910201309103013093B101C5
:100AC0002093B001209100013091010121153105E1
:100AD00041F42DB73EB74091040150910501241B0C
:100AE000350BE091B001F091B101E217F307A0F4EA
:100AF0002E1B3F0B2817390778F0AC014E5F5F4F74
:100B00002417350748F04E0F5F1F5093B1014093F3
:100B1000B0018193919302C0E0E0F0E0CF01DF915A
:100B2000CF911F910F910895CF93DF93009709F410
:100B300081C0FC01329713821282A091B201B09160
:100B4000B301109781F420813181820F931F20918E
:100B5000B0013091B1012817390751F5F093B10177
:100B6000E093B00167C0ED0120E030E0CE17DF0771
:100B700040F44A815B819E0141155105F1F0EA0183
:100B8000F5CFD383C28340815181840F951FC8174D
:100B9000D90759F488819981840F951F0296918312
:100BA00080838A819B81938382832115310529F477
:100BB000F093B301E093B2013DC0E901FB83EA8306
:100BC00049915991C40FD51FEC17FD0761F480813D
:100BD0009181840F951F0296E90199838883828110
:100BE00093819B838A83E0E0F0E012968D919C9143
:100BF0001397009719F0FD01DC01F7CF8D919C91BF
:100C000011979D012E5F3F4F820F931F2091B001DE
:100C10003091B1012817390769F4309729F41092FF
:100C2000B3011092B20102C013821282B093B101DB
:100C3000A093B001DF91CF910895AEE0B0E0E3E280
:100C4000F6E00C94DE080D891E8986E08C831A83F9
:100C500009838FEF9FE79E838D83AE01475E5F4FD1
:100C60006F89788DCE0101960E943F06EF81F8854D
:100C7000E00FF11F10822E96E4E00C94FA08ABE02E
:100C8000B0E0E5E4F6E00C94D0086C017B018A0149
:100C9000FC0117821682838181FFCCC1CE010196AF
:100CA0003C01F6019381F70193FD859193FF8191BA
:100CB0007F01882309F4BAC1853239F493FD859107
:100CC00093FF81917F01853229F4B60190E00E9463
:100CD0003608E7CF912C212C312CFFE1F315D8F009
:100CE0008B3279F038F4803279F08332A1F4232DFD
:100CF00020611DC08D3261F0803369F4232D2160A5
:100D000016C0832D8260382EE32DE4603E2E2AC06B
:100D1000F32DF8601DC037FC2DC020ED280F2A30C0
:100D200040F08E32B9F436FC81C1232D2064322E7E
:100D300019C036FE06C08AE0989E200D1124922E1E
:100D400011C0EAE02E9E200D1124222EF32DF06218
:100D50003F2E08C08C3621F4832D8068382E02C0C7
:100D6000883641F4F70193FD859193FF81917F01CE
:100D70008111B3CF982F9F7D9554933028F40C5F49
:100D80001F4F9FE399830DC0833631F0833771F095
:100D9000833509F059C021C0F801808189830E5F35
:100DA0001F4F88248394912C530113C02801F2E033
:100DB0004F0E511CF801A080B18036FE03C0692D92
:100DC00070E002C06FEF7FEFC5010E942B084C015D
:100DD0008201F32DFF773F2E16C0280122E0420E3C
:100DE000511CF801A080B18036FE03C0692D70E06F
:100DF00002C06FEF7FEFC5010E9420084C01F32D68
:100E0000F0683F2E820133FC1BC0822D90E08816D3
:100E10009906B0F4B60180E290E00E9436082A9468
:100E2000F4CFF50137FC859137FE81915F01B60162
:100E300090E00E94360821102A9421E0821A91083D
:100E40008114910471F7E8C0843611F0893641F5B8
:100E5000F80137FE07C060817181828193810C5F48
:100E60001F4F08C060817181072E000C880B990B01
:100E70000E5F1F4FF32DFF763F2E97FF09C0909511
:100E80008095709561957F4F8F4F9F4FF0683F2EF3
:100E90002AE030E0A3010E947208882E861845C01F
:100EA000853731F4232D2F7EB22E2AE030E025C085
:100EB000932D997FB92E8F36C1F018F4883579F0CB
:100EC000B5C0803719F0883721F0B0C0E92FE06154
:100ED000BE2EB4FE0DC0FB2DF460BF2E09C034FE43
:100EE0000AC0292F2660B22E06C028E030E005C0D7
:100EF00020E130E002C020E132E0F801B7FE07C097
:100F000060817181828193810C5F1F4F06C0608177
:100F1000718180E090E00E5F1F4FA3010E94720874
:100F2000882E8618FB2DFF773F2E36FE0DC0232D11
:100F30002E7FA22E891458F434FE0BC032FC09C057
:100F4000832D8E7EA82E05C0B82CA32C03C0B82CF0
:100F500001C0B92CA4FE0FC0FE01E80DF11D808177
:100F6000803321F49A2D997EA92E09C0A2FE06C0D5
:100F7000B394B39404C08A2D867809F0B394A3FC8B
:100F800011C0A0FE06C0B21488F4280C922C9B1845
:100F90000EC0B21460F4B60180E290E00E94360800
:100FA000B394F7CFB21418F42B1802C0982C212C4C
:100FB000A4FE10C0B60180E390E00E943608A2FEB5
:100FC00017C0A1FC03C088E790E002C088E590E06C
:100FD000B6010CC08A2D867859F0A1FE02C08BE2C2
:100FE00001C080E2A7FC8DE2B60190E00E943608C5
:100FF000891438F4B60180E390E00E9436089A9490
:10100000F7CF8A94F301E80DF11D8081B60190E0DD
:101010000E9436088110F5CF222009F442CEB60195
:1010200080E290E00E9436082A94F6CFF60186818D
:10103000978102C08FEF9FEF2B96E2E10C94EC08B2
:10104000FC010590615070400110D8F78095909593
:101050008E0F9F1F0895FC01615070400190011098
:10106000D8F7809590958E0F9F1F08950F931F932B
:10107000CF93DF93FB01238121FD03C08FEF9FEF0F
:101080002CC022FF16C0468157812481358142172A
:10109000530744F4A081B1819D012F5F3F4F3183FD
:1010A00020838C93268137812F5F3F4F37832683A0
:1010B00014C08B01EC01FB010084F185E02D099542
:1010C000892BE1F6D80116968D919C911797019680
:1010D00017969C938E931697CE01DF91CF911F9117
:1010E0000F910895FA01AA27283051F1203181F19A
:1010F000E8946F936E7F6E5F7F4F8F4F9F4FAF4F20
:10110000B1E03ED0B4E03CD0670F781F891F9A1F32
:10111000A11D680F791F8A1F911DA11D6A0F711DE6
:10112000811D911DA11D20D009F468943F912AE0F2
:10113000269F11243019305D3193DEF6CF010895DA
:10114000462F4770405D4193B3E00FD0C9F7F6CF0B
:10115000462F4F70405D4A3318F0495D31FD4052D3
:10116000419302D0A9F7EACFB4E0A6959795879569
:1011700077956795BA95C9F7009761057105089548
:101180009B01AC010A2E06945795479537952795F4
:10119000BA95C9F7620F731F841F951FA01D08958C
:1011A0002F923F924F925F926F927F928F929F9277
:1011B000AF92BF92CF92DF92EF92FF920F931F9365
:1011C000CF93DF93CDB7DEB7CA1BDB0B0FB6F89416
:1011D000DEBF0FBECDBF09942A88398848885F8456
:1011E0006E847D848C849B84AA84B984C884DF80C7
:1011F000EE80FD800C811B81AA81B981CE0FD11DAB
:101200000FB6F894DEBF0FBECDBFED010895F89480
:02121000FFCF0E
:101212000000B4012000496E697400466F72776164
:101222007264004C65667400526967687400534FBB
:1012320046542052494748545F4841524400534F54
:101242004654204C4546545F484152440043484569
:10125200434B5F5354415254504F5300434F554EEA
:1012620054444F574E00434845434B5F4C41500056
:1012720045786974002573204C3A2564207C204D02
:101282003A2564207C20523A25640A202564207C79
:061292002025640A0A0099
:00000001FF
