:100000000C944C000C9469000C9469000C946900E9
:100010000C9469000C9469000C9469000C946900BC
:100020000C9469000C9456060C9469000C946900B9
:100030000C9469000C9447050C9469000C946900B9
:100040000C9469000C9469000C9469000C9469008C
:100050000C9469000C9469000C9469000C9469007C
:100060000C9469000C946900080300030403ED027A
:10007000F702F202FB0289048904810485048904E1
:10008000890489048C048C04A704A704B004B40474
:10009000AB04B804BD04BB0411241FBECFEFD8E0ED
:1000A000DEBFCDBF11E0A0E0B1E0E0ECF7E102C0BF
:1000B00005900D92A43BB107D9F721E0A4EBB1E084
:1000C00001C01D92AC3EB207E1F70E94E5060C9418
:1000D000DE0B0C940000CF93DF93EC0164E182E02F
:1000E0000E94FC049D838C8364E180E00E94FC04F8
:1000F0009987888764E181E00E94FC049F838E8356
:10010000DF91CF91089521E0FC01848195818115D3
:10011000924008F420E0822F089521E0FC018681BE
:1001200097818115924008F420E0822F089521E004
:10013000FC01808591858115924008F420E0822F92
:100140000895FC01848195818115924070F086812B
:1001500097818115924048F091E0208531852115E5
:10016000324008F490E0892F089580E008950E94BD
:10017000C9040E9484030E94910467E670E080E055
:1001800090E00E94A8030E9486050C947D06FB0166
:100190002081222319F041E050E002C043E050E00A
:1001A0000C946E0264E070E00E949A0481E090E09A
:1001B0000C94DF020F931F93CF93DF938C01EB011D
:1001C000CB010E946B00BE01C8010E94BE03CE019C
:1001D0000E948300882341F0CE010E949700811184
:1001E00003C045E050E017C0CE010E94970088236D
:1001F00041F0CE010E948300811103C048E050E02D
:100200000AC08A81882379F0CE010E94A100882348
:1002100051F049E050E0BE01C801DF91CF911F913C
:100220000F910C946E02DF91CF911F910F91089561
:1002300065E070E00E949A048EEF9FEF0C94DF025D
:100240000F931F93CF93DF938C01EB01CB010E949F
:100250006B00BE01C8010E94BE03CE010E948D004A
:10026000882319F044E050E007C0CE010E948300CB
:1002700081110AC046E050E0BE01C801DF91CF9174
:100280001F910F910C946E02DF91CF911F910F91EE
:10029000089568E070E00E949A048DEF9FEF0C943F
:1002A000DF020F931F93CF93DF938C01EB01CB0100
:1002B0000E946B00BE01C8010E94BE03CE010E94D5
:1002C0008D00882319F044E050E007C0CE010E9461
:1002D000970081110AC047E050E0BE01C801DF91DC
:1002E000CF911F910F910C946E02DF91CF911F91CE
:1002F0000F91089566E070E00E949A0482E090E019
:100300000C94DF020F931F93CF93DF938C01EB01CB
:10031000CB010E946B00BE01C8010E94BE03CE014A
:100320000E948300882319F045E050E00FC0CE0101
:100330000E949700882319F048E050E007C0CE01E2
:100340000E948D00882351F044E050E0BE01C801B6
:10035000DF91CF911F910F910C946E02DF91CF919D
:100360001F910F91089567E070E00E949A0480E069
:1003700090E00C94DF020F931F93CF93DF938C01D7
:10038000EB01CB010E946B00BE01C8010E94BE03BD
:10039000CE010E949700882319F048E050E00FC07A
:1003A000CE010E948300882319F045E050E007C089
:1003B000CE010E948D00882351F044E050E0BE0140
:1003C000C801DF91CF911F910F910C946E02DF91C4
:1003D000CF911F910F91089564E070E00E949A04FC
:1003E0008CEF9FEF0C94DF020F931F93CF93DF935B
:1003F0008C01EB01CB010E946B00BE01C8010E9481
:10040000BE03CE010E94A10081110AC044E050E069
:10041000BE01C801DF91CF911F910F910C946E0224
:10042000DF91CF911F910F9108950F931F93CF9359
:10043000DF938C01EB01CB010E946B00BE01C80170
:100440000E94BE03BE01C801DF91CF911F910F91A1
:100450000C941203AF92BF92CF92DF92EF92FF9271
:100460000F931F93CF93DF937C01EB015A01690136
:1004700088E090E00E94D307FC01892B21F481E001
:1004800090E00E94DE0BD183C083B382A282D5822A
:10049000C48217830683DE011196AA0FBB1FAE0D1F
:1004A000BF1DED93FC93CD2B71F4D701ED93FC931D
:1004B000CCE0D0E08DE7A82E81E0B82EC12CD12C65
:1004C00000E010E0D5CFDF91CF911F910F91FF9009
:1004D000EF90DF90CF90BF90AF900895DC01CB01FB
:1004E000FA013196EE0FFF1FEA0FFB1F0190F0811A
:1004F000E02DED93FC930480F581E02D309709F019
:10050000099408950F931F93CF93DF938C010E5F8F
:100510001F4FEC016C96F801808191810E946B085D
:10052000F801119211928F01EC17FD07A1F7DF91ED
:10053000CF911F910F9108950F931F93CF93DF9346
:10054000EC018B01E881F9810480F581E02DCB017C
:100550000995E881F981808191810C9739F00680B5
:10056000F781E02DB801CE010995F3CFCE01DF91DF
:10057000CF911F910F910C94820262E085E290E08E
:100580000C943C05CF93DF93D82FC0E0CD1764F4D3
:1005900064E08BE290E00E943C0564E08BE290E036
:1005A0000E943C05CF5FF2CFDF91CF91089562E0CA
:1005B00085E290E00E94300583E00C94C202CF9364
:1005C000DF93EC010E94D702FE013496E730F1057B
:1005D00030F5EC5CFF4F0C94CD070E94BD0281E02A
:1005E0000E94C2020E94BD0281E00E94C2020E94DB
:1005F000BD0281E010C00E94BD0281E00E94C202E3
:100600000E94BD0282E007C00E94BD0282E0EDCFE1
:100610000E94BD0283E0DF91CF910C94C202DF9172
:10062000CF9108950F931F93CF93DF938C01EB012C
:10063000CB010E948D008823D1F1CE010E9483005E
:10064000882399F0CE010E949700882371F08CEFE7
:100650009FEF0E94DF0242E050E0BE01C801DF913F
:10066000CF911F910F910C946E02CE010E948300D6
:10067000811108C0CE010E949700882319F08DEFE8
:100680009FEF0CC0CE010E948300882369F0CE0149
:100690000E949700811108C08EEF9FEFDF91CF91EC
:1006A0001F910F910C94DF0281E090E0F7CFCE0113
:1006B0000E948300811108C0CE010E949700882308
:1006C00019F080E090E0EACFCE010E9483008823F9
:1006D00041F0CE010E949700811103C082E090E0BA
:1006E000DDCFCE010E948300882341F0CE010E941D
:1006F0009700882319F08FEF9FEFD0CFDF91CF9134
:100700001F910F910C94D70262E084E290E00E9466
:10071000250564E08AE290E00C9425058091C000F4
:1007200087FFFCCF8091C60008959091C00095FF8F
:10073000FCCF8093C6000895CF93DF93EC0189919D
:10074000882319F00E949503FACFDF91CF91089585
:100750000F931F93072F182F292F33270093C500BE
:100760006093C40088E18093C1008EE08093C20052
:1007700081EA91E01F910F910C949C039C01FB0175
:100780008181882309F440C08091DC019091DD01D2
:10079000AC014F5F5F4F5093DD014093DC0164E695
:1007A00070E00E949707892B79F5D90183851F9204
:1007B0008F9382851F928F9381858F9380858F93EE
:1007C00087818F9386818F9385818F9384818F9387
:1007D000ED91FC9183818F9382818F9382E891E0E8
:1007E0009F938F9384EB91E09F938F930E94F408E3
:1007F0008DB79EB740960FB6F8949EBF0FBE8DBFC3
:1008000084EB91E00C949C030895F89415BC85B595
:10081000836085BD14BC84B5836084BD78940895DD
:100820008630A1F484B5611104C08F7384BD5E98D5
:1008300008956F3F21F48F7384BD5E9A0895806898
:1008400084BD84B58F7B84BD67BD0895853099F4E0
:1008500084B5611104C08F7C84BD5D9808956F3F9D
:1008600021F48F7C84BD5D9A0895806284BD84B537
:100870008F7E84BD68BD089567E08BE290E00E94A2
:10088000250560E085E290E00C94300560E085E2AB
:1008900090E00E94250567E08BE290E00C94300523
:1008A00063E085E290E00E94250561E085E290E04A
:1008B0000C94300561E085E290E00E94250563E03C
:1008C00085E290E00C94300567E08BE290E00E94B6
:1008D000300560E085E290E00C94300563E085E24D
:1008E00090E00E94300561E085E290E00C943005D4
:1008F000049789309105A0F4855C9F4FFC010C940E
:10090000CD070E9446040C9450040E943C040C94B1
:100910005A040E943C04F7CF0E9464040C946E04B5
:1009200008958AB180668AB9579A84B18B6884B970
:100930000C940504CF93DF93EC01CB01FB013497BA
:10094000E830F105D0F4EC5BFF4F0C94CD0724E6C2
:100950002A8726E903C026E92A8724E62B870DC0CB
:100960002BE92A872CEDFACF2CED2A872BE9F6CF3D
:1009700024E62A87F3CF1A861B860E9478046A85AC
:1009800085E00E9410046B8586E0DF91CF910C9486
:1009900010041AB814B887B1887F87B980E48093AF
:1009A0007C0087E080937A0080917A008068809351
:1009B0007A0080917A00806480937A0080917A0036
:1009C00086FDFCCF809178009091790008959091F8
:1009D0007C00907E8F71892B80937C0080917A00BF
:1009E000806480937A0080917A0086FDFCCF8091AC
:1009F0007800909179000895CF92DF92EF92FF9264
:100A00001F93CF93DF93182FD62FC0E0C12CD12C8A
:100A10007601CD1749F0812F0E94E704C80ED91E38
:100A2000E11CF11CCF5FF5CF2C2F30E040E050E00F
:100A3000C701B6010E94AB07C901DF91CF911F9199
:100A4000FF90EF90DF90CF900895FC01408121E06E
:100A500030E001C0220F6A95EAF7242B2083089525
:100A6000FC01908121E030E001C0220F6A95EAF795
:100A70002095292320830895FC01408121E030E066
:100A800001C0220F6A95EAF72427208308951F9258
:100A90000F920FB60F9211242F933F938F939F9332
:100AA0008091E2019091E30101969093E30180939C
:100AB000E2018091E0019091E10101969093E101C2
:100AC0008093E0018091E2019091E301489739F42D
:100AD0001092E3011092E20181E08093DF01209106
:100AE000E0013091E101809102019091030128170A
:100AF000390719F481E08093DE019F918F913F9136
:100B00002F910F900FBE0F901F901895F894E1E869
:100B1000F0E081E08083A0E8B0E08C918C7F8C9342
:100B20008081877E808378940895009729F00197CB
:100B300049F488E399E302C08EE49EE090930301B8
:100B4000809302011092E3011092E2011092E10100
:100B50001092E0011092DF011092DE01F894809172
:100B60006F00816080936F00109285001092840066
:100B700078940895F894EFE6F0E080818E7F80838A
:100B8000789408958CEF9FEF0E94DF0280E090E060
:100B90000C9495050F931F93CF93DF938C01EB017A
:100BA000CB010E946B008091DE01882329F00E9416
:100BB000BA0543E050E009C0CE010E94A1008111B6
:100BC00008C00E94BA0541E050E0BE01C8010E9481
:100BD0006E028091DF018823C9F01092DF018091BD
:100BE000000190910101049639F48BEF9FEF0E9470
:100BF000DF028BEF9FEF06C08CEF9FEF0E94DF02BA
:100C00008CEF9FEF9093010180930001DF91CF91D2
:100C10001F910F910895CF93DF93EC016BE070E08B
:100C20000E949A0483EA91E00E949C0381E090E094
:100C30000E9495051B82DF91CF9108950F931F931A
:100C4000CF93DF93EC018B018091DE01882361F06B
:100C50000E94BA0543E050E0B801CE01DF91CF9188
:100C60001F910F910C946E028091DF018823C9F0CF
:100C70001092DF018091000190910101049639F4F6
:100C80008BEF9FEF0E94DF028BEF9FEF06C08CEF90
:100C90009FEF0E94DF028CEF9FEF90930101809302
:100CA0000001DF91CF911F910F9108951F920F9234
:100CB0000FB60F9211242F938F939F938091E5018C
:100CC0009091E60101969093E6018093E501809171
:100CD000E5019091E6018138994239F481E08093F1
:100CE000E4011092E6011092E5019F918F912F91FE
:100CF0000F900FBE0F901F901895F894E1EBF0E065
:100D000081E08083A0EBB0E08C918C7F8C9380811C
:100D1000877F8083789408951092E6011092E50110
:100D20001092E401F894E0E7F0E080818160808334
:100D30001092B20078940895F894E0E7F0E0808192
:100D40008E7F80837894089569E070E00E949A0411
:100D50000C948C060F931F93CF93DF938C01EB01C0
:100D6000CB010E946B00BE01C8010E94BE038091AE
:100D7000E401882369F00E949C068B818F5F8B833E
:100D8000833018F04AE050E013C043E050E010C058
:100D9000CE010E94A100811113C08091E7018F5FF5
:100DA0008093E701882361F00E949C0644E050E0B4
:100DB000BE01C801DF91CF911F910F910C946E027B
:100DC000DF91CF911F910F910895EF92FF920F93B2
:100DD0001F93CF93DF93CDB7DEB7A8970FB6F894E4
:100DE000DEBF0FBECDBF7E018DE1E80EF11C8CE0B1
:100DF000F70111928A95E9F781E08D8F8F8F07ECCB
:100E000010E027EB30E04AE051E060E070E0CE0116
:100E100001960E942A020AED10E022ED30E04FE038
:100E200051E064E070E0CE0101960E942A0200E2E7
:100E300011E028E131E047E151E065E070E0CE01EA
:100E400001960E942A0201E511E029E431E041E225
:100E500051E068E070E0CE0101960E942A0202E8AB
:100E600011E02AE731E04CE251E066E070E0CE01AB
:100E700001960E942A020BEB11E023EB31E046E3DE
:100E800051E067E070E0CE0101960E942A0205E180
:100E900012E020E030E041E451E061E070E0CE019A
:100EA00001960E942A020AEC15E022EC35E040E5AA
:100EB00051E062E070E0CE0101960E942A0204EF48
:100EC00011E02CEE31E04AE551E063E070E0CE0144
:100ED00001960E942A020AEA16E024EA36E046E673
:100EE00051E069E070E0CE0101960E942A020EE115
:100EF00016E02BE036E040E751E06AE070E0CE011A
:100F000001960E942A02B701CE0101960E949C021E
:100F100080E090E0A8960FB6F894DEBF0FBECDBF7C
:100F2000DF91CF911F910F91FF90EF900895AA1B31
:100F3000BB1B51E107C0AA1FBB1FA617B70710F0C4
:100F4000A61BB70B881F991F5A95A9F780959095F6
:100F5000BC01CD010895A1E21A2EAA1BBB1BFD0105
:100F60000DC0AA1FBB1FEE1FFF1FA217B307E40788
:100F7000F50720F0A21BB30BE40BF50B661F771FE0
:100F8000881F991F1A9469F76095709580959095C0
:100F90009B01AC01BD01CF010895EE0FFF1F05902D
:100FA000F491E02D09940F931F93CF93DF93823038
:100FB000910510F482E090E0E091EA01F091EB01FC
:100FC00020E030E0A0E0B0E0309719F1408151819D
:100FD0000281138148175907C8F08417950769F4EF
:100FE000109731F012960C93129713961C9327C00A
:100FF0000093EA011093EB0122C02115310519F08D
:101000004217530718F49A01BD01EF01DF01F801FF
:10101000DBCF21153105F9F0281B390B24303105C0
:1010200080F48A819B816115710521F0FB01938316
:10103000828304C09093EB018093EA01FE01329613
:1010400044C0FE01E20FF31F8193919322503109B6
:10105000398328833AC02091E8013091E901232B9C
:1010600041F420910601309107013093E90120936A
:10107000E80120910401309105012115310541F469
:101080002DB73EB74091080150910901241B350B43
:10109000E091E801F091E901E217F307A0F42E1BBB
:1010A0003F0B2817390778F0AC014E5F5F4F2417CC
:1010B000350748F04E0F5F1F5093E9014093E80158
:1010C0008193919302C0E0E0F0E0CF01DF91CF91F6
:1010D0001F910F910895CF93DF93009709F481C07A
:1010E000FC01329713821282A091EA01B091EB01C8
:1010F000109781F420813181820F931F2091E801A4
:101100003091E9012817390751F5F093E901E0938F
:10111000E80167C0ED0120E030E0CE17DF0740F4C2
:101120004A815B819E0141155105F1F0EA01F5CF3D
:10113000D383C28340815181840F951FC817D9077B
:1011400059F488819981840F951F02969183808339
:101150008A819B81938382832115310529F4F09341
:10116000EB01E093EA013DC0E901FB83EA83499189
:101170005991C40FD51FEC17FD0761F4808191814F
:10118000840F951F0296E901998388838281938158
:101190009B838A83E0E0F0E012968D919C911397F7
:1011A000009719F0FD01DC01F7CF8D919C9111970B
:1011B0009D012E5F3F4F820F931F2091E8013091D8
:1011C000E9012817390769F4309729F41092EB01E7
:1011D0001092EA0102C013821282B093E901A09337
:1011E000E801DF91CF910895AEE0B0E0EAEFF8E0DA
:1011F0000C94B50B0D891E8986E08C831A830983B4
:101200008FEF9FE79E838D83AE01475E5F4F6F89AF
:10121000788DCE0101960E941609EF81F885E00FC6
:10122000F11F10822E96E4E00C94D10BABE0B0E0FD
:10123000ECE1F9E00C94A70B6C017B018A01FC0145
:1012400017821682838181FFCCC1CE0101963C01B9
:10125000F6019381F70193FD859193FF81917F01C1
:10126000882309F4BAC1853239F493FD859193FF3F
:1012700081917F01853229F4B60190E00E940D0B27
:10128000E7CF912C212C312CFFE1F315D8F08B32D4
:1012900079F038F4803279F08332A1F4232D206183
:1012A0001DC08D3261F0803369F4232D216016C09A
:1012B000832D8260382EE32DE4603E2E2AC0F32D6C
:1012C000F8601DC037FC2DC020ED280F2A3040F0FB
:1012D0008E32B9F436FC81C1232D2064322E19C020
:1012E00036FE06C08AE0989E200D1124922E11C071
:1012F000EAE02E9E200D1124222EF32DF0623F2EC7
:1013000008C08C3621F4832D8068382E02C08836C0
:1013100041F4F70193FD859193FF81917F01811144
:10132000B3CF982F9F7D9554933028F40C5F1F4FB7
:101330009FE399830DC0833631F0833771F0833595
:1013400009F059C021C0F801808189830E5F1F4FC9
:1013500088248394912C530113C02801F2E04F0E8E
:10136000511CF801A080B18036FE03C0692D70E0E9
:1013700002C06FEF7FEFC5010E94020B4C0182019A
:10138000F32DFF773F2E16C0280122E0420E511C9C
:10139000F801A080B18036FE03C0692D70E002C064
:1013A0006FEF7FEFC5010E94F70A4C01F32DF06843
:1013B0003F2E820133FC1BC0822D90E088169906D7
:1013C000B0F4B60180E290E00E940D0B2A94F4CFB5
:1013D000F50137FC859137FE81915F01B60190E000
:1013E0000E940D0B21102A9421E0821A9108811489
:1013F000910471F7E8C0843611F0893641F5F8019F
:1014000037FE07C060817181828193810C5F1F4F1D
:1014100008C060817181072E000C880B990B0E5F4C
:101420001F4FF32DFF763F2E97FF09C090958095B3
:10143000709561957F4F8F4F9F4FF0683F2E2AE048
:1014400030E0A3010E94490B882E861845C08537DD
:1014500031F4232D2F7EB22E2AE030E025C0932DCB
:10146000997FB92E8F36C1F018F4883579F0B5C060
:10147000803719F0883721F0B0C0E92FE061BE2E27
:10148000B4FE0DC0FB2DF460BF2E09C034FE0AC0AF
:10149000292F2660B22E06C028E030E005C020E1EA
:1014A00030E002C020E132E0F801B7FE07C0608101
:1014B0007181828193810C5F1F4F06C060817181B1
:1014C00080E090E00E5F1F4FA3010E94490B882E21
:1014D0008618FB2DFF773F2E36FE0DC0232D2E7F65
:1014E000A22E891458F434FE0BC032FC09C0832D9F
:1014F0008E7EA82E05C0B82CA32C03C0B82C01C02A
:10150000B92CA4FE0FC0FE01E80DF11D80818033CF
:1015100021F49A2D997EA92E09C0A2FE06C0B3948B
:10152000B39404C08A2D867809F0B394A3FC11C04B
:10153000A0FE06C0B21488F4280C922C9B180EC092
:10154000B21460F4B60180E290E00E940D0BB394F7
:10155000F7CFB21418F42B1802C0982C212CA4FE3B
:1015600010C0B60180E390E00E940D0BA2FE17C0F0
:10157000A1FC03C088E790E002C088E590E0B601D6
:101580000CC08A2D867859F0A1FE02C08BE201C002
:1015900080E2A7FC8DE2B60190E00E940D0B891459
:1015A00038F4B60180E390E00E940D0B9A94F7CFD7
:1015B0008A94F301E80DF11D8081B60190E00E944C
:1015C0000D0B8110F5CF222009F442CEB60180E246
:1015D00090E00E940D0B2A94F6CFF6018681978148
:1015E00002C08FEF9FEF2B96E2E10C94C30BFC013E
:1015F0000590615070400110D8F7809590958E0F3E
:101600009F1F0895FC016150704001900110D8F7B0
:10161000809590958E0F9F1F08950F931F93CF93E2
:10162000DF93FB01238121FD03C08FEF9FEF2CC0CF
:1016300022FF16C046815781248135814217530706
:1016400044F4A081B1819D012F5F3F4F31832083FE
:101650008C93268137812F5F3F4F3783268314C0B9
:101660008B01EC01FB010084F185E02D0995892BAC
:10167000E1F6D80116968D919C91179701961796D1
:101680009C938E931697CE01DF91CF911F910F916E
:101690000895FA01AA27283051F1203181F1E89408
:1016A0006F936E7F6E5F7F4F8F4F9F4FAF4FB1E055
:1016B0003ED0B4E03CD0670F781F891F9A1FA11D50
:1016C000680F791F8A1F911DA11D6A0F711D811D51
:1016D000911DA11D20D009F468943F912AE0269F16
:1016E00011243019305D3193DEF6CF010895462F75
:1016F0004770405D4193B3E00FD0C9F7F6CF462F56
:101700004F70405D4A3318F0495D31FD40524193BE
:1017100002D0A9F7EACFB4E0A6959795879577957B
:101720006795BA95C9F700976105710508959B0102
:10173000AC010A2E06945795479537952795BA958B
:10174000C9F7620F731F841F951FA01D08952F9264
:101750003F924F925F926F927F928F929F92AF9241
:10176000BF92CF92DF92EF92FF920F931F93CF938E
:10177000DF93CDB7DEB7CA1BDB0B0FB6F894DEBF25
:101780000FBECDBF09942A88398848885F846E844B
:101790007D848C849B84AA84B984C884DF80EE8095
:1017A000FD800C811B81AA81B981CE0FD11D0FB69E
:1017B000F894DEBF0FBECDBFED010895F894FFCFC2
:1017C000FCFF4E0E0000EC012000496E69740046DB
:1017D0006F7277617264004C4546545F534F4654B4
:1017E0000052494748545F534F4654004C65667455
:1017F0005F484152440052696768745F48415244EF
:1018000000434845434B5F5354415254504F53009B
:10181000434F554E54444F574E004C454156455F3B
:10182000535441525400434845434B5F4C41500090
:10183000474F414C5F524541434845440045786914
:1018400074002573204C3A2564207C204D3A256491
:10185000207C20523A25640A202564207C202564BF
:101860000A0A000A5941592C2046494E4953484515
:0418700044210A0005
:00000001FF
