:100000000C9434000C9451000C9451000C94510049
:100010000C9451000C9451000C9451000C949601D6
:100020000C9451000C9451000C9451000C9451000C
:100030000C9451000C9451000C9451000C945100FC
:100040000C9451000C9451000C9451000C945100EC
:100050000C9451000C9451000C9451000C945100DC
:100060000C9451000C94510011241FBECFEFD8E026
:10007000DEBFCDBF11E0A0E0B1E0E0EEF0E102C0F4
:1000800005900D92AC3EB107D9F722E0ACEEB1E09D
:1000900001C01D92A232B207E1F70E94ED030C9459
:1000A0006E080C940000CF93DF93EB010E94830253
:1000B000CE01DF91CF910C949C020F931F93CF93AD
:1000C000DF93EC018B010E94C9010E94930267E655
:1000D00070E080E090E00E94280342E050E0B80128
:1000E000CE01DF91CF911F910F910C943E030F939E
:1000F0001F93CF93DF938C01EB0164E180E00E94BA
:10010000FA019B838A8364E182E00E94FA019F8363
:100110008E832A813B812115324034F08115924033
:1001200084F443E050E005C08115924054F044E06F
:1001300050E0BE01C801DF91CF911F910F910C9447
:100140003E03DF91CF911F910F9108950F931F935D
:10015000CF93DF938C01EB0164E180E00E94FA0110
:100160009B838A8364E182E00E94FA019F838E83ED
:100170002A813B81211532401CF08115924054F0B8
:1001800042E050E0BE01C801DF91CF911F910F9175
:100190000C943E03DF91CF911F910F9108950F931F
:1001A0001F93CF93DF938C01EB0164E180E00E9409
:1001B000FA019B838A8364E182E00E94FA019F83B3
:1001C0008E832A813B81211532401CF48115924097
:1001D00054F442E050E0BE01C801DF91CF911F917D
:1001E0000F910C943E03DF91CF911F910F910895D1
:1001F000CF93DF93EB0186E091E00E941C030E9405
:100200008B02CE01DF91CF910C94A702CF93DF93A5
:10021000EB010E948F02CE01DF91CF910C94B302CB
:10022000CF93DF93EC01888199818230910591F021
:1002300028F40197E9F40E9483020EC083309105EF
:1002400081F00497A9F40E948302CE01DF91CF913F
:100250000C94B3020E948702CE01DF91CF910C94DF
:100260009C020E948302CE01DF91CF910C94A702E1
:10027000DF91CF9108950895CF93DF93EC018881AA
:1002800099818230910599F038F4009769F00197CF
:10029000C1F48FE191E00DC08330910579F00497AE
:1002A00081F480E491E005C088E191E002C089E238
:1002B00091E0909315028093140207C084E391E0CB
:1002C000F8CF8DE491E00E941C0389851F928F93E3
:1002D00088851F928F938F818F938E818F938D81CD
:1002E0008F938C818F938B818F938A818F93809151
:1002F00015028F93809114028F9388E691E09F936B
:100300008F938CEE91E09F938F930E9484058DB71D
:100310009EB740960FB6F8949EBF0FBE8DBF8CEE71
:1003200091E0DF91CF910C941C0308951F920F92DE
:100330000FB60F9211248F939F9380911802909182
:100340001902019690931902809318028091160267
:1003500090911702019690931702809316029F9135
:100360008F910F900FBE0F901F901895F89481E019
:100370008093B100E0E7F0E080818260808382E0DA
:100380008093B0001092B2008FEF8093B300789406
:10039000089587B1887F87B980E480937C0087E0E7
:1003A00080937A0080917A00806880937A008091AF
:1003B0007A00806480937A0080917A0086FDFCCF79
:1003C0008091780090917900089590917C00907EC2
:1003D0008F71892B80937C0080917A008064809358
:1003E0007A0080917A0086FDFCCF80917800909110
:1003F00079000895CF92DF92EF92FF921F93CF93EF
:10040000DF93182FD62FC0E0C12CD12C7601CD1749
:1004100049F0812F0E94E501C80ED91EE11CF11C94
:10042000CF5FF5CF2C2F30E040E050E0C701B601A0
:100430000E944104C901DF91CF911F91FF90EF907D
:10044000DF90CF9008958F3F29F484B58F7C84BDD1
:100450005D9A089594B5906294BD94B59F7E94BDC5
:1004600088BD0895F89415BC85B5836085BD14BC1E
:1004700084B5836084BD789408958630A1F484B5F2
:10048000611104C08F7384BD5E9808956F3F21F49D
:100490008F7384BD5E9A0895806884BD84B58F7B18
:1004A00084BD67BD0895853051F4611105C084B5E0
:1004B0008F7C84BD5D980895862F0C942302089547
:1004C000FC01408121E030E001C0220F6A95EAF78B
:1004D000242B20830895FC01908121E030E001C0AD
:1004E000220F6A95EAF720952923208308955F9AC1
:1004F00028980895289A5F9808952B9A2998089526
:10050000299A2B9808950E9477020C947D020E94EC
:100510007A020C9480020E947A020C947D020E945E
:1005200077020C9480021AB814B880E68AB9579AF8
:100530008BE884B90C9432022BE9FC0120872187D7
:100540008BE90E9423026BE986E00C943D0226E4CD
:10055000FC01208728EC218786E40E94230268ECB6
:1005600086E00C943D0228ECFC01208726E42187DC
:1005700088EC0E94230266E486E00C943D02CF934F
:1005800020911C0230911D022130310521F0FC0127
:10059000818590E005C080911A0290911B020A9615
:1005A00090931B0280931A0280911A0290911B0271
:1005B000861797078CF421E030E030931D022093DA
:1005C0001C02C1E0C80F6C2F85E00E943D026C2F19
:1005D00086E0CF910C943D0287EB91E0CF910C9493
:1005E0001C030F931F93CF93DF938B01CFEF8C2FBF
:1005F00090E00817190764F4D1E0DC0F6D2F85E057
:100600000E943D026D2F86E00E943D02C150EFCF57
:10061000DF91CF911F910F91089508958091C000AF
:1006200087FFFCCF8091C60008959091C00095FF90
:10063000FCCF8093C6000895CF93DF93EC0189919E
:10064000882319F00E941503FACFDF91CF91089506
:100650000F931F93072F182F292F33270093C500BF
:100660006093C40088E18093C1008EE08093C20053
:1006700087E891E01F910F910C941C03EF92FF9279
:100680000F931F93CF93DF937C018B01EA0189ECD9
:1006900091E00E941C032196CC0FDD1FCE0DDF1DC3
:1006A000E881F981D701ED93FC930480F581E02D79
:1006B000309749F0B801C701DF91CF911F910F9199
:1006C000FF90EF900994DF91CF911F910F91FF90D0
:1006D000EF900895AF92BF92CF92DF92EF92FF9288
:1006E0000F931F93CF93DF937C01EB015A016901B4
:1006F00088E090E00E946304FC01D183C083B38250
:10070000A282D582C48217830683DE011196AA0FC6
:10071000BB1FAE0DBF1DED93FC93CD2B71F4D70124
:10072000ED93FC93C6E0D0E082EEA82E81E0B82ED7
:10073000C12CD12C00E010E0DBCFDF91CF911F91D5
:100740000F91FF90EF90DF90CF90BF90AF90089502
:100750000F931F93CF93DF938C010E5F1F4FEC011C
:100760006096F801808191810E94FB04F80111924A
:1007700011928F01EC17FD07A1F7DF91CF911F9127
:100780000F9108950F931F93CF93DF93EC018B018B
:10079000E881F9810480F581E02D0995E881F981EE
:1007A00080819181069791F00680F781E02D309746
:1007B00019F0B801CE0109952FEF84E39CE0215098
:1007C00080409040E1F700C00000E8CFCE01DF910B
:1007D000CF911F910F910C94A8030F931F93CF9368
:1007E000DF93CDB7DEB76A970FB6F894DEBF0FBEC2
:1007F000CDBF00E010E02DE530E049E851E060E0D9
:1008000070E0CE0101960E946A0307E710E023E53D
:1008100030E04EE851E062E070E0CE0101960E94C7
:100820006A0306EA10E028EF30E047E951E063E0B0
:1008300070E0CE0101960E946A030FEC10E026E002
:1008400031E04CE951E064E070E0CE0101960E9495
:100850006A03BE016F5E7F4FCE0101960E94C20304
:1008600082EA91E00E941C0380E090E06A960FB655
:10087000F894DEBF0FBECDBFDF91CF911F910F91D6
:100880000895A1E21A2EAA1BBB1BFD010DC0AA1FD1
:10089000BB1FEE1FFF1FA217B307E407F50720F0E9
:1008A000A21BB30BE40BF50B661F771F881F991F64
:1008B0001A9469F760957095809590959B01AC01AD
:1008C000BD01CF0108950F931F93CF93DF93823023
:1008D000910510F482E090E0E0912002F091210275
:1008E00020E030E0A0E0B0E0309719F14081518184
:1008F0000281138148175907C8F08417950769F4D6
:10090000109731F012960C93129713961C9327C0F0
:10091000009320021093210222C02115310519F005
:100920004217530718F49A01BD01EF01DF01F801E6
:10093000DBCF21153105F9F0281B390B24303105A7
:1009400080F48A819B816115710521F0FB019383FD
:10095000828304C09093210280932002FE0132968C
:1009600044C0FE01E20FF31F81939193225031099D
:10097000398328833AC020911E0230911F02232B15
:1009800041F4209102013091030130931F02209322
:100990001E0220910001309101012115310541F421
:1009A0002DB73EB74091040150910501241B350B32
:1009B000E0911E02F0911F02E217F307A0F42E1B34
:1009C0003F0B2817390778F0AC014E5F5F4F2417B3
:1009D000350748F04E0F5F1F50931F0240931E02D1
:1009E0008193919302C0E0E0F0E0CF01DF91CF91DD
:1009F0001F910F910895CF93DF93009709F481C061
:100A0000FC01329713821282A0912002B091210240
:100A1000109781F420813181820F931F20911E0253
:100A200030911F022817390751F5F0931F02E09308
:100A30001E0267C0ED0120E030E0CE17DF0740F472
:100A40004A815B819E0141155105F1F0EA01F5CF24
:100A5000D383C28340815181840F951FC817D90762
:100A600059F488819981840F951F02969183808320
:100A70008A819B81938382832115310529F4F09328
:100A80002102E09320023DC0E901FB83EA83499102
:100A90005991C40FD51FEC17FD0761F48081918136
:100AA000840F951F0296E90199838883828193813F
:100AB0009B838A83E0E0F0E012968D919C911397DE
:100AC000009719F0FD01DC01F7CF8D919C911197F2
:100AD0009D012E5F3F4F820F931F20911E02309188
:100AE0001F022817390769F4309729F41092210260
:100AF0001092200202C013821282B0931F02A093B0
:100B00001E02DF91CF910895AEE0B0E0EAE8F5E093
:100B10000C9445080D891E8986E08C831A8309830D
:100B20008FEF9FE79E838D83AE01475E5F4F6F8996
:100B3000788DCE0101960E94A605EF81F885E00F21
:100B4000F11F10822E96E4E00C946108ABE0B0E057
:100B5000ECEAF5E00C9437086C017B018A01FC019A
:100B600017821682838181FFCCC1CE0101963C01A0
:100B7000F6019381F70193FD859193FF81917F01A8
:100B8000882309F4BAC1853239F493FD859193FF26
:100B900081917F01853229F4B60190E00E949D0782
:100BA000E7CF912C212C312CFFE1F315D8F08B32BB
:100BB00079F038F4803279F08332A1F4232D20616A
:100BC0001DC08D3261F0803369F4232D216016C081
:100BD000832D8260382EE32DE4603E2E2AC0F32D53
:100BE000F8601DC037FC2DC020ED280F2A3040F0E2
:100BF0008E32B9F436FC81C1232D2064322E19C007
:100C000036FE06C08AE0989E200D1124922E11C057
:100C1000EAE02E9E200D1124222EF32DF0623F2EAD
:100C200008C08C3621F4832D8068382E02C08836A7
:100C300041F4F70193FD859193FF81917F0181112B
:100C4000B3CF982F9F7D9554933028F40C5F1F4F9E
:100C50009FE399830DC0833631F0833771F083357C
:100C600009F059C021C0F801808189830E5F1F4FB0
:100C700088248394912C530113C02801F2E04F0E75
:100C8000511CF801A080B18036FE03C0692D70E0D0
:100C900002C06FEF7FEFC5010E9492074C018201F5
:100CA000F32DFF773F2E16C0280122E0420E511C83
:100CB000F801A080B18036FE03C0692D70E002C04B
:100CC0006FEF7FEFC5010E9487074C01F32DF0689D
:100CD0003F2E820133FC1BC0822D90E088169906BE
:100CE000B0F4B60180E290E00E949D072A94F4CF10
:100CF000F50137FC859137FE81915F01B60190E0E7
:100D00000E949D0721102A9421E0821A91088114E3
:100D1000910471F7E8C0843611F0893641F5F80185
:100D200037FE07C060817181828193810C5F1F4F04
:100D300008C060817181072E000C880B990B0E5F33
:100D40001F4FF32DFF763F2E97FF09C0909580959A
:100D5000709561957F4F8F4F9F4FF0683F2E2AE02F
:100D600030E0A3010E94D907882E861845C0853738
:100D700031F4232D2F7EB22E2AE030E025C0932DB2
:100D8000997FB92E8F36C1F018F4883579F0B5C047
:100D9000803719F0883721F0B0C0E92FE061BE2E0E
:100DA000B4FE0DC0FB2DF460BF2E09C034FE0AC096
:100DB000292F2660B22E06C028E030E005C020E1D1
:100DC00030E002C020E132E0F801B7FE07C06081E8
:100DD0007181828193810C5F1F4F06C06081718198
:100DE00080E090E00E5F1F4FA3010E94D907882E7C
:100DF0008618FB2DFF773F2E36FE0DC0232D2E7F4C
:100E0000A22E891458F434FE0BC032FC09C0832D85
:100E10008E7EA82E05C0B82CA32C03C0B82C01C010
:100E2000B92CA4FE0FC0FE01E80DF11D80818033B6
:100E300021F49A2D997EA92E09C0A2FE06C0B39472
:100E4000B39404C08A2D867809F0B394A3FC11C032
:100E5000A0FE06C0B21488F4280C922C9B180EC079
:100E6000B21460F4B60180E290E00E949D07B39452
:100E7000F7CFB21418F42B1802C0982C212CA4FE22
:100E800010C0B60180E390E00E949D07A2FE17C04B
:100E9000A1FC03C088E790E002C088E590E0B601BD
:100EA0000CC08A2D867859F0A1FE02C08BE201C0E9
:100EB00080E2A7FC8DE2B60190E00E949D078914B4
:100EC00038F4B60180E390E00E949D079A94F7CF32
:100ED0008A94F301E80DF11D8081B60190E00E9433
:100EE0009D078110F5CF222009F442CEB60180E2A1
:100EF00090E00E949D072A94F6CFF60186819781A3
:100F000002C08FEF9FEF2B96E2E10C945308FC0197
:100F10000590615070400110D8F7809590958E0F24
:100F20009F1F0895FC016150704001900110D8F797
:100F3000809590958E0F9F1F08950F931F93CF93C9
:100F4000DF93FB01238121FD03C08FEF9FEF2CC0B6
:100F500022FF16C0468157812481358142175307ED
:100F600044F4A081B1819D012F5F3F4F31832083E5
:100F70008C93268137812F5F3F4F3783268314C0A0
:100F80008B01EC01FB010084F185E02D0995892B93
:100F9000E1F6D80116968D919C91179701961796B8
:100FA0009C938E931697CE01DF91CF911F910F9155
:100FB0000895FA01AA27283051F1203181F1E894EF
:100FC0006F936E7F6E5F7F4F8F4F9F4FAF4FB1E03C
:100FD0003ED0B4E03CD0670F781F891F9A1FA11D37
:100FE000680F791F8A1F911DA11D6A0F711D811D38
:100FF000911DA11D20D009F468943F912AE0269FFD
:1010000011243019305D3193DEF6CF010895462F5B
:101010004770405D4193B3E00FD0C9F7F6CF462F3C
:101020004F70405D4A3318F0495D31FD40524193A5
:1010300002D0A9F7EACFB4E0A69597958795779562
:101040006795BA95C9F700976105710508959B01E9
:10105000AC010A2E06945795479537952795BA9572
:10106000C9F7620F731F841F951FA01D08952F924B
:101070003F924F925F926F927F928F929F92AF9228
:10108000BF92CF92DF92EF92FF920F931F93CF9375
:10109000DF93CDB7DEB7CA1BDB0B0FB6F894DEBF0C
:1010A0000FBECDBF09942A88398848885F846E8432
:1010B0007D848C849B84AA84B984C884DF80EE807C
:1010C000FD800C811B81AA81B981CE0FD11D0FB685
:1010D000F894DEBF0FBECDBFED010895F894FFCFA9
:1010E000000022022000504F6C6172697479206CFC
:1010F00065667420726F740049444C453A2000467E
:101100004F52574152443A20004241434B574152BB
:10111000443A20004C4546545F5455524E3A200004
:1011200052494748545F5455524E3A20005468651E
:101130007265206973206E6F207375636820447236
:101140006976654D6F6465002573204C3A256420EF
:101150007C204D3A2564207C20523A25640A2025C3
:1011600064207C2025640A0A00496E697400537467
:10117000726169676874004C6566740052696768DB
:10118000740050726F6772616D6D207465726D6965
:101190006E617465640A000A4943482042494E2042
:1011A000464552544947210A0049532074686973DF
:1011B0002063616C6C656420736F6D65686F773F49
:0C11C0000A005465726D696E6174650070
:00000001FF
