:100000000C943B000C9458000C9458000C9458002D
:100010000C9458000C9458000C9458000C94580000
:100020000C9458000C9458000C9458000C945800F0
:100030000C9458000C9458000C9458000C945800E0
:100040000C9458000C9458000C9458000C945800D0
:100050000C9458000C9458000C9458000C945800C0
:100060000C9458000C9458006F0267026B02540203
:100070005E025902620211241FBECFEFD8E0DEBF3C
:10008000CDBF11E0A0E0B1E0EEE1F2E102C00590E9
:100090000D92A039B107D9F721E0A0E9B1E001C084
:1000A0001D92AE3BB207E1F70E943F040C940D098C
:1000B0000C940000CF93DF93EC0164E182E00E9496
:1000C000F4039A83898364E180E00E94F4039E83B1
:1000D0008D8364E181E00E94F4039C838B83DF9134
:1000E000CF91089521E0FC01818192818115924098
:1000F0000CF420E0822F089521E0FC01838194819B
:10010000811592400CF420E0822F089521E0FC013B
:1001100085819681811592400CF420E0822F08950C
:100120000E94C1030E9479020E947D0367E670E08D
:1001300080E090E00C949D0242E050E00C94D801E5
:10014000CF93DF93EC0183E391E00E94910262E0A0
:1001500070E0CE010E94860381E090E0DF91CF91B4
:100160000C9446020F931F93CF93DF938C01EB0106
:10017000CB010E945A00BE01C8010E94B3028981CE
:100180009A81811592401CF044E050E007C08D81B7
:100190009E818115924054F046E050E0BE01C801B6
:1001A000DF91CF911F910F910C94D801DF91CF91E6
:1001B0001F910F91089563E070E00E94860382E032
:1001C00090E00C94460265E070E00E94860380E0B7
:1001D00090E00C9446020F931F93CF93DF938C0112
:1001E000EB01CB010E945A00BE01C8010E94B3027C
:1001F0008B819C818115924054F042E050E0BE0119
:10020000C801DF91CF911F910F910C94D801DF911C
:10021000CF911F910F9108950C94EB0064E070E072
:100220000E9486038EEF9FEF0C9446020F931F935C
:10023000CF93DF938C01EB01CB010E945A00BE01EA
:10024000C8010E94B3028B819C81811592405CF0B1
:100250008D819E818115924034F442E050E0BE01D0
:10026000C8010E94D8018B819C8181159240A4F421
:100270008D819E81811592407CF489819A818115BE
:10028000924054F443E050E0BE01C801DF91CF91A9
:100290001F910F910C94D801DF91CF911F910F9175
:1002A000089566E070E00E9486038DEF9FEF0C9446
:1002B00046020F931F93CF93DF938C01EB01CB0189
:1002C0000E945A00BE01C8010E94B3028B819C812A
:1002D000811592405CF08D819E818115924034F4AD
:1002E00042E050E0BE01C8010E94D8018B819C8190
:1002F00081159240A4F48D819E81811592407CF4F9
:1003000089819A818115924054F445E050E0BE0104
:10031000C801DF91CF911F910F910C94D801DF910B
:10032000CF911F910F910895AF92BF92CF92DF921C
:10033000EF92FF920F931F93CF93DF937C01EB011A
:100340005A01690188E090E00E940205FC01892BB6
:1003500021F481E090E00E940D09D183C083B38233
:10036000A282D582C48217830683DE011196AA0F6A
:10037000BB1FAE0DBF1DED93FC93CD2B71F4D701C8
:10038000ED93FC93C8E0D0E08EE4A82E81E0B82E77
:10039000C12CD12C00E010E0D5CFDF91CF911F917F
:1003A0000F91FF90EF90DF90CF90BF90AF900895A6
:1003B000DC01CB01FA013196EE0FFF1FEA0FFB1FA4
:1003C0000190F081E02DED93FC930480F581E02D08
:1003D00009940F931F93CF93DF938C010E5F1F4FF0
:1003E000EC016496F801808191810E949A05F801E0
:1003F000119211928F01EC17FD07A1F7DF91CF91B8
:100400001F910F9108950F931F93CF93DF93EC01EA
:100410008B01E881F9810480F581E02DCB010995FC
:10042000E881F98180819181089739F00680F78110
:10043000E02DB801CE010995F3CFCE01DF91CF9128
:100440001F910F910C94E90162E085E290E00C9419
:100450003404CF93DF93D82FC0E0CD1764F464E069
:100460008BE290E00E94340464E08BE290E00E9412
:100470003404CF5FF2CFDF91CF91089562E085E23F
:1004800090E00E94280483E00C942902CF93DF932C
:10049000EC010E943E02FE013496E730F10530F592
:1004A000EC5CFF4F0C94E8040E94240281E00E945F
:1004B00029020E94240281E00E9429020E94240253
:1004C00081E010C00E94240281E00E9429020E9463
:1004D000240282E007C00E94240282E0EDCF0E9445
:1004E000240283E0DF91CF910C942902DF91CF9118
:1004F000089562E084E290E00E941D0464E08AE2D4
:1005000090E00C941D048091C00087FFFCCF809187
:10051000C60008959091C00095FFFCCF8093C6005F
:100520000895CF93DF93EC018991882319F00E94FD
:100530008A02FACFDF91CF9108950F931F93072F6F
:10054000182F292F33270093C5006093C40088E13A
:100550008093C1008EE08093C20082E791E01F91FA
:100560000F910C9491029C01FB018081882309F476
:1005700049C08091B8019091B90164E670E00E9491
:10058000B204892B79F5D90180851F928F938781D9
:100590001F928F9386818F9385818F9384818F9310
:1005A00083818F9382818F9381818F93ED91FC91D1
:1005B00083818F9382818F9383E591E09F938F93C3
:1005C00080E991E09F938F930E94230680E991E058
:1005D0000E9491028DB79EB740960FB6F8949EBFC9
:1005E0000FBE8DBF8091B8019091B9018E3F2FE76A
:1005F000920714F4019602C080E090E09093B90154
:100600008093B8010895F89415BC85B5836085BDC5
:1006100014BC84B5836084BD789408958630A1F4B9
:1006200084B5611104C08F7384BD5E9808956F3FD7
:1006300021F48F7384BD5E9A0895806884BD84B56B
:100640008F7B84BD67BD0895853099F484B56111B1
:1006500004C08F7C84BD5D9808956F3F21F48F7C2A
:1006600084BD5D9A0895806284BD84B58F7E84BD0B
:1006700068BD089567E08BE290E00E941D0460E091
:1006800085E290E00C94280460E085E290E00E940E
:100690001D0467E08BE290E00C94280463E085E29F
:1006A00090E00E941D0461E085E290E00C94280433
:1006B00061E085E290E00E941D0463E085E290E045
:1006C0000C94280484309105A1F030F48230910517
:1006D00081F0039739F008958530910531F0069740
:1006E00041F008950E94440306C00E943A030C940E
:1006F00058030E943A030C944E038AB180668AB96B
:10070000579A84B18B6884B90C9403030F931F9399
:10071000CF93DF93EC018B0184E791E00E9491027B
:1007200004301105C1F050F40230110589F0033096
:100730001105C1F480EA8F838EEB13C005301105DB
:1007400029F00630110571F48EE609C08EEB07C062
:100750008EE68F8306C080EA8F838EE602C08F8389
:1007600080EA8887C8010E9462036F8185E00E9449
:100770000E03688586E0DF91CF911F910F910C9455
:100780000E031AB814B887B1887F87B980E48093C4
:100790007C0087E080937A0080917A008068809363
:1007A0007A0080917A00806480937A0080917A0048
:1007B00086FDFCCF8091780090917900089590910A
:1007C0007C00907E8F71892B80937C0080917A00D1
:1007D000806480937A0080917A0086FDFCCF8091BE
:1007E0007800909179000895CF92DF92EF92FF9276
:1007F0001F93CF93DF93182FD62FC0E0C12CD12C9D
:100800007601CD1749F0812F0E94DF03C80ED91E53
:10081000E11CF11CCF5FF5CF2C2F30E040E050E021
:10082000C701B6010E94C604C901DF91CF911F9193
:10083000FF90EF90DF90CF900895FC01408121E080
:1008400030E001C0220F6A95EAF7242B2083089537
:10085000FC01908121E030E001C0220F6A95EAF7A7
:100860002095292320830895FC01408121E030E078
:1008700001C0220F6A95EAF7242720830895EF929A
:10088000FF920F931F93CF93DF93CDB7DEB76D9792
:100890000FB6F894DEBF0FBECDBF7E0185E1E80E36
:1008A000F11C89E0F70111928A95E9F70CE910E053
:1008B00020E930E046E051E060E070E0CE010196D2
:1008C0000E94940102EB10E020EA30E04BE051E09E
:1008D00062E070E0CE0101960E9494010CE011E00C
:1008E0002BED30E043E151E063E070E0CE01019692
:1008F0000E9494010BEE10E023EE30E048E151E05D
:1009000065E070E0CE0101960E94940109E511E0D6
:1009100021E531E04EE151E066E070E0CE01019664
:100920000E94940106E111E02EE031E049E251E03D
:1009300064E070E0CE0101960E949401B701CE01FF
:1009400001960E94030280E090E06D960FB6F89445
:10095000DEBF0FBECDBFDF91CF911F910F91FF90F2
:10096000EF90089597FB072E16F4009407D077FDBB
:1009700009D00E94EE0407FC05D03EF490958195C5
:100980009F4F0895709561957F4F0895A1E21A2EAB
:10099000AA1BBB1BFD010DC0AA1FBB1FEE1FFF1F23
:1009A000A217B307E407F50720F0A21BB30BE40B73
:1009B000F50B661F771F881F991F1A9469F76095BA
:1009C0007095809590959B01AC01BD01CF01089574
:1009D000EE0FFF1F0590F491E02D0994AA1BBB1B9D
:1009E00051E107C0AA1FBB1FA617B70710F0A61B2F
:1009F000B70B881F991F5A95A9F780959095BC0150
:100A0000CD0108950F931F93CF93DF93823091050B
:100A100010F482E090E0E091BC01F091BD0120E093
:100A200030E0A0E0B0E0309719F1408151810281BF
:100A3000138148175907C8F08417950769F4109770
:100A400031F012960C93129713961C9327C00093C3
:100A5000BC011093BD0122C02115310519F04217C8
:100A6000530718F49A01BD01EF01DF01F801DBCF54
:100A700021153105F9F0281B390B2430310580F49C
:100A80008A819B816115710521F0FB01938382832B
:100A900004C09093BD018093BC01FE01329644C016
:100AA000FE01E20FF31F81939193225031093983A4
:100AB00028833AC02091BA013091BB01232B41F425
:100AC00020910201309103013093BB012093BA01C0
:100AD00020910001309101012115310541F42DB71C
:100AE0003EB74091040150910501241B350BE09164
:100AF000BA01F091BB01E217F307A0F42E1B3F0BE4
:100B00002817390778F0AC014E5F5F4F241735077F
:100B100048F04E0F5F1F5093BB014093BA01819381
:100B2000919302C0E0E0F0E0CF01DF91CF911F91FF
:100B30000F910895CF93DF93009709F481C0FC01D2
:100B4000329713821282A091BC01B091BD0110971F
:100B500081F420813181820F931F2091BA0130915D
:100B6000BB012817390751F5F093BB01E093BA0197
:100B700067C0ED0120E030E0CE17DF0740F44A8186
:100B80005B819E0141155105F1F0EA01F5CFD38358
:100B9000C28340815181840F951FC817D90759F42A
:100BA00088819981840F951F0296918380838A8121
:100BB0009B81938382832115310529F4F093BD0134
:100BC000E093BC013DC0E901FB83EA83499159915F
:100BD000C40FD51FEC17FD0761F480819181840F4C
:100BE000951F0296E90199838883828193819B8373
:100BF0008A83E0E0F0E012968D919C911397009724
:100C000019F0FD01DC01F7CF8D919C9111979D01A9
:100C10002E5F3F4F820F931F2091BA013091BB018D
:100C20002817390769F4309729F41092BD01109202
:100C3000BC0102C013821282B093BB01A093BA011F
:100C4000DF91CF910895AEE0B0E0E9E2F6E00C94D8
:100C5000E4080D891E8986E08C831A8309838FEF4F
:100C60009FE79E838D83AE01475E5F4F6F89788DCE
:100C7000CE0101960E944506EF81F885E00FF11F35
:100C800010822E96E4E00C940009ABE0B0E0EBE4B7
:100C9000F6E00C94D6086C017B018A01FC011782F6
:100CA0001682838181FFCCC1CE0101963C01F60101
:100CB0009381F70193FD859193FF81917F018823B3
:100CC00009F4BAC1853239F493FD859193FF81917E
:100CD0007F01853229F4B60190E00E943C08E7CFFD
:100CE000912C212C312CFFE1F315D8F08B3279F0C7
:100CF00038F4803279F08332A1F4232D20611DC0B5
:100D00008D3261F0803369F4232D216016C0832D6C
:100D10008260382EE32DE4603E2E2AC0F32DF86069
:100D20001DC037FC2DC020ED280F2A3040F08E3238
:100D3000B9F436FC81C1232D2064322E19C036FE51
:100D400006C08AE0989E200D1124922E11C0EAE080
:100D50002E9E200D1124222EF32DF0623F2E08C06E
:100D60008C3621F4832D8068382E02C0883641F4F9
:100D7000F70193FD859193FF81917F018111B3CF9D
:100D8000982F9F7D9554933028F40C5F1F4F9FE35D
:100D900099830DC0833631F0833771F0833509F0C4
:100DA00059C021C0F801808189830E5F1F4F8824BC
:100DB0008394912C530113C02801F2E04F0E511C73
:100DC000F801A080B18036FE03C0692D70E002C03A
:100DD0006FEF7FEFC5010E9431084C018201F32DB6
:100DE000FF773F2E16C0280122E0420E511CF80169
:100DF000A080B18036FE03C0692D70E002C06FEFA5
:100E00007FEFC5010E9426084C01F32DF0683F2EAC
:100E1000820133FC1BC0822D90E088169906B0F445
:100E2000B60180E290E00E943C082A94F4CFF501DC
:100E300037FC859137FE81915F01B60190E00E94F9
:100E40003C0821102A9421E0821A9108811491040F
:100E500071F7E8C0843611F0893641F5F80137FEA4
:100E600007C060817181828193810C5F1F4F08C030
:100E700060817181072E000C880B990B0E5F1F4F4C
:100E8000F32DFF763F2E97FF09C0909580957095C2
:100E900061957F4F8F4F9F4FF0683F2E2AE030E0E3
:100EA000A3010E947808882E861845C0853731F442
:100EB000232D2F7EB22E2AE030E025C0932D997F7E
:100EC000B92E8F36C1F018F4883579F0B5C0803767
:100ED00019F0883721F0B0C0E92FE061BE2EB4FED2
:100EE0000DC0FB2DF460BF2E09C034FE0AC0292FAF
:100EF0002660B22E06C028E030E005C020E130E0D8
:100F000002C020E132E0F801B7FE07C060817181C4
:100F1000828193810C5F1F4F06C06081718180E0E8
:100F200090E00E5F1F4FA3010E947808882E86185C
:100F3000FB2DFF773F2E36FE0DC0232D2E7FA22ED8
:100F4000891458F434FE0BC032FC09C0832D8E7E08
:100F5000A82E05C0B82CA32C03C0B82C01C0B92CF6
:100F6000A4FE0FC0FE01E80DF11D8081803321F445
:100F70009A2D997EA92E09C0A2FE06C0B394B394FF
:100F800004C08A2D867809F0B394A3FC11C0A0FE9A
:100F900006C0B21488F4280C922C9B180EC0B21410
:100FA00060F4B60180E290E00E943C08B394F7CF71
:100FB000B21418F42B1802C0982C212CA4FE10C0D7
:100FC000B60180E390E00E943C08A2FE17C0A1FC9D
:100FD00003C088E790E002C088E590E0B6010CC04D
:100FE0008A2D867859F0A1FE02C08BE201C080E212
:100FF000A7FC8DE2B60190E00E943C08891438F409
:10100000B60180E390E00E943C089A94F7CF8A945E
:10101000F301E80DF11D8081B60190E00E943C08CB
:101020008110F5CF222009F442CEB60180E290E093
:101030000E943C082A94F6CFF6018681978102C06F
:101040008FEF9FEF2B96E2E10C94F208FC010590E4
:10105000615070400110D8F7809590958E0F9F1FBA
:101060000895FC016150704001900110D8F78095FF
:1010700090958E0F9F1F08950F931F93CF93DF932B
:10108000FB01238121FD03C08FEF9FEF2CC022FFC6
:1010900016C046815781248135814217530744F495
:1010A000A081B1819D012F5F3F4F318320838C93BD
:1010B000268137812F5F3F4F3783268314C08B01F2
:1010C000EC01FB010084F185E02D0995892BE1F607
:1010D000D80116968D919C911797019617969C931F
:1010E0008E931697CE01DF91CF911F910F910895A6
:1010F000FA01AA27283051F1203181F1E8946F9349
:101100006E7F6E5F7F4F8F4F9F4FAF4FB1E03ED0EE
:10111000B4E03CD0670F781F891F9A1FA11D680F8C
:10112000791F8A1F911DA11D6A0F711D811D911DBF
:10113000A11D20D009F468943F912AE0269F112434
:101140003019305D3193DEF6CF010895462F477098
:10115000405D4193B3E00FD0C9F7F6CF462F4F70F3
:10116000405D4A3318F0495D31FD4052419302D051
:10117000A9F7EACFB4E0A6959795879577956795F7
:10118000BA95C9F700976105710508959B01AC01F7
:101190000A2E06945795479537952795BA95C9F71E
:1011A000620F731F841F951FA01D08952F923F92F9
:1011B0004F925F926F927F928F929F92AF92BF9267
:1011C000CF92DF92EF92FF920F931F93CF93DF9313
:1011D000CDB7DEB7CA1BDB0B0FB6F894DEBF0FBE70
:1011E000CDBF09942A88398848885F846E847D84BD
:1011F0008C849B84AA84B984C884DF80EE80FD80BF
:101200000C811B81AA81B981CE0FD11D0FB6F89434
:0E121000DEBF0FBECDBFED010895F894FFCFF5
:10121E000000BE012000496E697400466F7277614E
:10122E007264004C65667400526967687400534FAF
:10123E00465420524947485400534F4654204C457B
:10124E004654000A656E7465725F666F72776172DE
:10125E0064207761732063616C6C65640A00457865
:10126E006974002573204C3A2564207C204D3A2564
:10127E0064207C20523A25640A202564207C202597
:10128E00640A0A000A7365745F646972656374693F
:10129E006F6E207761732063616C6C65640A000069
:00000001FF
