:100000000C943B000C9458000C9458000C9458002D
:100010000C9458000C9458000C9458000C949101C6
:100020000C9458000C9458000C9458000C945800F0
:100030000C9458000C9458000C9458000C945800E0
:100040000C9458000C9458000C9458000C945800D0
:100050000C9458000C9458000C9458000C945800C0
:100060000C9458000C94580095038D0391037A0367
:1000700084037F03880311241FBECFEFD8E0DEBFC7
:10008000CDBF11E0A0E0B1E0ECE8F4E102C00590E2
:100090000D92A239B107D9F721E0A2E9B1E001C080
:1000A0001D92A33CB207E1F70E9453050C94440A49
:1000B0000C940000CF93DF93EC0164E182E00E9496
:1000C00008059B838A8364E180E00E9408059F8382
:1000D0008E8364E181E00E9408059D838C83DF911B
:1000E000CF91089521E0FC01828193818115924096
:1000F0000CF420E0822F089521E0FC018481958199
:10010000811592400CF420E0822F089521E0FC013B
:1001100086819781811592400CF420E0822F08950A
:100120000E94D5040E949F030E949A0467E670E033
:1001300080E090E00C94C303FB012081222319F09E
:1001400041E050E002C044E050E00C94FB0264E067
:1001500070E00E94A30481E090E00C946C030F9384
:100160001F93CF93DF938C01EB01CB010E945A00C8
:10017000BE01C8010E94D9038A819B8181159240EA
:100180001CF045E050E007C08E819F8181159240B0
:1001900054F048E050E0BE01C801DF91CF911F91BB
:1001A0000F910C94FB02DF91CF911F910F91089555
:1001B00066E070E00E94A30482E090E00C946C037F
:1001C00067E070E00E94A30480E090E00C946C0370
:1001D0000F931F93CF93DF938C01EB01CB010E9410
:1001E0005A00BE01C8010E94D9038C819D818115EE
:1001F000924054F044E050E0BE01C801DF91CF913D
:100200001F910F910C94FB02DF91CF911F910F91E1
:1002100008950C94E80065E070E00E94A3048EEF5E
:100220009FEF0C946C030F931F93CF93DF938C017C
:10023000EB01CB010E945A00BE01C8010E94D90304
:100240008C819D81811592405CF08E819F8181150A
:10025000924034F444E050E0BE01C8010E94FB0229
:100260008C819D8181159240A4F48E819F8181159E
:1002700092407CF48A819B818115924054F446E03F
:1002800050E0BE01C801DF91CF911F910F910C94F6
:10029000FB02DF91CF911F910F91089568E070E00C
:1002A0000E94A3048DEF9FEF0C946C030F931F9398
:1002B000CF93DF938C01EB01CB010E945A00BE016A
:1002C000C8010E94D9038C819D81811592405CF008
:1002D0008E819F818115924034F444E050E0BE014C
:1002E000C8010E94FB028C819D8181159240A4F47B
:1002F0008E819F81811592407CF48A819B8181153A
:10030000924054F447E050E0BE01C801DF91CF9124
:100310001F910F910C94FB02DF91CF911F910F91D0
:1003200008951F920F920FB60F9211242F933F93AF
:100330004F935F936F937F938F939F93AF93BF93ED
:10034000EF93FF9380919301909194010196909384
:100350009401809393018A3628E1920729F48BEF68
:100360009FEF0E946C0310C0843D904369F48CEFB2
:100370009FEF0E946C031092940110929301809160
:1003800092018F5F80939201FF91EF91BF91AF91A6
:100390009F918F917F916F915F914F913F912F919D
:1003A0000F900FBE0F901F901895F89481E08093E6
:1003B000B100E0E7F0E080818260808382E080939A
:1003C000B0001092B2008FEF8093B300789408953C
:1003D000F894E0E7F0E080818D7F8083E0EBF0E04F
:1003E00080818D7F80831092B2008FEF8093B30065
:1003F0007894089508950F931F93CF93DF938C0102
:10040000EB01CB010E945A004C815D812A813B8126
:100410008E819F814115524004F1211532408CF0AC
:1004200081159240A4F08CEF9FEF0E946C0342E094
:1004300050E0BE01C801DF91CF911F910F910C9444
:10044000FB028115924034F08DEF9FEF1AC08EEFC2
:100450009FEF17C081E090E014C02115324034F4C2
:100460008115924064F080E090E00BC081159240CD
:100470001CF482E090E005C08FEF9FEF02C08BEF8D
:100480009FEFDF91CF911F910F910C946C038CEF34
:100490009FEF0E946C030E94D5011092940110926C
:1004A00093011092920108950F931F93CF93DF93BE
:1004B0008C01EB01CB010E945A00809192018A3499
:1004C00029F40E94E80143E050E013C08A819B8137
:1004D0008115924054F08C819D81811592402CF0C1
:1004E0008E819F818115924064F40E94E80141E071
:1004F00050E0BE01C801DF91CF911F910F910C9484
:10050000FB02DF91CF911F910F91089564E070E09D
:100510000E94A3048BEF9FEF0C946C030F931F9327
:10052000CF93DF938C01EB01CB010E945A008A81AB
:100530009B818115924054F08C819D818115924060
:100540002CF08E819F818115924054F444E050E05C
:10055000BE01C801DF91CF911F910F910C94FB0256
:10056000DF91CF911F910F91089508950895AF9253
:10057000BF92CF92DF92EF92FF920F931F93CF9390
:10058000DF937C01EB015A01690188E090E00E9451
:100590003906FC01892B21F481E090E00E94440A95
:1005A000D183C083B382A282D582C482178306839B
:1005B000DE011196AA0FBB1FAE0DBF1DED93FC937C
:1005C000CD2B71F4D701ED93FC93CBE0D0E08CE61A
:1005D000A82E81E0B82EC12CD12C00E010E0D5CFA0
:1005E000DF91CF911F910F91FF90EF90DF90CF900F
:1005F000BF90AF900895DC01CB01FA013196EE0F68
:10060000FF1FEA0FFB1F0190F081E02DED93FC939B
:100610000480F581E02D309709F0099408950F9337
:100620001F93CF93DF938C010E5F1F4FEC016A96EF
:10063000F801808191810E94D106F80111921192F6
:100640008F01EC17FD07A1F7DF91CF911F910F915B
:1006500008950F931F93CF93DF93EC018B01E881F3
:10066000F9810480F581E02DCB010995E881F981BC
:10067000808191810B9739F00680F781E02DB801D8
:10068000CE010995F3CFCE01DF91CF911F910F914C
:100690000C940F0362E085E290E00C944805CF9340
:1006A000DF93D82FC0E0CD1764F464E08BE290E0D4
:1006B0000E94480564E08BE290E00E944805CF5F0D
:1006C000F2CFDF91CF91089562E085E290E00E9441
:1006D0003C0583E00C944F03CF93DF93EC010E9421
:1006E0006403FE013496E730F10530F5EC5CFF4F12
:1006F0000C9433060E944A0381E00E944F030E943B
:100700004A0381E00E944F030E944A0381E010C027
:100710000E944A0381E00E944F030E944A0382E044
:1007200007C00E944A0382E0EDCF0E944A0383E0A3
:10073000DF91CF910C944F03DF91CF91089562E048
:1007400084E290E00E94310564E08AE290E00C943B
:1007500031058091C00087FFFCCF8091C6000895CD
:100760009091C00095FFFCCF8093C6000895CF9371
:10077000DF93EC018991882319F00E94B003FACF2E
:10078000DF91CF9108950F931F93072F182F292FD3
:1007900033270093C5006093C40088E18093C100B3
:1007A0008EE08093C20080E991E01F910F910C943C
:1007B000B7039C01FB018181882309F440C080912B
:1007C000BD019091BE01AC014F5F5F4F5093BE01E0
:1007D0004093BD0164E670E00E94FD05892B79F528
:1007E000D90181851F928F9380851F928F93878176
:1007F0008F9386818F9385818F9384818F9383815B
:100800008F9382818F93ED91FC9183818F9382816D
:100810008F9381E791E09F938F9385E991E09F9378
:100820008F930E945A078DB79EB740960FB6F894E3
:100830009EBF0FBE8DBF85E991E00C94B70308956C
:10084000F89415BC85B5836085BD14BC84B5836000
:1008500084BD789408958630A1F484B5611104C0F4
:100860008F7384BD5E9808956F3F21F48F7384BDAC
:100870005E9A0895806884BD84B58F7B84BD67BD12
:100880000895853099F484B5611104C08F7C84BDCE
:100890005D9808956F3F21F48F7C84BD5D9A089523
:1008A000806284BD84B58F7E84BD68BD089567E095
:1008B0008BE290E00E94310560E085E290E00C94CC
:1008C0003C0560E085E290E00E94310567E08BE244
:1008D00090E00C943C0563E085E290E00E943105D5
:1008E00061E085E290E00C943C0561E085E290E0F7
:1008F0000E94310563E085E290E00C943C0586306F
:10090000910569F030F48430910581F0059771F01C
:1009100008958730910531F0089741F008950E94BD
:10092000610406C00E9457040C9475040E94570489
:100930000C946B048AB180668AB9579A84B18B682B
:1009400084B90C942004CF93DF93EC01CB01663083
:10095000710599F050F464307105A9F065307105A6
:10096000C1F42EE6288720EA13C06730710549F0EC
:100970006830710571F420EA09C02EE628872EEB55
:1009800007C02EEB03C020EA288702C028872EE686
:1009900029870E947F04688585E00E942B04698571
:1009A00086E0DF91CF910C942B041AB814B887B16C
:1009B000887F87B980E480937C0087E080937A0009
:1009C00080917A00806880937A0080917A008064B8
:1009D00080937A0080917A0086FDFCCF8091780028
:1009E00090917900089590917C00907E8F71892B71
:1009F00080937C0080917A00806480937A0080915B
:100A00007A0086FDFCCF809178009091790008955E
:100A1000CF92DF92EF92FF921F93CF93DF93182F25
:100A2000D62FC0E0C12CD12C7601CD1749F0812FF3
:100A30000E94F304C80ED91EE11CF11CCF5FF5CF54
:100A40002C2F30E040E050E0C701B6010E941106B3
:100A5000C901DF91CF911F91FF90EF90DF90CF9070
:100A60000895FC01408121E030E001C0220F6A9529
:100A7000EAF7242B20830895FC01908121E030E0E7
:100A800001C0220F6A95EAF7209529232083089553
:100A9000FC01408121E030E001C0220F6A95EAF7B5
:100AA000242720830895EF92FF920F931F93CF93F3
:100AB000DF93CDB7DEB7A4970FB6F894DEBF0FBEB5
:100AC000CDBF7E018BE1E80EF11C8AE0F7011192A7
:100AD0008A95E9F781E08B8F8C8F0CE910E020E993
:100AE00030E046E051E060E070E0CE0101960E9407
:100AF000B7020FEA10E027EA30E04BE051E064E093
:100B000070E0CE0101960E94B70209E011E028EDE5
:100B100030E043E151E066E070E0CE0101960E94D2
:100B2000B70208EE10E020EE30E048E151E067E067
:100B300070E0CE0101960E94B70206E511E02EE4B6
:100B400031E04EE151E068E070E0CE0101960E9494
:100B5000B70203E111E02BE031E04EE251E065E045
:100B600070E0CE0101960E94B7020BEF11E02AEF70
:100B700031E04DE351E061E070E0CE0101960E946A
:100B8000B70204E512E027E432E04CE451E062E011
:100B900070E0CE0101960E94B7020EE812E026E84E
:100BA00032E046E551E063E070E0CE0101960E943C
:100BB000B70206EB12E025EB32E042E651E069E0D5
:100BC00070E0CE0101960E94B7028BEF9FEF0E946A
:100BD0006C03B701CE0101960E94290380E090E0EA
:100BE000A4960FB6F894DEBF0FBECDBFDF91CF91B4
:100BF0001F910F91FF90EF900895AA1BBB1B51E12D
:100C000007C0AA1FBB1FA617B70710F0A61BB70B7C
:100C1000881F991F5A95A9F780959095BC01CD0121
:100C20000895A1E21A2EAA1BBB1BFD010DC0AA1F2D
:100C3000BB1FEE1FFF1FA217B307E407F50720F045
:100C4000A21BB30BE40BF50B661F771F881F991FC0
:100C50001A9469F760957095809590959B01AC0109
:100C6000BD01CF010895EE0FFF1F0590F491E02D17
:100C700009940F931F93CF93DF938230910510F463
:100C800082E090E0E091C101F091C20120E030E00B
:100C9000A0E0B0E0309719F14081518102811381C9
:100CA00048175907C8F08417950769F4109731F071
:100CB00012960C93129713961C9327C00093C101B0
:100CC0001093C20122C02115310519F042175307B4
:100CD00018F49A01BD01EF01DF01F801DBCF211506
:100CE0003105F9F0281B390B2430310580F48A8155
:100CF0009B816115710521F0FB019383828304C000
:100D00009093C2018093C101FE01329644C0FE015E
:100D1000E20FF31F81939193225031093983288385
:100D20003AC02091BF013091C001232B41F42091A2
:100D30000201309103013093C0012093BF01209143
:100D40000001309101012115310541F42DB73EB765
:100D50004091040150910501241B350BE091BF0126
:100D6000F091C001E217F307A0F42E1B3F0B2817E8
:100D7000390778F0AC014E5F5F4F2417350748F014
:100D80004E0F5F1F5093C0014093BF018193919319
:100D900002C0E0E0F0E0CF01DF91CF911F910F9111
:100DA0000895CF93DF93009709F481C0FC01329737
:100DB00013821282A091C101B091C201109781F4F7
:100DC00020813181820F931F2091BF013091C0019A
:100DD0002817390751F5F093C001E093BF0167C0B0
:100DE000ED0120E030E0CE17DF0740F44A815B815F
:100DF0009E0141155105F1F0EA01F5CFD383C2837D
:100E000040815181840F951FC817D90759F48881F3
:100E10009981840F951F0296918380838A819B819B
:100E2000938382832115310529F4F093C201E09365
:100E3000C1013DC0E901FB83EA8349915991C40F87
:100E4000D51FEC17FD0761F480819181840F951FF8
:100E50000296E90199838883828193819B838A83A7
:100E6000E0E0F0E012968D919C911397009719F0B5
:100E7000FD01DC01F7CF8D919C9111979D012E5FB3
:100E80003F4F820F931F2091BF013091C00128175F
:100E9000390769F4309729F41092C2011092C10108
:100EA00002C013821282B093C001A093BF01DF91F0
:100EB000CF910895AEE0B0E0E0E6F7E00C941B0AB5
:100EC0000D891E8986E08C831A8309838FEF9FE743
:100ED0009E838D83AE01475E5F4F6F89788DCE0113
:100EE00001960E947C07EF81F885E00FF11F1082C8
:100EF0002E96E4E00C94370AABE0B0E0E2E8F7E0CD
:100F00000C940D0A6C017B018A01FC011782168288
:100F1000838181FFCCC1CE0101963C01F601938112
:100F2000F70193FD859193FF81917F01882309F457
:100F3000BAC1853239F493FD859193FF81917F0188
:100F4000853229F4B60190E00E947309E7CF912C15
:100F5000212C312CFFE1F315D8F08B3279F038F4E5
:100F6000803279F08332A1F4232D20611DC08D32AF
:100F700061F0803369F4232D216016C0832D8260D7
:100F8000382EE32DE4603E2E2AC0F32DF8601DC0FC
:100F900037FC2DC020ED280F2A3040F08E32B9F4F6
:100FA00036FC81C1232D2064322E19C036FE06C0C6
:100FB0008AE0989E200D1124922E11C0EAE02E9E08
:100FC000200D1124222EF32DF0623F2E08C08C3606
:100FD00021F4832D8068382E02C0883641F4F70151
:100FE00093FD859193FF81917F018111B3CF982F5C
:100FF0009F7D9554933028F40C5F1F4F9FE3998396
:101000000DC0833631F0833771F0833509F059C054
:1010100021C0F801808189830E5F1F4F882483944B
:10102000912C530113C02801F2E04F0E511CF8011E
:10103000A080B18036FE03C0692D70E002C06FEF62
:101040007FEFC5010E9468094C018201F32DFF77F3
:101050003F2E16C0280122E0420E511CF801A0804C
:10106000B18036FE03C0692D70E002C06FEF7FEFE4
:10107000C5010E945D094C01F32DF0683F2E8201ED
:1010800033FC1BC0822D90E088169906B0F4B6019F
:1010900080E290E00E9473092A94F4CFF50137FCB6
:1010A000859137FE81915F01B60190E00E9473093E
:1010B00021102A9421E0821A91088114910471F779
:1010C000E8C0843611F0893641F5F80137FE07C0D3
:1010D00060817181828193810C5F1F4F08C06081A4
:1010E0007181072E000C880B990B0E5F1F4FF32D9B
:1010F000FF763F2E97FF09C090958095709561957A
:101100007F4F8F4F9F4FF0683F2E2AE030E0A301C2
:101110000E94AF09882E861845C0853731F4232DEB
:101120002F7EB22E2AE030E025C0932D997FB92E74
:101130008F36C1F018F4883579F0B5C0803719F0D2
:10114000883721F0B0C0E92FE061BE2EB4FE0DC09B
:10115000FB2DF460BF2E09C034FE0AC0292F266083
:10116000B22E06C028E030E005C020E130E002C029
:1011700020E132E0F801B7FE07C060817181828111
:1011800093810C5F1F4F06C06081718180E090E009
:101190000E5F1F4FA3010E94AF09882E8618FB2DFA
:1011A000FF773F2E36FE0DC0232D2E7FA22E8914F1
:1011B00058F434FE0BC032FC09C0832D8E7EA82E5D
:1011C00005C0B82CA32C03C0B82C01C0B92CA4FEB8
:1011D0000FC0FE01E80DF11D8081803321F49A2DAE
:1011E000997EA92E09C0A2FE06C0B394B39404C090
:1011F0008A2D867809F0B394A3FC11C0A0FE06C026
:10120000B21488F4280C922C9B180EC0B21460F40F
:10121000B60180E290E00E947309B394F7CFB21454
:1012200018F42B1802C0982C212CA4FE10C0B60173
:1012300080E390E00E947309A2FE17C0A1FC03C0E6
:1012400088E790E002C088E590E0B6010CC08A2DE6
:10125000867859F0A1FE02C08BE201C080E2A7FCB3
:101260008DE2B60190E00E947309891438F4B6014A
:1012700080E390E00E9473099A94F7CF8A94F30177
:10128000E80DF11D8081B60190E00E947309811084
:10129000F5CF222009F442CEB60180E290E00E9410
:1012A00073092A94F6CFF6018681978102C08FEFE9
:1012B0009FEF2B96E2E10C94290AFC010590615006
:1012C00070400110D8F7809590958E0F9F1F08955C
:1012D000FC016150704001900110D8F78095909505
:1012E0008E0F9F1F08950F931F93CF93DF93FB01E2
:1012F000238121FD03C08FEF9FEF2CC022FF16C07A
:1013000046815781248135814217530744F4A081D7
:10131000B1819D012F5F3F4F318320838C932681C4
:1013200037812F5F3F4F3783268314C08B01EC0139
:10133000FB010084F185E02D0995892BE1F6D801A8
:1013400016968D919C911797019617969C938E9364
:101350001697CE01DF91CF911F910F910895FA0159
:10136000AA27283051F1203181F1E8946F936E7FE4
:101370006E5F7F4F8F4F9F4FAF4FB1E03ED0B4E0D5
:101380003CD0670F781F891F9A1FA11D680F791F16
:101390008A1F911DA11D6A0F711D811D911DA11D27
:1013A00020D009F468943F912AE0269F1124301937
:1013B000305D3193DEF6CF010895462F4770405DD2
:1013C0004193B3E00FD0C9F7F6CF462F4F70405D81
:1013D0004A3318F0495D31FD4052419302D0A9F7DC
:1013E000EACFB4E0A6959795879577956795BA95D6
:1013F000C9F700976105710508959B01AC010A2E9C
:1014000006945795479537952795BA95C9F7620F72
:10141000731F841F951FA01D08952F923F924F9216
:101420005F926F927F928F929F92AF92BF92CF9274
:10143000DF92EF92FF920F931F93CF93DF93CDB77D
:10144000DEB7CA1BDB0B0FB6F894DEBF0FBECDBFF5
:1014500009942A88398848885F846E847D848C84C6
:101460009B84AA84B984C884DF80EE80FD800C81CF
:101470001B81AA81B981CE0FD11D0FB6F894DEBFB2
:0C1480000FBECDBFED010895F894FFCF22
:10148C000000C3012000496E697400466F727761D9
:10149C007264004C65667400526967687400534F3F
:1014AC0046542052494748545F4841524400534FD8
:1014BC004654204C4546545F4841524400434845ED
:1014CC00434B5F5354415254504F5300434F554E6E
:1014DC0054444F574E004C454156455F535441526E
:1014EC005400434845434B5F4C4150004578697468
:1014FC00002573204C3A2564207C204D3A2564202D
:10150C007C20523A25640A202564207C2025640A1C
:02151C000A00C3
:00000001FF
