:100000000C9434000C9451000C9451000C94510049
:100010000C9451000C9451000C9451000C9453001A
:100020000C9451000C9451000C9451000C9451000C
:100030000C9451000C9451000C9451000C945100FC
:100040000C9451000C9451000C9451000C945100EC
:100050000C9451000C9451000C9451000C945100DC
:100060000C9451000C94510011241FBECFEFD8E026
:10007000DEBFCDBF11E0A0E0B1E0EAE0F0E102C0F8
:1000800005900D92A635B107D9F721E0A6E5B1E0BC
:1000900001C01D92AA38B207E1F70E9479030C94BF
:1000A00003080C9400001F920F920FB60F921124B8
:1000B0008F939F938091580190915901019690934D
:1000C00059018093580180915601909157010196F2
:1000D00090935701809356019F918F910F900FBE7F
:1000E0000F901F901895F89481E08093B100E0E79D
:1000F000F0E080818260808382E08093B000109283
:10010000B2008FEF8093B3007894089587B1887F11
:1001100087B980E480937C0087E080937A008091A7
:100120007A00806880937A0080917A00806480935E
:100130007A0080917A0086FDFCCF809178009091C2
:100140007900089590917C00907E8F71892B809327
:100150007C0080917A00806480937A0080917A009C
:1001600086FDFCCF80917800909179000895CF9220
:10017000DF92EF92FF921F93CF93DF93182FD62F2A
:10018000C0E0C12CD12C7601CD1749F0812F0E94FF
:10019000A200C80ED91EE11CF11CCF5FF5CF2C2F99
:1001A00030E040E050E0C701B6010E94D603C9012B
:1001B000DF91CF911F91FF90EF90DF90CF90089546
:1001C000F89415BC85B5836085BD14BC84B5836087
:1001D00084BD789408958630A1F484B5611104C07B
:1001E0008F7384BD5E9808956F3F21F48F7384BD33
:1001F0005E9A0895806884BD84B58F7B84BD67BD99
:100200000895853099F484B5611104C08F7C84BD54
:100210005D9808956F3F21F48F7C84BD5D9A0895A9
:10022000806284BD84B58F7E84BD68BD0895FC0165
:10023000408121E030E001C0220F6A95EAF7242BCB
:1002400020830895FC01908121E030E001C0220F5D
:100250006A95EAF720952923208308955F9A2898C4
:100260000895289A5F9808952B9A29980895299AB5
:100270002B9808950E942E010C9434010E943101A4
:100280000C9434010E942E010C9437010E9431011C
:100290000C943701CF9320915C0130915D012130A6
:1002A000310551F021E030E030935D0120935C0195
:1002B000FC01808590E005C080915A0190915B011E
:1002C0000A9690935B0180935A0180915A01909114
:1002D0005B01861797075CF4C1E0C80F6C2F85E0BF
:1002E0000E94EB006C2F86E0CF910C94EB008EE126
:1002F00091E0CF910C94D8010F931F93CF93DF938C
:100300008B01CFEF8C2F90E00817190764F4D1E030
:10031000DC0F6D2F85E00E94EB006D2F86E00E94C0
:10032000EB00C150EFCFDF91CF911F910F91089556
:100330001AB814B880E68AB9579A8BE884B90C9435
:10034000E000CF93DF93EC016330710561F064301E
:10035000710581F06230710599F480EA8F83888796
:100360000E943A010DC080EA8F8382ED88870E9447
:100370003E0106C082ED8F8380EA88870E94420199
:100380006F8185E00E94EB00688586E0DF91CF9168
:100390000C94EB008091C00087FFFCCF8091C600D9
:1003A00008959091C00095FFFCCF8093C6000895FA
:1003B000CF93DF93EC018991882319F00E94D1013A
:1003C000FACFDF91CF9108950F931F93072F182F26
:1003D000292F33270093C5006093C40088E18093E0
:1003E000C1008EE08093C2008FE491E01F910F91D5
:1003F0000C94D801FB0120851F922F9327811F9217
:100400002F9326812F9325812F9324812F9323814E
:100410002F9322812F9321812F93DC01ED91FC9169
:1004200083818F9382818F9380E391E09F938F9359
:100430008EE591E09F938F930E9419058DB79EB72B
:1004400040960FB6F8949EBF0FBE8DBF8EE591E02B
:100450000C94D801AF92BF92CF92DF92EF92FF92AD
:100460000F931F93CF93DF937C01EB015A01690136
:1004700088E090E00E94F803FC01892B21F481E0E0
:1004800090E00E940308D183C083B382A282D58208
:10049000C48217830683DE011196AA0FBB1FAE0D1F
:1004A000BF1DED93FC93CD2B71F4D701ED93FC931D
:1004B000C6E0D0E081E5A82E81E0B82EC12CD12C79
:1004C00000E010E0D5CFDF91CF911F910F91FF9009
:1004D000EF90DF90CF90BF90AF900895DC01CB01FB
:1004E000FA013196EE0FFF1FEA0FFB1F0190F0811A
:1004F000E02DED93FC930480F581E02D09940F939A
:100500001F93CF93DF938C010E5F1F4FEC0160961A
:10051000F801808191810E949004F801119211925A
:100520008F01EC17FD07A1F7DF91CF911F910F917C
:1005300008950F931F93CF93DF93EC018B01E88114
:10054000F9810480F581E02DCB010995E881F981DD
:1005500080819181069739F00680F781E02DB801FE
:10056000CE010995F3CFCE01DF91CF911F910F916D
:100570000C947F020E9486000E94980167E670E05A
:1005800080E090E00C94E40142E050E00C946E02B4
:1005900062E070E00C94A1010F931F93CF93DF935F
:1005A0008C01EB0164E182E00E94B7009A838983A9
:1005B00064E180E00E94B7009E838D8329813A81A7
:1005C0002115324034F08115924064F443E050E04C
:1005D00005C08115924034F044E050E0BE01C801EE
:1005E0000E946E028881882369F0BE01C8010E94C2
:1005F000FA018FEF96E121E1815090402040E1F730
:1006000000C00000DF91CF911F910F91089564E029
:1006100070E00C94A1010F931F93CF93DF938C0193
:10062000EB0164E182E00E94B7009A83898364E170
:1006300080E00E94B7009E838D8329813A81211535
:1006400032401CF48115924034F442E050E0BE0187
:10065000C8010E946E028881882369F0BE01C8012A
:100660000E94FA014FEF86E191E1415080409040B5
:10067000E1F700C00000DF91CF911F910F91089525
:1006800063E070E00C94A1010F931F93CF93DF936D
:100690008C01EB0164E182E00E94B7009A838983B8
:1006A00064E180E00E94B7009E838D8329813A81B6
:1006B000211532401CF08115924034F042E050E0A8
:1006C000BE01C8010E946E028881882369F0BE01C4
:1006D000C8010E94FA014FEF86E191E1415080404C
:1006E0009040E1F700C00000DF91CF911F910F9182
:1006F0000895EF92FF920F931F93CF93DF93CDB79F
:10070000DEB769970FB6F894DEBF0FBECDBF7E018E
:1007100081E1E80EF11C89E0F70111928A95E9F771
:1007200081E0898B04EC12E02AEB32E046E051E0F4
:1007300060E070E0CE0101960E942A020CEC12E00B
:1007400028EC32E04BE051E062E070E0CE0101962F
:100750000E942A0204E413E020E433E043E151E084
:1007600063E070E0CE0101960E942A020BE013E0E4
:1007700027E033E048E151E064E070E0CE0101960B
:100780000E942A02B701CE0101960E94990280E0E0
:1007900090E069960FB6F894DEBF0FBECDBFDF9133
:1007A000CF911F910F91FF90EF900895A1E21A2E23
:1007B000AA1BBB1BFD010DC0AA1FBB1FEE1FFF1F05
:1007C000A217B307E407F50720F0A21BB30BE40B55
:1007D000F50B661F771F881F991F1A9469F760959C
:1007E0007095809590959B01AC01BD01CF01089556
:1007F0000F931F93CF93DF938230910510F482E023
:1008000090E0E0918801F091890120E030E0A0E0E3
:10081000B0E0309719F1408151810281138148176E
:100820005907C8F08417950769F4109731F01296AC
:100830000C93129713961C9327C000938801109372
:10084000890122C02115310519F04217530718F408
:100850009A01BD01EF01DF01F801DBCF2115310560
:10086000F9F0281B390B2430310580F48A819B81F3
:100870006115710521F0FB019383828304C090937D
:10088000890180938801FE01329644C0FE01E20F87
:10089000F31F8193919322503109398328833AC001
:1008A0002091860130918701232B41F42091020190
:1008B000309103013093870120938601209100013C
:1008C000309101012115310541F42DB73EB740911A
:1008D000040150910501241B350BE0918601F09134
:1008E0008701E217F307A0F42E1B3F0B28173907E7
:1008F00078F0AC014E5F5F4F2417350748F04E0F7C
:100900005F1F50938701409386018193919302C0AA
:10091000E0E0F0E0CF01DF91CF911F910F910895BA
:10092000CF93DF93009709F481C0FC0132971382C3
:100930001282A0918801B0918901109781F42081E1
:100940003181820F931F20918601309187012817F2
:10095000390751F5F0938701E093860167C0ED01F7
:1009600020E030E0CE17DF0740F44A815B819E0132
:1009700041155105F1F0EA01F5CFD383C2834081DF
:100980005181840F951FC817D90759F4888199811F
:10099000840F951F0296918380838A819B81938324
:1009A00082832115310529F4F0938901E0938801B0
:1009B0003DC0E901FB83EA8349915991C40FD51FDA
:1009C000EC17FD0761F480819181840F951F0296D9
:1009D000E90199838883828193819B838A83E0E004
:1009E000F0E012968D919C911397009719F0FD01FC
:1009F000DC01F7CF8D919C9111979D012E5F3F4FA8
:100A0000820F931F209186013091870128173907A3
:100A100069F4309729F4109289011092880102C07C
:100A200013821282B0938701A0938601DF91CF9148
:100A30000895AEE0B0E0EFE1F5E00C94DA070D893F
:100A40001E8986E08C831A8309838FEF9FE79E833C
:100A50008D83AE01475E5F4F6F89788DCE01019621
:100A60000E943B05EF81F885E00FF11F10822E9662
:100A7000E4E00C94F607ABE0B0E0E1E4F5E00C94C0
:100A8000CC076C017B018A01FC01178216828381ED
:100A900081FFCCC1CE0101963C01F6019381F701A3
:100AA00093FD859193FF81917F01882309F4BAC159
:100AB000853239F493FD859193FF81917F018532D1
:100AC00029F4B60190E00E943207E7CF912C212C47
:100AD000312CFFE1F315D8F08B3279F038F4803205
:100AE00079F08332A1F4232D20611DC08D3261F095
:100AF000803369F4232D216016C0832D8260382E47
:100B0000E32DE4603E2E2AC0F32DF8601DC037FCB3
:100B10002DC020ED280F2A3040F08E32B9F436FC7B
:100B200081C1232D2064322E19C036FE06C08AE012
:100B3000989E200D1124922E11C0EAE02E9E200DC9
:100B40001124222EF32DF0623F2E08C08C3621F4A2
:100B5000832D8068382E02C0883641F4F70193FD5A
:100B6000859193FF81917F018111B3CF982F9F7D54
:100B70009554933028F40C5F1F4F9FE399830DC069
:100B8000833631F0833771F0833509F059C021C0C5
:100B9000F801808189830E5F1F4F88248394912CF4
:100BA000530113C02801F2E04F0E511CF801A08040
:100BB000B18036FE03C0692D70E002C06FEF7FEF99
:100BC000C5010E9427074C018201F32DFF773F2EBC
:100BD00016C0280122E0420E511CF801A080B1800D
:100BE00036FE03C0692D70E002C06FEF7FEFC501D4
:100BF0000E941C074C01F32DF0683F2E820133FC4C
:100C00001BC0822D90E088169906B0F4B60180E2F0
:100C100090E00E9432072A94F4CFF50137FC8591C9
:100C200037FE81915F01B60190E00E9432072110EA
:100C30002A9421E0821A91088114910471F7E8C086
:100C4000843611F0893641F5F80137FE07C060811E
:100C50007181828193810C5F1F4F08C06081718117
:100C6000072E000C880B990B0E5F1F4FF32DFF769C
:100C70003F2E97FF09C090958095709561957F4FA5
:100C80008F4F9F4FF0683F2E2AE030E0A3010E9473
:100C90006E07882E861845C0853731F4232D2F7EA8
:100CA000B22E2AE030E025C0932D997FB92E8F36E1
:100CB000C1F018F4883579F0B5C0803719F088375D
:100CC00021F0B0C0E92FE061BE2EB4FE0DC0FB2DB7
:100CD000F460BF2E09C034FE0AC0292F2660B22E50
:100CE00006C028E030E005C020E130E002C020E18D
:100CF00032E0F801B7FE07C0608171818281938183
:100D00000C5F1F4F06C06081718180E090E00E5F34
:100D10001F4FA3010E946E07882E8618FB2DFF77B8
:100D20003F2E36FE0DC0232D2E7FA22E891458F49F
:100D300034FE0BC032FC09C0832D8E7EA82E05C068
:100D4000B82CA32C03C0B82C01C0B92CA4FE0FC032
:100D5000FE01E80DF11D8081803321F49A2D997EEA
:100D6000A92E09C0A2FE06C0B394B39404C08A2D74
:100D7000867809F0B394A3FC11C0A0FE06C0B2149B
:100D800088F4280C922C9B180EC0B21460F4B601A3
:100D900080E290E00E943207B394F7CFB21418F4C7
:100DA0002B1802C0982C212CA4FE10C0B60180E3A1
:100DB00090E00E943207A2FE17C0A1FC03C088E7A2
:100DC00090E002C088E590E0B6010CC08A2D8678DC
:100DD00059F0A1FE02C08BE201C080E2A7FC8DE2C7
:100DE000B60190E00E943207891438F4B60180E31E
:100DF00090E00E9432079A94F7CF8A94F301E80DAD
:100E0000F11D8081B60190E00E9432078110F5CF7C
:100E1000222009F442CEB60180E290E00E9432071F
:100E20002A94F6CFF6018681978102C08FEF9FEF5B
:100E30002B96E2E10C94E807FC01059061507040AC
:100E40000110D8F7809590958E0F9F1F0895FC0193
:100E50006150704001900110D8F7809590958E0FE9
:100E60009F1F08950F931F93CF93DF93FB0123815F
:100E700021FD03C08FEF9FEF2CC022FF16C04681DB
:100E80005781248135814217530744F4A081B181F1
:100E90009D012F5F3F4F318320838C9326813781C3
:100EA0002F5F3F4F3783268314C08B01EC01FB017A
:100EB0000084F185E02D0995892BE1F6D80116967D
:100EC0008D919C911797019617969C938E931697E8
:100ED000CE01DF91CF911F910F910895FA01AA27BA
:100EE000283051F1203181F1E8946F936E7F6E5F6D
:100EF0007F4F8F4F9F4FAF4FB1E03ED0B4E03CD01B
:100F0000670F781F891F9A1FA11D680F791F8A1FFD
:100F1000911DA11D6A0F711D811D911DA11D20D064
:100F200009F468943F912AE0269F11243019305D1E
:100F30003193DEF6CF010895462F4770405D41930F
:100F4000B3E00FD0C9F7F6CF462F4F70405D4A335C
:100F500018F0495D31FD4052419302D0A9F7EACF24
:100F6000B4E0A6959795879577956795BA95C9F753
:100F700000976105710508959B01AC010A2E069446
:100F80005795479537952795BA95C9F7620F731FFF
:100F9000841F951FA01D08952F923F924F925F923C
:100FA0006F927F928F929F92AF92BF92CF92DF9279
:100FB000EF92FF920F931F93CF93DF93CDB7DEB7DE
:100FC000CA1BDB0B0FB6F894DEBF0FBECDBF099472
:100FD0002A88398848885F846E847D848C849B84C9
:100FE000AA84B984C884DF80EE80FD800C811B81D7
:100FF000AA81B981CE0FD11D0FB6F894DEBF0FBE06
:0A100000CDBFED010895F894FFCF75
:10100A0000008A012000496E697400466F72776198
:10101A007264004C656674005269676874000A4914
:10102A0043482042494E20464552544947210A0026
:10103A002573204C3A2564207C204D3A2564207C77
:10104A0020523A25640A202564207C2025640A0A55
:06105A00004578697400F6
:00000001FF
