:100000000C9434000C9451000C9451000C94510049
:100010000C9451000C9451000C9451000C94F80075
:100020000C9451000C9451000C9451000C9451000C
:100030000C9451000C9451000C9451000C945100FC
:100040000C9451000C9451000C9451000C945100EC
:100050000C9451000C9451000C9451000C945100DC
:100060000C9451000C94510011241FBECFEFD8E026
:10007000DEBFCDBF11E0A0E0B1E0E4EEFBE002C0E6
:1000800005900D92A237B107D9F721E0A2E7B1E0C0
:1000900001C01D92AC3DB207E1F70E94A2020C9490
:1000A000F0050C940000CF93DF93EC0188819981D7
:1000B0008230910591F028F40197E9F40E94E5015E
:1000C0000EC08330910581F00497A9F40E94E501E8
:1000D000CE01DF91CF910C941C020E94E901CE0168
:1000E000DF91CF910C94FE010E94E501CE01DF91DA
:1000F000CF910C940C02DF91CF910895FC01828185
:1001000093818115924074F4248135818681978191
:100110002115324054F4811522E0920734F481E035
:1001200090E008C083E090E005C081159240BCF3E8
:1001300084E090E0918380830895CF93DF93EC0176
:10014000888199818230910599F038F4009769F09F
:100150000197C1F487E091E00DC08330910579F0FB
:10016000049781F488E291E005C080E091E002C04C
:1001700081E191E09093D7018093D60107C08CE193
:1001800091E0F8CF85E391E00E9480028B858F9308
:100190008A858F9389858F9388858F938F818F939D
:1001A0008E818F938D818F938C818F938B818F9391
:1001B0008A818F938091D7018F938091D6018F93FD
:1001C00080E591E09F938F9382E791E09F938F93D7
:1001D0000E9406038DB79EB740960FB6F8949EBF57
:1001E0000FBE8DBF82E791E0DF91CF910C9480022A
:1001F0001F920F920FB60F9211248F939F938091AD
:10020000DA019091DB0101969093DB018093DA0192
:100210008091D8019091D90101969093D901809352
:10022000D8019F918F910F900FBE0F901F9018953E
:10023000F89481E08093B100E0E7F0E08081826093
:10024000808382E08093B0001092B2008FEF8093A1
:10025000B3007894089587B1887F87B980E480934C
:100260007C0087E080937A0080917A008068809398
:100270007A0080917A00806480937A0080917A007D
:1002800086FDFCCF8091780090917900089590913F
:100290007C00907E8F71892B80937C0080917A0006
:1002A000806480937A0080917A0086FDFCCF8091F3
:1002B0007800909179000895CF92DF92EF92FF92AB
:1002C0001F93CF93DF93182FD62FC0E0C12CD12CD2
:1002D0007601CD1749F0812F0E944701C80ED91E23
:1002E000E11CF11CCF5FF5CF2C2F30E040E050E057
:1002F000C701B6010E94E402C901DF91CF911F91AD
:10030000FF90EF90DF90CF9008958F3F29F484B550
:100310008F7C84BD5D9A089594B5906294BD94B528
:100320009F7E94BD88BD0895F89415BC85B5836003
:1003300085BD14BC84B5836084BD789408958630EF
:10034000A1F484B5611104C08F7384BD5E980895D3
:100350006F3F21F48F7384BD5E9A0895806884BDD9
:1003600084B58F7B84BD67BD0895853051F46111DC
:1003700005C084B58F7C84BD5D980895862F0C944C
:1003800085010895FC01408121E030E001C0220F89
:100390006A95EAF7242B20830895FC01908121E0DF
:1003A00030E001C0220F6A95EAF7209529232083C7
:1003B00008955F9A58980895289A5F9808952B9AFF
:1003C00029980895299A2B9808950E94D9010C9490
:1003D000DF010E94DC010C94E2010E94DC010C941C
:1003E000DF010E94D9010C94E2011AB814B880E62A
:1003F0008AB9579A8BE884B90C9494012BE930E0C0
:10040000FC0131872087338722878BE90E94850191
:100410006BE986E00C949F0122E330E0FC01318718
:10042000208728EC30E03387228782E30E94850111
:1004300068EC86E00C949F0128EC30E0FC013187E9
:10044000208722E330E03387228788EC0E948501F1
:1004500062E386E00C949F010F931F93CF938B016F
:10046000C0E08C2F90E0801791079CF4CF5F6C2F39
:1004700085E00E949F016C2F86E00E949F012FEF74
:1004800080E792E0215080409040E1F700C00000FA
:10049000E8CFCF911F910F9108950F931F93CF93A2
:1004A000DF938B01CFEF8C2F90E008171907ACF486
:1004B000D1E0DC0F6D2F85E00E949F016D2F86E05B
:1004C0000E949F012FEF80E792E0215080409040F2
:1004D000E1F700C00000C150E6CFDF91CF911F913E
:1004E0000F9108958091C00087FFFCCF8091C600D6
:1004F00008959091C00095FFFCCF8093C6000895A9
:10050000CF93DF93EC018991882319F00E9479023F
:10051000FACFDF91CF9108950F931F93072F182FD4
:10052000292F33270093C5006093C40088E180938E
:10053000C1008EE08093C2008FE691E01F910F9181
:100540000C948002CF93DF93CDB7DEB72C970FB614
:10055000F894DEBF0FBECDBF0E942B010E94F501B3
:1005600067E670E080E090E00E948C0268EC70E04A
:10057000CE0101960E942C0264E180E00E945C01A1
:100580009C838B8364E181E00E945C019E838D8368
:1005900064E182E00E945C0198878F83CE0101961E
:1005A0000E947E00CE0101960E945300CE0101966A
:1005B0000E949D002FEF84E39CE0215080409040FA
:1005C000E1F700C00000D8CFA1E21A2EAA1BBB1B86
:1005D000FD010DC0AA1FBB1FEE1FFF1FA217B3070F
:1005E000E407F50720F0A21BB30BE40BF50B661F25
:1005F000771F881F991F1A9469F7609570958095E9
:1006000090959B01AC01BD01CF010895AEE0B0E033
:10061000ECE0F3E00C94C7050D891E8986E08C831D
:100620001A8309838FEF9FE79E838D83AE01475E18
:100630005F4F6F89788DCE0101960E942803EF816C
:10064000F885E00FF11F10822E96E4E00C94E3058C
:10065000ABE0B0E0EEE2F3E00C94B9056C017B0195
:100660008A01FC0117821682838181FFCCC1CE01F1
:1006700001963C01F6019381F70193FD859193FF6B
:1006800081917F01882309F4BAC1853239F493FD41
:10069000859193FF81917F01853229F4B60190E025
:1006A0000E941F05E7CF912C212C312CFFE1F3157F
:1006B000D8F08B3279F038F4803279F08332A1F4BB
:1006C000232D20611DC08D3261F0803369F4232D0C
:1006D000216016C0832D8260382EE32DE4603E2E0B
:1006E0002AC0F32DF8601DC037FC2DC020ED280F67
:1006F0002A3040F08E32B9F436FC81C1232D2064BB
:10070000322E19C036FE06C08AE0989E200D1124B4
:10071000922E11C0EAE02E9E200D1124222EF32DE0
:10072000F0623F2E08C08C3621F4832D8068382E6D
:1007300002C0883641F4F70193FD859193FF8191C2
:100740007F018111B3CF982F9F7D9554933028F46A
:100750000C5F1F4F9FE399830DC0833631F08337C1
:1007600071F0833509F059C021C0F8018081898377
:100770000E5F1F4F88248394912C530113C02801CE
:10078000F2E04F0E511CF801A080B18036FE03C08C
:10079000692D70E002C06FEF7FEFC5010E94140564
:1007A0004C018201F32DFF773F2E16C0280122E075
:1007B000420E511CF801A080B18036FE03C0692DA5
:1007C00070E002C06FEF7FEFC5010E9409054C0188
:1007D000F32DF0683F2E820133FC1BC0822D90E088
:1007E00088169906B0F4B60180E290E00E941F05D9
:1007F0002A94F4CFF50137FC859137FE81915F0192
:10080000B60190E00E941F0521102A9421E0821A6F
:1008100091088114910471F7E8C0843611F089368B
:1008200041F5F80137FE07C06081718182819381B3
:100830000C5F1F4F08C060817181072E000C880B70
:10084000990B0E5F1F4FF32DFF763F2E97FF09C0C8
:1008500090958095709561957F4F8F4F9F4FF06871
:100860003F2E2AE030E0A3010E945B05882E861807
:1008700045C0853731F4232D2F7EB22E2AE030E09B
:1008800025C0932D997FB92E8F36C1F018F4883585
:1008900079F0B5C0803719F0883721F0B0C0E92F62
:1008A000E061BE2EB4FE0DC0FB2DF460BF2E09C06A
:1008B00034FE0AC0292F2660B22E06C028E030E0A0
:1008C00005C020E130E002C020E132E0F801B7FECF
:1008D00007C060817181828193810C5F1F4F06C0C8
:1008E0006081718180E090E00E5F1F4FA3010E9444
:1008F0005B05882E8618FB2DFF773F2E36FE0DC038
:10090000232D2E7FA22E891458F434FE0BC032FC06
:1009100009C0832D8E7EA82E05C0B82CA32C03C041
:10092000B82C01C0B92CA4FE0FC0FE01E80DF11DCA
:100930008081803321F49A2D997EA92E09C0A2FED0
:1009400006C0B394B39404C08A2D867809F0B3949A
:10095000A3FC11C0A0FE06C0B21488F4280C922C8F
:100960009B180EC0B21460F4B60180E290E00E94C1
:100970001F05B394F7CFB21418F42B1802C0982CAB
:10098000212CA4FE10C0B60180E390E00E941F0558
:10099000A2FE17C0A1FC03C088E790E002C088E572
:1009A00090E0B6010CC08A2D867859F0A1FE02C0F5
:1009B0008BE201C080E2A7FC8DE2B60190E00E94CC
:1009C0001F05891438F4B60180E390E00E941F05EA
:1009D0009A94F7CF8A94F301E80DF11D8081B60156
:1009E00090E00E941F058110F5CF222009F442CE2D
:1009F000B60180E290E00E941F052A94F6CFF6012E
:100A00008681978102C08FEF9FEF2B96E2E10C94D5
:100A1000D505FC010590615070400110D8F7809514
:100A200090958E0F9F1F0895FC01615070400190BA
:100A30000110D8F7809590958E0F9F1F08950F9302
:100A40001F93CF93DF93FB01238121FD03C08FEF21
:100A50009FEF2CC022FF16C046815781248135812B
:100A60004217530744F4A081B1819D012F5F3F4F8E
:100A7000318320838C93268137812F5F3F4F3783CB
:100A8000268314C08B01EC01FB010084F185E02D6D
:100A90000995892BE1F6D80116968D919C911797AF
:100AA000019617969C938E931697CE01DF91CF9166
:100AB0001F910F910895FA01AA27283051F1203192
:100AC00081F1E8946F936E7F6E5F7F4F8F4F9F4FE2
:100AD000AF4FB1E03ED0B4E03CD0670F781F891F24
:100AE0009A1FA11D680F791F8A1F911DA11D6A0FF2
:100AF000711D811D911DA11D20D009F468943F91A5
:100B00002AE0269F11243019305D3193DEF6CF01A3
:100B10000895462F4770405D4193B3E00FD0C9F769
:100B2000F6CF462F4F70405D4A3318F0495D31FDD6
:100B30004052419302D0A9F7EACFB4E0A695979529
:100B4000879577956795BA95C9F7009761057105FF
:100B500008959B01AC010A2E069457954795379549
:100B60002795BA95C9F7620F731F841F951FA01DA3
:100B700008952F923F924F925F926F927F928F9241
:100B80009F92AF92BF92CF92DF92EF92FF920F931C
:100B90001F93CF93DF93CDB7DEB7CA1BDB0B0FB626
:100BA000F894DEBF0FBECDBF09942A8839884888E3
:100BB0005F846E847D848C849B84AA84B984C88479
:100BC000DF80EE80FD800C811B81AA81B981CE0F70
:100BD000D11D0FB6F894DEBF0FBECDBFED01089555
:040BE000F894FFCFB7
:100BE40049444C453A2000464F52574152443A201A
:100BF400004241434B574152443A20004C4546542D
:100C04005F5455524E3A200052494748545F545558
:100C1400524E3A20005468657265206973206E6FE5
:100C240020737563682044726976654D6F6465004E
:100C34002573204C3A2564207C204D3A2564207C81
:100C440020523A25640A202564207C2025640A0A5F
:020C540000009E
:00000001FF
