:100000000C944C000C9469000C9469000C946900E9
:100010000C9469000C9469000C9469000C946900BC
:100020000C9469000C940B060C9469000C94690004
:100030000C9469000C94FB040C9469000C94690006
:100040000C9469000C9469000C9469000C9469008C
:100050000C9469000C9469000C9469000C9469007C
:100060000C9469000C946900BC02B402B802A102AD
:10007000AB02A602AF023D043D04350439043D0441
:100080003D043D04400440045B045B0464046804D4
:100090005F046C0471046F0411241FBECFEFD8E01D
:1000A000DEBFCDBF11E0A0E0B1E0E2EFF7E102C0BA
:1000B00005900D92A23BB107D9F721E0A2EBB1E088
:1000C00001C01D92AC3EB207E1F70E94FC060C9401
:1000D000F70B0C9400000E947D040E9438030E94DC
:1000E000450467E670E080E090E00E945C030E94B7
:1000F0003A050C943206FB012081222319F041E0DD
:1001000050E002C043E050E00C94220264E070E052
:100110000E944E0481E090E00C9493020F931F9391
:10012000CF93DF938C01EB01CB010E949A06BE01B5
:10013000C8010E947203CE010E94B206882341F0DA
:10014000CE010E94C606811103C045E050E017C0F1
:10015000CE010E94C606882341F0CE010E94B2065D
:10016000811103C048E050E00AC08A81882379F0F9
:10017000CE010E94D006882351F049E050E0BE0134
:10018000C801DF91CF911F910F910C942202DF9152
:10019000CF911F910F91089565E070E00E944E0489
:1001A0008EEF9FEF0C9493020F931F93CF93DF93E7
:1001B0008C01EB01CB010E949A06BE01C8010E948E
:1001C0007203CE010E94BC06882319F044E050E07F
:1001D00007C0CE010E94B20681110AC046E050E07D
:1001E000BE01C801DF91CF911F910F910C942202A3
:1001F000DF91CF911F910F91089568E070E00E9408
:100200004E048DEF9FEF0C9493020F931F93CF93A7
:10021000DF938C01EB01CB010E949A06BE01C8015D
:100220000E947203CE010E94BC06882319F044E0AC
:1002300050E007C0CE010E94C60681110AC047E007
:1002400050E0BE01C801DF91CF911F910F910C9436
:100250002202DF91CF911F910F91089566E070E027
:100260000E944E0482E090E00C9493020F931F933F
:10027000CF93DF938C01EB01CB010E949A06BE0164
:10028000C8010E947203CE010E94B206882319F0B1
:1002900045E050E00FC0CE010E94C606882319F049
:1002A00048E050E007C0CE010E94BC06882351F010
:1002B00044E050E0BE01C801DF91CF911F910F9142
:1002C0000C942202DF91CF911F910F91089567E066
:1002D00070E00E944E0480E090E00C9493020F9333
:1002E0001F93CF93DF938C01EB01CB010E949A0601
:1002F000BE01C8010E947203CE010E94C606882377
:1003000019F048E050E00FC0CE010E94B2068823E9
:1003100019F045E050E007C0CE010E94BC068823DA
:1003200051F044E050E0BE01C801DF91CF911F9130
:100330000F910C942202DF91CF911F910F9108959C
:1003400064E070E00E944E048CEF9FEF0C949302E7
:100350000F931F93CF93DF938C01EB01CB010E948E
:100360009A06BE01C8010E947203CE010E94D00607
:1003700081110AC044E050E0BE01C801DF91CF9175
:100380001F910F910C942202DF91CF911F910F9139
:1003900008950F931F93CF93DF938C01EB01CB0153
:1003A0000E949A06BE01C8010E947203BE01C801E4
:1003B000DF91CF911F910F910C94C602AF92BF9223
:1003C000CF92DF92EF92FF920F931F93CF93DF9321
:1003D0007C01EB015A01690188E090E00E94EC0782
:1003E000FC01892B21F481E090E00E94F70BD1837E
:1003F000C083B382A282D582C48217830683DE01C2
:100400001196AA0FBB1FAE0DBF1DED93FC93CD2B14
:1004100071F4D701ED93FC93CCE0D0E08BE7A82EEC
:1004200081E0B82EC12CD12C00E010E0D5CFDF91B7
:10043000CF911F910F91FF90EF90DF90CF90BF90E1
:10044000AF900895DC01CB01FA013196EE0FFF1F4A
:10045000EA0FFB1F0190F081E02DED93FC930480E7
:10046000F581E02D309709F0099408950F931F93BB
:10047000CF93DF938C010E5F1F4FEC016C96F80158
:10048000808191810E948408F801119211928F015C
:10049000EC17FD07A1F7DF91CF911F910F91089500
:1004A0000F931F93CF93DF93EC018B01E881F981C8
:1004B0000480F581E02DCB010995E881F9818081E7
:1004C00091810C9739F00680F781E02DB801CE01BB
:1004D0000995F3CFCE01DF91CF911F910F910C942D
:1004E000360262E085E290E00C94F004CF93DF9353
:1004F000D82FC0E0CD1764F464E08BE290E00E9456
:10050000F00464E08BE290E00E94F004CF5FF2CF51
:10051000DF91CF91089562E085E290E00E94E404CB
:1005200083E00C947602CF93DF93EC010E948B0260
:10053000FE013496E730F10530F5EC5CFF4F0C948A
:10054000E6070E94710281E00E9476020E94710219
:1005500081E00E9476020E94710281E010C00E9438
:10056000710281E00E9476020E94710282E007C05F
:100570000E94710282E0EDCF0E94710283E0DF9160
:10058000CF910C947602DF91CF9108950F931F9332
:10059000CF93DF938C01EB01CB010E94BC06882333
:1005A000D1F1CE010E94B206882399F0CE010E94BB
:1005B000C606882371F08CEF9FEF0E94930242E001
:1005C00050E0BE01C801DF91CF911F910F910C94B3
:1005D0002202CE010E94B206811108C0CE010E9403
:1005E000C606882319F08DEF9FEF0CC0CE010E9444
:1005F000B206882369F0CE010E94C606811108C0A8
:100600008EEF9FEFDF91CF911F910F910C9493028A
:1006100081E090E0F7CFCE010E94B206811108C0C0
:10062000CE010E94C606882319F080E090E0EACF50
:10063000CE010E94B206882341F0CE010E94C60678
:10064000811103C082E090E0DDCFCE010E94B206AE
:10065000882341F0CE010E94C606882319F08FEF4F
:100660009FEFD0CFDF91CF911F910F910C948B0210
:1006700062E084E290E00E94D90464E08AE290E0C3
:100680000C94D9048091C00087FFFCCF8091C600F4
:1006900008959091C00095FFFCCF8093C600089507
:1006A000CF93DF93EC018991882319F00E944903CD
:1006B000FACFDF91CF9108950F931F93072F182F33
:1006C000292F33270093C5006093C40088E18093ED
:1006D000C1008EE08093C2008FE991E01F910F91DD
:1006E0000C9450039C01FB018181882309F440C0D4
:1006F0008091DA019091DB01AC014F5F5F4F509325
:10070000DB014093DA0164E670E00E94B007892BB8
:1007100079F5D90183851F928F9382851F928F93DC
:1007200081858F9380858F9387818F9386818F9327
:1007300085818F9384818F93ED91FC9183818F9339
:1007400082818F9380E891E09F938F9382EB91E079
:100750009F938F930E940D098DB79EB740960FB659
:10076000F8949EBF0FBE8DBF82EB91E00C945003B6
:100770000895F89415BC85B5836085BD14BC84B517
:10078000836084BD789408958630A1F484B56111A6
:1007900004C08F7384BD5E9808956F3F21F48F73FA
:1007A00084BD5E9A0895806884BD84B58F7B84BDC6
:1007B00067BD0895853099F484B5611104C08F7CBC
:1007C00084BD5D9808956F3F21F48F7C84BD5D9A50
:1007D0000895806284BD84B58F7E84BD68BD089510
:1007E00067E08BE290E00E94D90460E085E290E04F
:1007F0000C94E40460E085E290E00E94D90467E094
:100800008BE290E00C94E40463E085E290E00E94C7
:10081000D90461E085E290E00C94E40461E085E2B3
:1008200090E00E94D90463E085E290E00C94E40437
:1008300067E08BE290E00E94E40460E085E290E0F3
:100840000C94E40463E085E290E00E94E40461E03B
:1008500085E290E00C94E404049789309105A0F4BB
:10086000855C9F4FFC010C94E6070E94FA030C94F0
:1008700004040E94F0030C940E040E94F003F7CFCE
:100880000E9418040C94220408958AB180668AB9E3
:10089000579A84B18B6884B90C94B903CF93DF93D2
:1008A000EC01CB01FB013497E830F105D0F4EC5BAF
:1008B000FF4F0C94E60724E62A8726E903C026E9C1
:1008C0002A8724E62B870DC02BE92A872CEDFACF47
:1008D0002CED2A872BE9F6CF24E62A87F3CF1A8658
:1008E0001B860E942C046A8585E00E94C4036B85E8
:1008F00086E0DF91CF910C94C4031AB814B887B185
:10090000887F87B980E480937C0087E080937A00B9
:1009100080917A00806880937A0080917A00806468
:1009200080937A0080917A0086FDFCCF80917800D8
:1009300090917900089590917C00907E8F71892B21
:1009400080937C0080917A00806480937A0080910B
:100950007A0086FDFCCF809178009091790008950F
:10096000CF92DF92EF92FF921F93CF93DF93182FD6
:10097000D62FC0E0C12CD12C7601CD1749F0812FA4
:100980000E949B04C80ED91EE11CF11CCF5FF5CF5D
:100990002C2F30E040E050E0C701B6010E94C407B0
:1009A000C901DF91CF911F91FF90EF90DF90CF9021
:1009B0000895FC01408121E030E001C0220F6A95DA
:1009C000EAF7242B20830895FC01908121E030E098
:1009D00001C0220F6A95EAF7209529232083089504
:1009E000FC01408121E030E001C0220F6A95EAF766
:1009F0002427208308951F920F920FB60F9211247F
:100A00002F933F938F939F938091E0019091E10109
:100A100001969093E1018093E0018091DE01909135
:100A2000DF0101969093DF018093DE018091E00168
:100A30009091E101489739F41092E1011092E001A0
:100A400081E08093DD012091DE013091DF01809112
:100A5000E6019091E7012817390719F481E08093A6
:100A6000DC019F918F913F912F910F900FBE0F90BE
:100A70001F901895F894E1E8F0E081E08083A0E809
:100A8000B0E08C918C7F8C938081877E808378947A
:100A90000895009729F0019749F488E399E302C08B
:100AA0008EE49EE09093E7018093E6011092E101CD
:100AB0001092E0011092DF011092DE011092DD0130
:100AC0001092DC01F89480916F00816080936F0038
:100AD000109285001092840078940895F894EFE6BF
:100AE000F0E080818E7F8083789408958CEF9FEF73
:100AF0000E94930280E090E00C9449050F931F93AD
:100B0000CF93DF938C01EB01CB010E949A06809179
:100B1000DC01882329F00E946E0543E050E009C003
:100B2000CE010E94D006811108C00E946E0541E0EE
:100B300050E0BE01C8010E9422028091DD0188239D
:100B4000C9F01092DD01809100019091010104969D
:100B500039F48BEF9FEF0E9493028BEF9FEF06C05B
:100B60008CEF9FEF0E9493028CEF9FEF9093010117
:100B700080930001DF91CF911F910F910895CF9342
:100B8000DF93EC016BE070E00E944E0481EA91E09B
:100B90000E94500381E090E00E94490583E08B832E
:100BA000DF91CF9108950F931F93CF93DF93EC01C3
:100BB0008B018091DC01882361F00E946E0543E087
:100BC00050E0B801CE01DF91CF911F910F910C94AD
:100BD00022028091DD018823C9F01092DD0180910D
:100BE000000190910101049639F48BEF9FEF0E9470
:100BF00093028BEF9FEF06C08CEF9FEF0E94930252
:100C00008CEF9FEF9093010180930001DF91CF91D2
:100C10001F910F9108951F920F920FB60F921124FA
:100C20002F938F939F938091E3019091E40101961C
:100C30009093E4018093E3018091E3019091E401BA
:100C40008138994239F481E08093E2011092E40105
:100C50001092E3019F918F912F910F900FBE0F90F3
:100C60001F901895F894E1EBF0E081E08083A0EB11
:100C7000B0E08C918C7F8C938081877F8083789487
:100C800008951092E4011092E3011092E201F894A9
:100C9000E0E7F0E08081816080831092B200789478
:100CA0000895F894E0E7F0E080818E7F8083789467
:100CB000089569E070E00E944E040C9441060F9381
:100CC0001F93CF93DF938C01EB01CB010E949A0617
:100CD000BE01C8010E9472038091E201882369F07D
:100CE0000E9451068B8181508B83811103C04AE0A1
:100CF00050E013C043E050E010C0CE010E94D00687
:100D0000811113C08091E5018F5F8093E5018823F5
:100D100061F00E94510644E050E0BE01C801DF913D
:100D2000CF911F910F910C942202DF91CF911F91CF
:100D30000F910895CF93DF93EC0164E182E00E946C
:100D4000B0049D838C8364E180E00E94B0049987A5
:100D5000888764E181E00E94B0049F838E83DF91E5
:100D6000CF91089521E0FC01848195818115924005
:100D700008F420E0822F089521E0FC01868197810C
:100D80008115924008F420E0822F089521E0FC01B3
:100D9000808591858115924008F420E0822F089586
:100DA000FC01848195818115924070F08681978144
:100DB0008115924048F091E020853185211532401F
:100DC00008F490E0892F089580E00895FC01848163
:100DD00095818115924070F48681978181159240AA
:100DE00048F491E0208531852115324008F090E0EB
:100DF000892F089580E00895EF92FF920F931F933B
:100E0000CF93DF93CDB7DEB7A8970FB6F894DEBFC8
:100E10000FBECDBF7E018DE1E80EF11C8CE0F70125
:100E200011928A95E9F781E08E8F8F8F83E088A3F6
:100E30000BE710E02BE630E048E051E060E070E0C6
:100E4000CE0101960E94DE010EE810E026E830E0B7
:100E50004DE051E064E070E0CE0101960E94DE01B9
:100E600004ED10E02CEC30E045E151E065E070E08D
:100E7000CE0101960E94DE0105E011E02DEF30E089
:100E80004FE151E068E070E0CE0101960E94DE0182
:100E900006E311E02EE231E04AE251E066E070E064
:100EA000CE0101960E94DE010FE611E027E631E057
:100EB00044E351E067E070E0CE0101960E94DE015C
:100EC0000EE715E026E735E04FE351E062E070E021
:100ED000CE0101960E94DE0109EC11E020E030E035
:100EE00049E451E061E070E0CE0101960E94DE012C
:100EF00008EA11E020EA31E048E551E063E070E003
:100F0000CE0101960E94DE010FE516E029E536E0EC
:100F100044E651E069E070E0CE0101960E94DE01F6
:100F200003ED15E02FEB35E04EE651E06AE070E0AE
:100F3000CE0101960E94DE01B701CE0101960E940A
:100F4000500280E090E0A8960FB6F894DEBF0FBE86
:100F5000CDBFDF91CF911F910F91FF90EF9008953A
:100F6000AA1BBB1B51E107C0AA1FBB1FA617B707CF
:100F700010F0A61BB70B881F991F5A95A9F78095EB
:100F80009095BC01CD010895A1E21A2EAA1BBB1BAE
:100F9000FD010DC0AA1FBB1FEE1FFF1FA217B30745
:100FA000E407F50720F0A21BB30BE40BF50B661F5B
:100FB000771F881F991F1A9469F76095709580951F
:100FC00090959B01AC01BD01CF010895EE0FFF1F6D
:100FD0000590F491E02D09940F931F93CF93DF9325
:100FE0008230910510F482E090E0E091EA01F09106
:100FF000EB0120E030E0A0E0B0E0309719F1408153
:1010000051810281138148175907C8F08417950749
:1010100069F4109731F012960C93129713961C9363
:1010200027C00093EA011093EB0122C0211531057E
:1010300019F04217530718F49A01BD01EF01DF01BF
:10104000F801DBCF21153105F9F0281B390B2430CD
:10105000310580F48A819B816115710521F0FB01C6
:101060009383828304C09093EB018093EA01FE0195
:10107000329644C0FE01E20FF31F819391932250F8
:101080003109398328833AC02091E8013091E90180
:10109000232B41F420910401309105013093E901A3
:1010A0002093E801209102013091030121153105BF
:1010B00041F42DB73EB74091060150910701241B22
:1010C000350BE091E801F091E901E217F307A0F494
:1010D0002E1B3F0B2817390778F0AC014E5F5F4F8E
:1010E0002417350748F04E0F5F1F5093E9014093D6
:1010F000E8018193919302C0E0E0F0E0CF01DF913D
:10110000CF911F910F910895CF93DF93009709F42A
:1011100081C0FC01329713821282A091EA01B09142
:10112000EB01109781F420813181820F931F209170
:10113000E8013091E9012817390751F5F093E901E9
:10114000E093E80167C0ED0120E030E0CE17DF0753
:1011500040F44A815B819E0141155105F1F0EA019D
:10116000F5CFD383C28340815181840F951FC81767
:10117000D90759F488819981840F951F029691832C
:1011800080838A819B81938382832115310529F491
:10119000F093EB01E093EA013DC0E901FB83EA83B0
:1011A00049915991C40FD51FEC17FD0761F4808157
:1011B0009181840F951F0296E9019983888382812A
:1011C00093819B838A83E0E0F0E012968D919C915D
:1011D0001397009719F0FD01DC01F7CF8D919C91D9
:1011E00011979D012E5F3F4F820F931F2091E801C1
:1011F0003091E9012817390769F4309729F41092E2
:10120000EB011092EA0102C013821282B093E9014D
:10121000A093E801DF91CF910895AEE0B0E0E3E163
:10122000F9E00C94CE0B0D891E8986E08C831A831D
:1012300009838FEF9FE79E838D83AE01475E5F4FEB
:101240006F89788DCE0101960E942F09EF81F88574
:10125000E00FF11F10822E96E4E00C94EA0BABE055
:10126000B0E0E5E3F9E00C94C00B6C017B018A016E
:10127000FC0117821682838181FFCCC1CE010196C9
:101280003C01F6019381F70193FD859193FF8191D4
:101290007F01882309F4BAC1853239F493FD859121
:1012A00093FF81917F01853229F4B60190E00E947D
:1012B000260BE7CF912C212C312CFFE1F315D8F030
:1012C0008B3279F038F4803279F08332A1F4232D17
:1012D00020611DC08D3261F0803369F4232D2160BF
:1012E00016C0832D8260382EE32DE4603E2E2AC086
:1012F000F32DF8601DC037FC2DC020ED280F2A30DB
:1013000040F08E32B9F436FC81C1232D2064322E98
:1013100019C036FE06C08AE0989E200D1124922E38
:1013200011C0EAE02E9E200D1124222EF32DF06232
:101330003F2E08C08C3621F4832D8068382E02C0E1
:10134000883641F4F70193FD859193FF81917F01E8
:101350008111B3CF982F9F7D9554933028F40C5F63
:101360001F4F9FE399830DC0833631F0833771F0AF
:10137000833509F059C021C0F801808189830E5F4F
:101380001F4F88248394912C530113C02801F2E04D
:101390004F0E511CF801A080B18036FE03C0692DAC
:1013A00070E002C06FEF7FEFC5010E941B0B4C0184
:1013B0008201F32DFF773F2E16C0280122E0420E56
:1013C000511CF801A080B18036FE03C0692D70E089
:1013D00002C06FEF7FEFC5010E94100B4C01F32D8F
:1013E000F0683F2E820133FC1BC0822D90E08816EE
:1013F0009906B0F4B60180E290E00E94260B2A9490
:10140000F4CFF50137FC859137FE81915F01B6017C
:1014100090E00E94260B21102A9421E0821A910864
:101420008114910471F7E8C0843611F0893641F5D2
:10143000F80137FE07C060817181828193810C5F62
:101440001F4F08C060817181072E000C880B990B1B
:101450000E5F1F4FF32DFF763F2E97FF09C090952B
:101460008095709561957F4F8F4F9F4FF0683F2E0D
:101470002AE030E0A3010E94620B882E861845C046
:10148000853731F4232D2F7EB22E2AE030E025C09F
:10149000932D997FB92E8F36C1F018F4883579F0E5
:1014A000B5C0803719F0883721F0B0C0E92FE0616E
:1014B000BE2EB4FE0DC0FB2DF460BF2E09C034FE5D
:1014C0000AC0292F2660B22E06C028E030E005C0F1
:1014D00020E130E002C020E132E0F801B7FE07C0B1
:1014E00060817181828193810C5F1F4F06C0608192
:1014F000718180E090E00E5F1F4FA3010E94620B9C
:10150000882E8618FB2DFF773F2E36FE0DC0232D2B
:101510002E7FA22E891458F434FE0BC032FC09C071
:10152000832D8E7EA82E05C0B82CA32C03C0B82C0A
:1015300001C0B92CA4FE0FC0FE01E80DF11D808191
:10154000803321F49A2D997EA92E09C0A2FE06C0EF
:10155000B394B39404C08A2D867809F0B394A3FCA5
:1015600011C0A0FE06C0B21488F4280C922C9B185F
:101570000EC0B21460F4B60180E290E00E94260B27
:10158000B394F7CFB21418F42B1802C0982C212C66
:10159000A4FE10C0B60180E390E00E94260BA2FEDC
:1015A00017C0A1FC03C088E790E002C088E590E086
:1015B000B6010CC08A2D867859F0A1FE02C08BE2DC
:1015C00001C080E2A7FC8DE2B60190E00E94260BEC
:1015D000891438F4B60180E390E00E94260B9A94B7
:1015E000F7CF8A94F301E80DF11D8081B60190E0F8
:1015F0000E94260B8110F5CF222009F442CEB601BD
:1016000080E290E00E94260B2A94F6CFF6018681B4
:10161000978102C08FEF9FEF2B96E2E10C94DC0BD9
:10162000FC010590615070400110D8F780959095AD
:101630008E0F9F1F0895FC016150704001900110B2
:10164000D8F7809590958E0F9F1F08950F931F9345
:10165000CF93DF93FB01238121FD03C08FEF9FEF29
:101660002CC022FF16C04681578124813581421744
:10167000530744F4A081B1819D012F5F3F4F318317
:1016800020838C93268137812F5F3F4F37832683BA
:1016900014C08B01EC01FB010084F185E02D09955C
:1016A000892BE1F6D80116968D919C91179701969A
:1016B00017969C938E931697CE01DF91CF911F9131
:1016C0000F910895FA01AA27283051F1203181F1B4
:1016D000E8946F936E7F6E5F7F4F8F4F9F4FAF4F3A
:1016E000B1E03ED0B4E03CD0670F781F891F9A1F4D
:1016F000A11D680F791F8A1F911DA11D6A0F711D01
:10170000811D911DA11D20D009F468943F912AE00C
:10171000269F11243019305D3193DEF6CF010895F4
:10172000462F4770405D4193B3E00FD0C9F7F6CF25
:10173000462F4F70405D4A3318F0495D31FD4052ED
:10174000419302D0A9F7EACFB4E0A6959795879583
:1017500077956795BA95C9F7009761057105089562
:101760009B01AC010A2E069457954795379527950E
:10177000BA95C9F7620F731F841F951FA01D0895A6
:101780002F923F924F925F926F927F928F929F9291
:10179000AF92BF92CF92DF92EF92FF920F931F937F
:1017A000CF93DF93CDB7DEB7CA1BDB0B0FB6F89430
:1017B000DEBF0FBECDBF09942A88398848885F8470
:1017C0006E847D848C849B84AA84B984C884DF80E1
:1017D000EE80FD800C811B81AA81B981CE0FD11DC5
:1017E0000FB6F894DEBF0FBECDBFED010895F8949B
:0217F000FFCF29
:1017F200FCFF0000EC012000494E495400464F52C4
:1018020057415244004C4546545F534F4654005290
:10181200494748545F534F4654004C4546545F482D
:101822004152440052494748545F484152440043A0
:101832004F554E54444F574E00434845434B5F5318
:1018420054415254504F53004C454156455F5354F6
:1018520041525400434845434B5F4C415000474F6F
:10186200414C5F5245414348454400457869740004
:101872002573204C3A2564207C204D3A2564207C37
:1018820020523A25640A202564207C2025640A0A15
:10189200000A5941592C2046494E49534845442192
:0218A2000A003A
:00000001FF
