:100000000C943B000C9458000C9458000C9458002D
:100010000C9458000C9458000C9458000C94580000
:100020000C9458000C9458000C9458000C945800F0
:100030000C9458000C9458000C9458000C945800E0
:100040000C9458000C9458000C9458000C945800D0
:100050000C9458000C9458000C9458000C945800C0
:100060000C9458000C94580010020C020802F50180
:100070000302FA01FF0111241FBECFEFD8E0DEBF5B
:10008000CDBF11E0A0E0B1E0E2EEF0E102C00590EA
:100090000D92A434B107D9F721E0A4E4B1E001C086
:1000A0001D92A237B207E1F70E94B7030C946F08C4
:1000B0000C940000CF93DF93EC0164E182E00E9496
:1000C0006C039A83898364E180E00E946C039E83C1
:1000D0008D8364E181E00E946C039C838B83DF91BC
:1000E000CF91089521E0FC01818192818115924098
:1000F0000CF420E0822F089521E0FC01838194819B
:10010000811592400CF420E0822F089521E0FC013B
:1001100085819681811592400CF420E0822F08950C
:100120000E9439030E941A020E940E0367E670E0E3
:1001300080E090E00C943E0242E050E00C947901A3
:1001400062E070E00E94150381E090E00C94E7010A
:100150000F931F93CF93DF938C01EB01CB010E9490
:100160005A00BE01C8010E9454028B819C818115F6
:100170009240D4F429813A818D819E8121153240AB
:1001800034F08115924084F443E050E005C08115BD
:10019000924054F044E050E0BE01C801DF91CF919D
:1001A0001F910F910C947901DF91CF911F910F91C5
:1001B000089563E070E00E94150382E090E00C94E3
:1001C000E7010F931F93CF93DF938C01EB01CB01DA
:1001D0000E945A00BE01C8010E94540289819A817E
:1001E000811592407CF48B819C818115924054F062
:1001F00042E050E0BE01C801DF91CF911F910F9105
:100200000C947901DF91CF911F910F91089564E0D3
:1002100070E00E94150380E090E00C94E7010F93DA
:100220001F93CF93DF938C01EB01CB010E945A0007
:10023000BE01C8010E94540289819A8181159240B1
:100240007CF08D819E818115924054F442E050E013
:10025000BE01C801DF91CF911F910F910C947901DC
:10026000DF91CF911F910F910895AF92BF92CF92DE
:10027000DF92EF92FF920F931F93CF93DF937C0156
:10028000EB015A01690188E090E00E946404FC01DE
:10029000892B21F481E090E00E946F08D183C08314
:1002A000B382A282D582C48217830683DE011196AF
:1002B000AA0FBB1FAE0DBF1DED93FC93CD2B71F4A8
:1002C000D701ED93FC93C6E0D0E08EE1A82E81E04B
:1002D000B82EC12CD12C00E010E0D5CFDF91CF910A
:1002E0001F910F91FF90EF90DF90CF90BF90AF9054
:1002F0000895DC01CB01FA013196EE0FFF1FEA0FE2
:10030000FB1F0190F081E02DED93FC930480F581BB
:10031000E02D09940F931F93CF93DF938C010E5F11
:100320001F4FEC016096F801808191810E94FC04CE
:10033000F801119211928F01EC17FD07A1F7DF91DF
:10034000CF911F910F9108950F931F93CF93DF9338
:10035000EC018B01E881F9810480F581E02DCB016E
:100360000995E881F98180819181069739F00680AD
:10037000F781E02DB801CE010995F3CFCE01DF91D1
:10038000CF911F910F910C948A0162E085E290E079
:100390000C94AC03CF93DF93D82FC0E0CD1764F457
:1003A00064E08BE290E00E94AC0364E08BE290E0BA
:1003B0000E94AC03CF5FF2CFDF91CF91089562E04E
:1003C00085E290E00E94A00383E00C94CA01CF93E1
:1003D000DF93EC010E94DF01FE013496E730F10566
:1003E00030F5EC5CFF4F0C944A040E94C50181E09B
:1003F0000E94CA010E94C50181E00E94CA010E94B8
:10040000C50181E010C00E94C50181E00E94CA01BF
:100410000E94C50182E007C00E94C50182E0EDCFC5
:100420000E94C50183E0DF91CF910C94CA01DF9156
:10043000CF91089562E084E290E00E94950364E029
:100440008AE290E00C9495038091C00087FFFCCF76
:100450008091C60008959091C00095FFFCCF8093D5
:10046000C6000895CF93DF93EC018991882319F09A
:100470000E942B02FACFDF91CF9108950F931F9323
:10048000072F182F292F33270093C5006093C4002E
:1004900088E18093C1008EE08093C20082E491E005
:1004A0001F910F910C9432029C01FB0180818823E3
:1004B00009F440C080916C0190916D01AC014F5FD7
:1004C0005F4F50936D0140936C0166E970E00E94AC
:1004D0001404892B79F5D90180851F928F93878128
:1004E0001F928F9386818F9385818F9384818F93C1
:1004F00083818F9382818F9381818F93ED91FC9182
:1005000083818F9382818F9383E291E09F938F9376
:1005100084E491E09F938F930E9485058DB79EB7E9
:1005200040960FB6F8949EBF0FBE8DBF84E491E055
:100530000C9432020895F89415BC85B5836085BD8E
:1005400014BC84B5836084BD789408958630A1F48A
:1005500084B5611104C08F7384BD5E9808956F3FA8
:1005600021F48F7384BD5E9A0895806884BD84B53C
:100570008F7B84BD67BD0895853099F484B5611182
:1005800004C08F7C84BD5D9808956F3F21F48F7CFB
:1005900084BD5D9A0895806284BD84B58F7E84BDDC
:1005A00068BD089567E08BE290E00E94950360E0EB
:1005B00085E290E00C94A00360E085E290E00E9468
:1005C000950367E08BE290E00C94A00363E085E282
:1005D00090E00E94950361E085E290E00C94A00316
:1005E00061E085E290E00E94950363E085E290E09F
:1005F0000C94A0038330910541F08430910549F0BB
:10060000029759F40E94D20202C00E94DC020C94AC
:10061000E6020E94D2020C94F002089580E68AB9A4
:10062000579A8BE884B90C949B02CF93DF93EC012B
:10063000CB016330710549F06430710551F06230CF
:10064000710559F42CE82F8307C022E82F8322ED8F
:1006500003C022ED2F8322E828870E94FA026F81CF
:1006600085E00E94A602688586E0DF91CF910C9418
:10067000A6021AB814B887B1887F87B980E480933E
:100680007C0087E080937A0080917A008068809374
:100690007A0080917A00806480937A0080917A0059
:1006A00086FDFCCF8091780090917900089590911B
:1006B0007C00907E8F71892B80937C0080917A00E2
:1006C000806480937A0080917A0086FDFCCF8091CF
:1006D0007800909179000895CF92DF92EF92FF9287
:1006E0001F93CF93DF93182FD62FC0E0C12CD12CAE
:1006F0007601CD1749F0812F0E945703C80ED91EED
:10070000E11CF11CCF5FF5CF2C2F30E040E050E032
:10071000C701B6010E942804C901DF91CF911F9142
:10072000FF90EF90DF90CF900895FC01408121E091
:1007300030E001C0220F6A95EAF7242B2083089548
:10074000FC01908121E030E001C0220F6A95EAF7B8
:100750002095292320830895FC01408121E030E089
:1007600001C0220F6A95EAF7242720830895EF92AB
:10077000FF920F931F93CF93DF93CDB7DEB76997A7
:100780000FB6F894DEBF0FBECDBF7E0181E1E80E4B
:10079000F11C89E0F70111928A95E9F781E0898BD4
:1007A0000CE910E020E930E046E051E060E070E064
:1007B000CE0101960E94350108EA10E020EA30E0FF
:1007C0004BE051E062E070E0CE0101960E943501FD
:1007D00001EE10E029ED30E043E151E063E070E02C
:1007E000CE0101960E9435010FE011E027E031E0D3
:1007F00048E151E064E070E0CE0101960E943501CD
:10080000B701CE0101960E94A40180E090E06996B4
:100810000FB6F894DEBF0FBECDBFDF91CF911F9111
:100820000F91FF90EF90089597FB072E16F4009418
:1008300007D077FD09D00E94500407FC05D03EF494
:10084000909581959F4F0895709561957F4F08957C
:10085000A1E21A2EAA1BBB1BFD010DC0AA1FBB1FC4
:10086000EE1FFF1FA217B307E407F50720F0A21B36
:10087000B30BE40BF50B661F771F881F991F1A94A3
:1008800069F760957095809590959B01AC01BD01CD
:10089000CF010895EE0FFF1F0590F491E02D09940C
:1008A000AA1BBB1B51E107C0AA1FBB1FA617B70796
:1008B00010F0A61BB70B881F991F5A95A9F78095B2
:1008C0009095BC01CD0108950F931F93CF93DF93B3
:1008D0008230910510F482E090E0E0917001F09197
:1008E000710120E030E0A0E0B0E0309719F14081E4
:1008F00051810281138148175907C8F08417950761
:1009000069F4109731F012960C93129713961C937A
:1009100027C0009370011093710122C02115310589
:1009200019F04217530718F49A01BD01EF01DF01D6
:10093000F801DBCF21153105F9F0281B390B2430E4
:10094000310580F48A819B816115710521F0FB01DD
:100950009383828304C09093710180937001FE01A0
:10096000329644C0FE01E20FF31F8193919322500F
:100970003109398328833AC020916E0130916F018B
:10098000232B41F4209102013091030130936F0138
:1009900020936E0120910001309101012115310554
:1009A00041F42DB73EB74091040150910501241B3D
:1009B000350BE0916E01F0916F01E217F307A0F49F
:1009C0002E1B3F0B2817390778F0AC014E5F5F4FA5
:1009D0002417350748F04E0F5F1F50936F01409367
:1009E0006E018193919302C0E0E0F0E0CF01DF91CE
:1009F000CF911F910F910895CF93DF93009709F442
:100A000081C0FC01329713821282A0917001B091D3
:100A10007101109781F420813181820F931F209101
:100A20006E0130916F012817390751F5F0936F016E
:100A3000E0936E0167C0ED0120E030E0CE17DF07E4
:100A400040F44A815B819E0141155105F1F0EA01B4
:100A5000F5CFD383C28340815181840F951FC8177E
:100A6000D90759F488819981840F951F0296918343
:100A700080838A819B81938382832115310529F4A8
:100A8000F0937101E09370013DC0E901FB83EA83BB
:100A900049915991C40FD51FEC17FD0761F480816E
:100AA0009181840F951F0296E90199838883828141
:100AB00093819B838A83E0E0F0E012968D919C9174
:100AC0001397009719F0FD01DC01F7CF8D919C91F0
:100AD00011979D012E5F3F4F820F931F20916E0152
:100AE00030916F012817390769F4309729F4109273
:100AF00071011092700102C013821282B0936F01D3
:100B0000A0936E01DF91CF910895AEE0B0E0EBE8E5
:100B1000F5E00C9446080D891E8986E08C831A83C3
:100B200009838FEF9FE79E838D83AE01475E5F4F02
:100B30006F89788DCE0101960E94A705EF81F88517
:100B4000E00FF11F10822E96E4E00C946208ABE0F7
:100B5000B0E0EDEAF5E00C9438086C017B018A0105
:100B6000FC0117821682838181FFCCC1CE010196E0
:100B70003C01F6019381F70193FD859193FF8191EB
:100B80007F01882309F4BAC1853239F493FD859138
:100B900093FF81917F01853229F4B60190E00E9494
:100BA0009E07E7CF912C212C312CFFE1F315D8F0D3
:100BB0008B3279F038F4803279F08332A1F4232D2E
:100BC00020611DC08D3261F0803369F4232D2160D6
:100BD00016C0832D8260382EE32DE4603E2E2AC09D
:100BE000F32DF8601DC037FC2DC020ED280F2A30F2
:100BF00040F08E32B9F436FC81C1232D2064322EB0
:100C000019C036FE06C08AE0989E200D1124922E4F
:100C100011C0EAE02E9E200D1124222EF32DF06249
:100C20003F2E08C08C3621F4832D8068382E02C0F8
:100C3000883641F4F70193FD859193FF81917F01FF
:100C40008111B3CF982F9F7D9554933028F40C5F7A
:100C50001F4F9FE399830DC0833631F0833771F0C6
:100C6000833509F059C021C0F801808189830E5F66
:100C70001F4F88248394912C530113C02801F2E064
:100C80004F0E511CF801A080B18036FE03C0692DC3
:100C900070E002C06FEF7FEFC5010E9493074C0127
:100CA0008201F32DFF773F2E16C0280122E0420E6D
:100CB000511CF801A080B18036FE03C0692D70E0A0
:100CC00002C06FEF7FEFC5010E9488074C01F32D32
:100CD000F0683F2E820133FC1BC0822D90E0881605
:100CE0009906B0F4B60180E290E00E949E072A9433
:100CF000F4CFF50137FC859137FE81915F01B60194
:100D000090E00E949E0721102A9421E0821A910807
:100D10008114910471F7E8C0843611F0893641F5E9
:100D2000F80137FE07C060817181828193810C5F79
:100D30001F4F08C060817181072E000C880B990B32
:100D40000E5F1F4FF32DFF763F2E97FF09C0909542
:100D50008095709561957F4F8F4F9F4FF0683F2E24
:100D60002AE030E0A3010E94DA07882E861845C0E9
:100D7000853731F4232D2F7EB22E2AE030E025C0B6
:100D8000932D997FB92E8F36C1F018F4883579F0FC
:100D9000B5C0803719F0883721F0B0C0E92FE06185
:100DA000BE2EB4FE0DC0FB2DF460BF2E09C034FE74
:100DB0000AC0292F2660B22E06C028E030E005C008
:100DC00020E130E002C020E132E0F801B7FE07C0C8
:100DD00060817181828193810C5F1F4F06C06081A9
:100DE000718180E090E00E5F1F4FA3010E94DA073F
:100DF000882E8618FB2DFF773F2E36FE0DC0232D43
:100E00002E7FA22E891458F434FE0BC032FC09C088
:100E1000832D8E7EA82E05C0B82CA32C03C0B82C21
:100E200001C0B92CA4FE0FC0FE01E80DF11D8081A8
:100E3000803321F49A2D997EA92E09C0A2FE06C006
:100E4000B394B39404C08A2D867809F0B394A3FCBC
:100E500011C0A0FE06C0B21488F4280C922C9B1876
:100E60000EC0B21460F4B60180E290E00E949E07CA
:100E7000B394F7CFB21418F42B1802C0982C212C7D
:100E8000A4FE10C0B60180E390E00E949E07A2FE7F
:100E900017C0A1FC03C088E790E002C088E590E09D
:100EA000B6010CC08A2D867859F0A1FE02C08BE2F3
:100EB00001C080E2A7FC8DE2B60190E00E949E078F
:100EC000891438F4B60180E390E00E949E079A945A
:100ED000F7CF8A94F301E80DF11D8081B60190E00F
:100EE0000E949E078110F5CF222009F442CEB60160
:100EF00080E290E00E949E072A94F6CFF601868158
:100F0000978102C08FEF9FEF2B96E2E10C9454087B
:100F1000FC010590615070400110D8F780959095C4
:100F20008E0F9F1F0895FC016150704001900110C9
:100F3000D8F7809590958E0F9F1F08950F931F935C
:100F4000CF93DF93FB01238121FD03C08FEF9FEF40
:100F50002CC022FF16C0468157812481358142175B
:100F6000530744F4A081B1819D012F5F3F4F31832E
:100F700020838C93268137812F5F3F4F37832683D1
:100F800014C08B01EC01FB010084F185E02D099573
:100F9000892BE1F6D80116968D919C9117970196B1
:100FA00017969C938E931697CE01DF91CF911F9148
:100FB0000F910895FA01AA27283051F1203181F1CB
:100FC000E8946F936E7F6E5F7F4F8F4F9F4FAF4F51
:100FD000B1E03ED0B4E03CD0670F781F891F9A1F64
:100FE000A11D680F791F8A1F911DA11D6A0F711D18
:100FF000811D911DA11D20D009F468943F912AE024
:10100000269F11243019305D3193DEF6CF0108950B
:10101000462F4770405D4193B3E00FD0C9F7F6CF3C
:10102000462F4F70405D4A3318F0495D31FD405204
:10103000419302D0A9F7EACFB4E0A695979587959A
:1010400077956795BA95C9F7009761057105089579
:101050009B01AC010A2E0694579547953795279525
:10106000BA95C9F7620F731F841F951FA01D0895BD
:101070002F923F924F925F926F927F928F929F92A8
:10108000AF92BF92CF92DF92EF92FF920F931F9396
:10109000CF93DF93CDB7DEB7CA1BDB0B0FB6F89447
:1010A000DEBF0FBECDBF09942A88398848885F8487
:1010B0006E847D848C849B84AA84B984C884DF80F8
:1010C000EE80FD800C811B81AA81B981CE0FD11DDC
:1010D0000FB6F894DEBF0FBECDBFED010895F894B2
:0210E000FFCF40
:1010E200000072012000496E697400466F727761D8
:1010F2007264004C656674005269676874004578D2
:101102006974002573204C3A2564207C204D3A25D1
:1011120064207C20523A25640A202564207C202504
:04112200640A0A0051
:00000001FF
