:100000000C943B000C9458000C9458000C9458002D
:100010000C9458000C9458000C9458000C94580000
:100020000C9458000C9458000C9458000C945800F0
:100030000C9458000C9458000C9458000C945800E0
:100040000C9458000C9458000C9458000C945800D0
:100050000C9458000C9458000C9458000C945800C0
:100060000C9458000C945800F901F501F101EC01D1
:10007000E701DE01E30111241FBECFEFD8E0DEBFB0
:10008000CDBF11E0A0E0B1E0E0E5F0E102C00590F5
:100090000D92A434B107D9F721E0A4E4B1E001C086
:1000A0001D92A037B207E1F70E9496030C94260830
:1000B0000C9400000E941A030E9403020E94ED02A9
:1000C00067E670E080E090E00C94270242E050E0A8
:1000D0000C946201CF93DF93EC0162E070E00E9428
:1000E000F6028D819E818115924044F089819A812A
:1000F000811592401CF08FEF9FEF02C081E090E0ED
:10010000DF91CF910C94D0010F931F93CF93DF9386
:100110008C01EB0164E182E00E944B039A838983A6
:1001200064E180E00E944B039E838D8364E181E063
:100130000E944B039C838B8381159240BCF42981E0
:100140003A818D819E81211532403CF0811522E05B
:1001500092071CF443E050E005C08115924034F052
:1001600044E050E0BE01C8010E946201BE01C80126
:10017000DF91CF911F910F910C943D0263E070E0ED
:100180000E94F60282E090E00C94D0010F931F933E
:10019000CF93DF938C01EB0164E182E00E944B037B
:1001A0009A83898364E181E00E944B039C838B8363
:1001B00029813A81211532401CF08115924034F09A
:1001C00042E050E0BE01C8010E946201BE01C801C8
:1001D000DF91CF911F910F910C943D0264E070E08C
:1001E0000E94F60280E090E00C94D0010F931F93E0
:1001F000CF93DF938C01EB0164E180E00E944B031D
:100200009E838D8364E181E00E944B039C838B83FA
:10021000811592402CF48D819E818115924034F499
:1002200042E050E0BE01C8010E946201BE01C80167
:10023000DF91CF911F910F910C943D02AF92BF922D
:10024000CF92DF92EF92FF920F931F93CF93DF93A2
:100250007C01EB015A01690188E090E00E941B04D7
:10026000FC01892B21F481E090E00E942608D183D3
:10027000C083B382A282D582C48217830683DE0143
:100280001196AA0FBB1FAE0DBF1DED93FC93CD2B96
:1002900071F4D701ED93FC93C6E0D0E08EE1A82E77
:1002A00081E0B82EC12CD12C00E010E0D5CFDF9139
:1002B000CF911F910F91FF90EF90DF90CF90BF9063
:1002C000AF900895DC01CB01FA013196EE0FFF1FCC
:1002D000EA0FFB1F0190F081E02DED93FC93048069
:1002E000F581E02D09940F931F93CF93DF938C0139
:1002F0000E5F1F4FEC016096F801808191810E9492
:10030000B304F801119211928F01EC17FD07A1F7C8
:10031000DF91CF911F910F9108950F931F93CF936A
:10032000DF93EC018B01E881F9810480F581E02DF8
:10033000CB010995E881F98180819181069739F097
:100340000680F781E02DB801CE010995F3CFCE01EB
:10035000DF91CF911F910F910C94730162E085E2C0
:1003600090E00C948B03CF93DF93D82FC0E0CD1790
:1003700064F464E08BE290E00E948B0364E08BE223
:1003800090E00E948B03CF5FF2CFDF91CF91089571
:1003900062E085E290E00E947F0383E00C94B30169
:1003A000CF93DF93EC010E94C801FE013496E73041
:1003B000F10530F5EC5CFF4F0C9415040E94AE0182
:1003C00081E00E94B3010E94AE0181E015C081E08E
:1003D00090E00E94D001F9CF81E090E00E94D0012E
:1003E000F2CF0E94AE0182E007C00E94AE0182E01F
:1003F000E8CF0E94AE0183E0DF91CF910C94B3016E
:10040000DF91CF91089562E084E290E00E9474034E
:1004100064E08AE290E00C9474038091C00087FF4E
:10042000FCCF8091C60008959091C00095FFFCCF4D
:100430008093C6000895CF93DF93EC0189918823C0
:1004400019F00E941402FACFDF91CF9108950F9313
:100450001F93072F182F292F33270093C500609370
:10046000C40088E18093C1008EE08093C20082E4E2
:1004700091E01F910F910C941B02FB01208122231C
:10048000C1F1DC0120851F922F9327811F922F93AA
:1004900026812F9325812F9324812F9323812F93BE
:1004A00022812F9321812F93ED91FC9183818F9352
:1004B00082818F9383E291E09F938F9384E491E014
:1004C0009F938F930E943C0584E491E00E941B025D
:1004D000FFEF26E181E1F15020408040E1F700C0CC
:1004E0000000EDB7FEB770960FB6F894FEBF0FBED2
:1004F000EDBF0895F89415BC85B5836085BD14BC27
:1005000084B5836084BD789408958630A1F484B561
:10051000611104C08F7384BD5E9808956F3F21F40C
:100520008F7384BD5E9A0895806884BD84B58F7B87
:1005300084BD67BD0895853099F484B5611104C008
:100540008F7C84BD5D9808956F3F21F48F7C84BDBE
:100550005D9A0895806284BD84B58F7E84BD68BD38
:10056000089567E08BE290E00E94740360E085E20A
:1005700090E00C947F0360E085E290E00E947403B9
:1005800067E08BE290E00C947F0363E085E290E00B
:100590000E94740361E085E290E00C947F0361E0C7
:1005A00085E290E00E94740363E085E290E00C94A1
:1005B0007F038330910541F08430910549F0029723
:1005C00059F40E94B10202C00E94BB020C94C50201
:1005D0000E94B1020C94CF0208951AB814B880E6B4
:1005E0008AB9579A8BE884B90C947A02CF93DF9337
:1005F000EC01CB016330710549F06430710551F0B5
:100600006230710559F42AEA2F8307C022E82F834C
:1006100022ED03C022ED2F8322E828870E94D90211
:100620006F8185E00E948502688586E0DF91CF9129
:100630000C94850287B1887F87B980E480937C0021
:1006400087E080937A0080917A00806880937A00B6
:1006500080917A00806480937A0080917A0086FD90
:10066000FCCF8091780090917900089590917C0062
:10067000907E8F71892B80937C0080917A008064BA
:1006800080937A0080917A0086FDFCCF809178007B
:10069000909179000895CF92DF92EF92FF921F938D
:1006A000CF93DF93182FD62FC0E0C12CD12C760129
:1006B000CD1749F0812F0E943603C80ED91EE11CC8
:1006C000F11CCF5FF5CF2C2F30E040E050E0C701A8
:1006D000B6010E94F303C901DF91CF911F91FF90F2
:1006E000EF90DF90CF900895FC01408121E030E051
:1006F00001C0220F6A95EAF7242B20830895FC019C
:10070000908121E030E001C0220F6A95EAF7209540
:10071000292320830895FC01408121E030E001C0BD
:10072000220F6A95EAF7242720830895EF92FF921B
:100730000F931F93CF93DF93CDB7DEB769970FB6B3
:10074000F894DEBF0FBECDBF7E0181E1E80EF11C43
:1007500089E0F70111928A95E9F781E0898B06E635
:1007600010E02AE530E046E051E060E070E0CE01C4
:1007700001960E941E0104E810E02AE630E04BE0FA
:1007800051E062E070E0CE0101960E941E0106EC8D
:1007900010E02EEB30E043E151E063E070E0CE0189
:1007A00001960E941E0106EF10E02EEE30E048E1B7
:1007B00051E064E070E0CE0101960E941E01B70195
:1007C000CE0101960E948D0180E090E069960FB6FF
:1007D000F894DEBF0FBECDBFDF91CF911F910F9177
:1007E000FF90EF900895A1E21A2EAA1BBB1BFD01FA
:1007F0000DC0AA1FBB1FEE1FFF1FA217B307E40700
:10080000F50720F0A21BB30BE40BF50B661F771F57
:10081000881F991F1A9469F7609570958095909537
:100820009B01AC01BD01CF010895EE0FFF1F0590A4
:10083000F491E02D09940F931F93CF93DF938230AF
:10084000910510F482E090E0E0916E01F0916F016B
:1008500020E030E0A0E0B0E0309719F14081518114
:100860000281138148175907C8F08417950769F466
:10087000109731F012960C93129713961C9327C081
:1008800000936E0110936F0122C02115310519F0FC
:100890004217530718F49A01BD01EF01DF01F80177
:1008A000DBCF21153105F9F0281B390B2430310538
:1008B00080F48A819B816115710521F0FB0193838E
:1008C000828304C090936F0180936E01FE01329683
:1008D00044C0FE01E20FF31F81939193225031092E
:1008E000398328833AC020916C0130916D01232B0C
:1008F00041F4209102013091030130936D01209366
:100900006C0120910001309101012115310541F464
:100910002DB73EB74091040150910501241B350BC2
:10092000E0916C01F0916D01E217F307A0F42E1B2A
:100930003F0B2817390778F0AC014E5F5F4F241743
:10094000350748F04E0F5F1F50936D0140936C01C7
:100950008193919302C0E0E0F0E0CF01DF91CF916D
:100960001F910F910895CF93DF93009709F481C0F1
:10097000FC01329713821282A0916E01B0916F0137
:10098000109781F420813181820F931F20916C0197
:1009900030916D012817390751F5F0936D01E093FF
:1009A0006C0167C0ED0120E030E0CE17DF0740F4B6
:1009B0004A815B819E0141155105F1F0EA01F5CFB5
:1009C000D383C28340815181840F951FC817D907F3
:1009D00059F488819981840F951F029691838083B1
:1009E0008A819B81938382832115310529F4F093B9
:1009F0006F01E0936E013DC0E901FB83EA834991F9
:100A00005991C40FD51FEC17FD0761F480819181C6
:100A1000840F951F0296E9019983888382819381CF
:100A20009B838A83E0E0F0E012968D919C9113976E
:100A3000009719F0FD01DC01F7CF8D919C91119782
:100A40009D012E5F3F4F820F931F20916C013091CB
:100A50006D012817390769F4309729F410926F0156
:100A600010926E0102C013821282B0936D01A093A6
:100A70006C01DF91CF910895AEE0B0E0E2E4F5E0E3
:100A80000C94FD070D891E8986E08C831A830983E7
:100A90008FEF9FE79E838D83AE01475E5F4F6F8927
:100AA000788DCE0101960E945E05EF81F885E00FFA
:100AB000F11F10822E96E4E00C941908ABE0B0E030
:100AC000E4E6F5E00C94EF076C017B018A01FC0180
:100AD00017821682838181FFCCC1CE0101963C0131
:100AE000F6019381F70193FD859193FF81917F0139
:100AF000882309F4BAC1853239F493FD859193FFB7
:100B000081917F01853229F4B60190E00E9455075A
:100B1000E7CF912C212C312CFFE1F315D8F08B324B
:100B200079F038F4803279F08332A1F4232D2061FA
:100B30001DC08D3261F0803369F4232D216016C011
:100B4000832D8260382EE32DE4603E2E2AC0F32DE3
:100B5000F8601DC037FC2DC020ED280F2A3040F072
:100B60008E32B9F436FC81C1232D2064322E19C097
:100B700036FE06C08AE0989E200D1124922E11C0E8
:100B8000EAE02E9E200D1124222EF32DF0623F2E3E
:100B900008C08C3621F4832D8068382E02C0883638
:100BA00041F4F70193FD859193FF81917F018111BC
:100BB000B3CF982F9F7D9554933028F40C5F1F4F2F
:100BC0009FE399830DC0833631F0833771F083350D
:100BD00009F059C021C0F801808189830E5F1F4F41
:100BE00088248394912C530113C02801F2E04F0E06
:100BF000511CF801A080B18036FE03C0692D70E061
:100C000002C06FEF7FEFC5010E944A074C018201CD
:100C1000F32DFF773F2E16C0280122E0420E511C13
:100C2000F801A080B18036FE03C0692D70E002C0DB
:100C30006FEF7FEFC5010E943F074C01F32DF06875
:100C40003F2E820133FC1BC0822D90E0881699064E
:100C5000B0F4B60180E290E00E9455072A94F4CFE8
:100C6000F50137FC859137FE81915F01B60190E077
:100C70000E94550721102A9421E0821A91088114BC
:100C8000910471F7E8C0843611F0893641F5F80116
:100C900037FE07C060817181828193810C5F1F4F95
:100CA00008C060817181072E000C880B990B0E5FC4
:100CB0001F4FF32DFF763F2E97FF09C0909580952B
:100CC000709561957F4F8F4F9F4FF0683F2E2AE0C0
:100CD00030E0A3010E949107882E861845C0853711
:100CE00031F4232D2F7EB22E2AE030E025C0932D43
:100CF000997FB92E8F36C1F018F4883579F0B5C0D8
:100D0000803719F0883721F0B0C0E92FE061BE2E9E
:100D1000B4FE0DC0FB2DF460BF2E09C034FE0AC026
:100D2000292F2660B22E06C028E030E005C020E161
:100D300030E002C020E132E0F801B7FE07C0608178
:100D40007181828193810C5F1F4F06C06081718128
:100D500080E090E00E5F1F4FA3010E949107882E54
:100D60008618FB2DFF773F2E36FE0DC0232D2E7FDC
:100D7000A22E891458F434FE0BC032FC09C0832D16
:100D80008E7EA82E05C0B82CA32C03C0B82C01C0A1
:100D9000B92CA4FE0FC0FE01E80DF11D8081803347
:100DA00021F49A2D997EA92E09C0A2FE06C0B39403
:100DB000B39404C08A2D867809F0B394A3FC11C0C3
:100DC000A0FE06C0B21488F4280C922C9B180EC00A
:100DD000B21460F4B60180E290E00E945507B3942B
:100DE000F7CFB21418F42B1802C0982C212CA4FEB3
:100DF00010C0B60180E390E00E945507A2FE17C024
:100E0000A1FC03C088E790E002C088E590E0B6014D
:100E10000CC08A2D867859F0A1FE02C08BE201C079
:100E200080E2A7FC8DE2B60190E00E94550789148C
:100E300038F4B60180E390E00E9455079A94F7CF0A
:100E40008A94F301E80DF11D8081B60190E00E94C3
:100E500055078110F5CF222009F442CEB60180E279
:100E600090E00E9455072A94F6CFF601868197817B
:100E700002C08FEF9FEF2B96E2E10C940B08FC0170
:100E80000590615070400110D8F7809590958E0FB5
:100E90009F1F0895FC016150704001900110D8F728
:100EA000809590958E0F9F1F08950F931F93CF935A
:100EB000DF93FB01238121FD03C08FEF9FEF2CC047
:100EC00022FF16C04681578124813581421753077E
:100ED00044F4A081B1819D012F5F3F4F3183208376
:100EE0008C93268137812F5F3F4F3783268314C031
:100EF0008B01EC01FB010084F185E02D0995892B24
:100F0000E1F6D80116968D919C9117970196179648
:100F10009C938E931697CE01DF91CF911F910F91E5
:100F20000895FA01AA27283051F1203181F1E8947F
:100F30006F936E7F6E5F7F4F8F4F9F4FAF4FB1E0CC
:100F40003ED0B4E03CD0670F781F891F9A1FA11DC7
:100F5000680F791F8A1F911DA11D6A0F711D811DC8
:100F6000911DA11D20D009F468943F912AE0269F8D
:100F700011243019305D3193DEF6CF010895462FEC
:100F80004770405D4193B3E00FD0C9F7F6CF462FCD
:100F90004F70405D4A3318F0495D31FD4052419336
:100FA00002D0A9F7EACFB4E0A695979587957795F3
:100FB0006795BA95C9F700976105710508959B017A
:100FC000AC010A2E06945795479537952795BA9503
:100FD000C9F7620F731F841F951FA01D08952F92DC
:100FE0003F924F925F926F927F928F929F92AF92B9
:100FF000BF92CF92DF92EF92FF920F931F93CF9306
:10100000DF93CDB7DEB7CA1BDB0B0FB6F894DEBF9C
:101010000FBECDBF09942A88398848885F846E84C2
:101020007D848C849B84AA84B984C884DF80EE800C
:10103000FD800C811B81AA81B981CE0FD11D0FB615
:10104000F894DEBF0FBECDBFED010895F894FFCF39
:10105000000070012000496E697400466F7277616C
:101060007264004C65667400526967687400457864
:101070006974002573204C3A2564207C204D3A2564
:1010800064207C20523A25640A202564207C202597
:04109000640A0A00E4
:00000001FF
