:100000000C944C000C9469000C9469000C946900E9
:100010000C9469000C9469000C9469000C946900BC
:100020000C9469000C948F020C9469000C94690084
:100030000C9469000C944A060C9469000C946900B5
:100040000C9469000C9469000C9469000C9469008C
:100050000C9469000C9469000C9469000C9469007C
:100060000C9469000C9469000C0404040804F10366
:10007000FB03F603FF038D058D05850589058D05B9
:100080008D058D0590059005B105B305AB05AF0550
:10009000B705BB05C005BD0511241FBECFEFD8E0D5
:1000A000DEBFCDBF11E0A0E0B1E0EAE7F8E102C0B9
:1000B00005900D92A63BB107D9F721E0A6EBB1E080
:1000C00001C01D92AE3EB207E1F70E9445070C94B5
:1000D0003B0C0C940000CF93DF93EC0164E182E0D1
:1000E0000E94FF059C838B8364E180E00E94FF05F2
:1000F00098878F8364E181E00E94FF059E838D8352
:10010000DF91CF91089521E0FC01838194818115D5
:10011000924008F420E0822F089521E0FC018581BF
:1001200096818115924008F420E0822F089521E005
:10013000FC01878190858115924008F420E0822F90
:100140000895FC01838194818115924070F085812E
:1001500096818115924048F091E0278130852115E4
:10016000324008F490E0892F089580E00895FB0163
:100170002081222319F041E050E002C043E050E02A
:100180000C94720364E070E00E949E0581E090E0B0
:100190000C94E3030F931F93CF93DF938C01EB0138
:1001A000CB010E946B00BE01C8010E94C204CE01B7
:1001B0000E949700882341F0CE010E9483008111A4
:1001C00003C048E050E01EC0CE010E948300882397
:1001D00041F0CE010E949700811103C045E050E03C
:1001E00011C0CE010E9483008823A1F0CE010E949D
:1001F0008D00882379F0CE010E949700882351F06A
:1002000049E050E0BE01C801DF91CF911F910F91ED
:100210000C947203DF91CF911F910F91089565E0C7
:1002200070E00E949E058EEF9FEF0C94E3030F9306
:100230001F93CF93DF938C01EB01CB010E946B00E6
:10024000BE01C8010E94C204CE010E948300811138
:100250000DC0CE010E948D00811108C0CE010E9408
:100260009700811103C046E050E01CC0CE010E94FF
:100270008300882329F0CE010E948D00882399F302
:10028000CE010E948300882331F0CE010E949700A6
:10029000811106C00FC0CE010E948D008823A9F3F2
:1002A00044E050E0BE01C801DF91CF911F910F9152
:1002B0000C947203DF91CF911F910F91089568E024
:1002C00070E00E949E058DEF9FEF0C94E3030F9367
:1002D0001F93CF93DF938C01EB01CB010E946B0046
:1002E000BE01C8010E94C204CE010E948300811198
:1002F0000DC0CE010E948D00811108C0CE010E9468
:100300009700811103C047E050E01CC0CE010E945D
:100310009700882329F0CE010E948D00882399F34D
:10032000CE010E949700882331F0CE010E94830005
:10033000811106C00FC0CE010E948D008823A9F351
:1003400044E050E0BE01C801DF91CF911F910F91B1
:100350000C947203DF91CF911F910F91089566E085
:1003600070E00E949E0582E090E00C94E3030F93FE
:100370001F93CF93DF938C01EB01CB010E946B00A5
:10038000BE01C8010E94C204CE010E9483008823DE
:1003900031F0CE010E94830081110CC013C0CE0148
:1003A0000E948D008111F5CFCE010E94970081112E
:1003B000F0CF21C0CE010E948D00882319F045E0C6
:1003C00050E007C0CE010E94830081110AC048E0BE
:1003D00050E0BE01C801DF91CF911F910F910C94A5
:1003E0007203CE010E948D008111F1CFCE010E94D7
:1003F00097008111ECCFDF91CF911F910F9108955C
:1004000067E070E00E949E0580E090E00C94E303BA
:100410000F931F93CF93DF938C01EB01CB010E94CD
:100420006B00BE01C8010E94C204CE010E9483007D
:10043000882331F0CE010E94970081110CC013C0B7
:10044000CE010E948D008111F5CFCE010E94970050
:100450008111F0CF21C0CE010E948D00882319F0B8
:1004600048E050E007C0CE010E948300882351F08D
:1004700045E050E0BE01C801DF91CF911F910F917F
:100480000C947203CE010E948D008111F1CFCE0138
:100490000E949700882361F3DF91CF911F910F9104
:1004A000089564E070E00E949E058CEF9FEF0C942D
:1004B000E3030F931F93CF93DF938C01EB01CB01E9
:1004C0000E946B00BE01C8010E94C204CE010E94BE
:1004D000A10081110AC044E050E0BE01C801DF91D3
:1004E000CF911F910F910C947203DF91CF911F91C7
:1004F0000F9108950F931F93CF93DF938C01EB011E
:10050000CB010E946B00BE01C8010E94C204BE0163
:10051000C801DF91CF911F910F910C9416041F9287
:100520000F920FB60F9211242F938F939F93809168
:10053000B7019091B80101969093B8018093B701EB
:100540008091B7019091B801843D904339F481E0E6
:100550008093B6011092B8011092B7019F918F91CC
:100560002F910F900FBE0F901F901895F894E1EB0C
:10057000F0E081E08083A0EBB0E08C918C7F8C93E5
:100580008081877F8083789408950E94CC050E94A3
:1005900088040E94950567E670E080E090E00E9484
:1005A000AC040E9483060C94B6021092B80110921B
:1005B000B7011092B601F894E0E7F0E08081816025
:1005C00080831092B20078940895F894E0E7F0E008
:1005D00080818E7F80837894089569E070E00E9426
:1005E0009E050C94D5020F931F93CF93DF938C013C
:1005F000EB01CB010E946B00BE01C8010E94C20446
:100600008091B601882369F00E94E5028A818F5F9C
:100610008A83823018F04AE050E013C043E050E093
:1006200010C0CE010E94A100811113C08091B901B8
:100630008F5F8093B901833060F00E94E50244E04F
:1006400050E0BE01C801DF91CF911F910F910C9432
:100650007203DF91CF911F910F910895AF92BF92D6
:10066000CF92DF92EF92FF920F931F93CF93DF937E
:100670007C01EB015A01690188E090E00E9430089A
:10068000FC01892B21F481E090E00E943B0CD18396
:10069000C083B382A282D582C48217830683DE011F
:1006A0001196AA0FBB1FAE0DBF1DED93FC93CD2B72
:1006B00071F4D701ED93FC93CCE0D0E08BE7A82E4A
:1006C00081E0B82EC12CD12C00E010E0D5CFDF9115
:1006D000CF911F910F91FF90EF90DF90CF90BF903F
:1006E000AF900895DC01CB01FA013196EE0FFF1FA8
:1006F000EA0FFB1F0190F081E02DED93FC93048045
:10070000F581E02D309709F0099408950F931F9318
:10071000CF93DF938C010E5F1F4FEC016C96F801B5
:10072000808191810E94C808F801119211928F0175
:10073000EC17FD07A1F7DF91CF911F910F9108955D
:100740000F931F93CF93DF93EC018B01E881F98125
:100750000480F581E02DCB010995E881F981808144
:1007600091810C9739F00680F781E02DB801CE0118
:100770000995F3CFCE01DF91CF911F910F910C948A
:10078000860362E085E290E00C943F06CF93DF930E
:10079000D82FC0E0CD1764F464E08BE290E00E94B3
:1007A0003F0664E08BE290E00E943F06CF5FF2CF0D
:1007B000DF91CF91089562E085E290E00E943306D8
:1007C00083E00C94C603CF93DF93EC010E94DB031C
:1007D000FE013496E730F10530F5EC5CFF4F0C94E8
:1007E0002A080E94C10381E00E94C6030E94C1033F
:1007F00081E00E94C6030E94C10381E010C00E94F4
:10080000C10381E00E94C6030E94C10382E007C0C9
:100810000E94C10382E0EDCF0E94C10383E0DF911B
:10082000CF910C94C603DF91CF9108950F931F933E
:10083000CF93DF938C01EB01CB010E948D008823C5
:10084000D1F1CE010E948300882399F0CE010E944D
:100850009700882371F08CEF9FEF0E94E30342E042
:1008600050E0BE01C801DF91CF911F910F910C9410
:100870007203CE010E948300811108C0CE010E9444
:100880009700882319F08DEF9FEF0CC0CE010E94D6
:100890008300882369F0CE010E949700811108C06F
:1008A0008EEF9FEFDF91CF911F910F910C94E30397
:1008B00081E090E0F7CFCE010E948300811108C053
:1008C000CE010E949700882319F080E090E0EACFE3
:1008D000CE010E948300882341F0CE010E94970040
:1008E000811103C082E090E0DDCFCE010E94830041
:1008F000882341F0CE010E949700882319F08FEFE2
:100900009FEFD0CFDF91CF911F910F910C94DB031C
:1009100062E084E290E00E94280664E08AE290E0CF
:100920000C9428068091C00087FFFCCF8091C60000
:1009300008959091C00095FFFCCF8093C600089564
:10094000CF93DF93EC018991882319F00E949904D9
:10095000FACFDF91CF9108950F931F93072F182F90
:10096000292F33270093C5006093C40088E180934A
:10097000C1008EE08093C2008FE991E01F910F913A
:100980000C94A0049C01FB018181882309F440C0E0
:100990008091E2019091E301AC014F5F5F4F509372
:1009A000E3014093E20164E670E00E94F407892BC2
:1009B00079F5D90182851F928F9381851F928F933C
:1009C00080858F9387818F9386818F9385818F9385
:1009D00084818F9383818F93ED91FC9183818F9399
:1009E00082818F9380E891E09F938F938AEB91E0CF
:1009F0009F938F930E9451098DB79EB740960FB673
:100A0000F8949EBF0FBE8DBF8AEB91E00C94A004BA
:100A10000895F89415BC85B5836085BD14BC84B574
:100A2000836084BD789408958630A1F484B5611103
:100A300004C08F7384BD5E9808956F3F21F48F7357
:100A400084BD5E9A0895806884BD84B58F7B84BD23
:100A500067BD0895853099F484B5611104C08F7C19
:100A600084BD5D9808956F3F21F48F7C84BD5D9AAD
:100A70000895806284BD84B58F7E84BD68BD08956D
:100A800067E08BE290E00E94280660E085E290E05B
:100A90000C94330660E085E290E00E94280667E04F
:100AA0008BE290E00C94330663E085E290E00E94D4
:100AB000280661E085E290E00C94330661E085E26F
:100AC00090E00E94280663E085E290E00C943306F3
:100AD00067E08BE290E00E94330660E085E290E000
:100AE0000C94330663E085E290E00E94330661E0F7
:100AF00085E290E00C943306049789309105A0F4C8
:100B0000855C9F4FFC010C942A080E944A050C94B6
:100B100054050E9440050C945E050E944005F7CFE5
:100B20000E9468050C94720508958AB180668AB99E
:100B3000579A84B18B6884B90C940905CF93DF93DD
:100B4000EC01CB01FB013497E830F105C8F4EC5B14
:100B5000FF4F0C942A082CE8298724EB10C024EBC3
:100B600007C026E90BC02CE8298726E908C026E93A
:100B700029872CE804C02CE801C024E129872A87B2
:100B80000E947C05698585E00E9414056A8586E0DF
:100B9000DF91CF910C9414051AB814B887B1887FEF
:100BA00087B980E480937C0087E080937A0080910D
:100BB0007A00806880937A0080917A0080648093C4
:100BC0007A0080917A0086FDFCCF80917800909128
:100BD0007900089590917C00907E8F71892B80938D
:100BE0007C0080917A00806480937A0080917A0002
:100BF00086FDFCCF80917800909179000895CF9286
:100C0000DF92EF92FF921F93CF93DF93182FD62F8F
:100C1000C0E0C12CD12C7601CD1749F0812F0E9464
:100C2000EA05C80ED91EE11CF11CCF5FF5CF2C2FB1
:100C300030E040E050E0C701B6010E940808C90159
:100C4000DF91CF911F91FF90EF90DF90CF900895AB
:100C5000FC01408121E030E001C0220F6A95EAF7F3
:100C6000242B20830895FC01908121E030E001C015
:100C7000220F6A95EAF72095292320830895FC0125
:100C8000408121E030E001C0220F6A95EAF7242775
:100C9000208308951F920F920FB60F9211242F9365
:100CA0008F939F938091E8019091E9010196909331
:100CB000E9018093E8018091E6019091E7010196B6
:100CC0009093E7018093E6018091E8019091E9011A
:100CD000489739F41092E9011092E80181E080937D
:100CE000E5018091E6019091E7018E349E4019F470
:100CF00081E08093E4019F918F912F910F900FBE1F
:100D00000F901F901895F894A1E8B0E081E08C93C3
:100D1000E0E8F0E080818E7F808380818D7F80831A
:100D20008C91877E8C93789408951092E9011092AB
:100D3000E8011092E7011092E6011092E50110928D
:100D4000E401F894EFE6F0E0808181608083109206
:100D500085001092840078940895F894EFE6F0E00E
:100D600080818E7F8083789408958CEF9FEF0E941E
:100D7000E3030C9495060F931F93CF93DF938C019D
:100D8000EB01CB010E946B008091E401882329F0E4
:100D90000E94AD0643E050E009C0CE010E94A100D0
:100DA000811108C00E94AD0641E050E0BE01C801BB
:100DB0000E9472038091E5018823C9F01092E50139
:100DC0008091000190910101049639F48BEF9FEF1F
:100DD0000E94E3038BEF9FEF06C08CEF9FEF0E9412
:100DE000E3038CEF9FEF9093010180930001DF916B
:100DF000CF911F910F910895CF93DF93EC016BE09A
:100E000070E00E949E0581EA91E00E94A0040E9489
:100E100095061A82DF91CF9108950F931F93CF9378
:100E2000DF93EC018B018091E401882361F00E9443
:100E3000AD0643E050E0B801CE01DF91CF911F91A4
:100E40000F910C9472038091E5018823C9F01092F0
:100E5000E5018091000190910101049639F48BEF36
:100E60009FEF0E94E3038BEF9FEF06C08CEF9FEF95
:100E70000E94E3038CEF9FEF9093010180930001A8
:100E8000DF91CF911F910F910895EF92FF920F93F1
:100E90001F93CF93DF93CDB7DEB7A7970FB6F89424
:100EA000DEBF0FBECDBF7E018DE1E80EF11C8BE0F1
:100EB000F70111928A95E9F707EB10E025EC32E093
:100EC00048E051E060E070E0CE0101960E942E0300
:100ED0000AEC10E022EC30E04DE051E064E070E01C
:100EE000CE0101960E942E0307E111E02FE031E0D0
:100EF00045E151E065E070E0CE0101960E942E03CD
:100F000007E611E02FE531E04FE151E068E070E0E5
:100F1000CE0101960E942E0307EB11E02FEA31E08B
:100F20004AE251E066E070E0CE0101960E942E0395
:100F300008E012E020E032E044E351E067E070E0D6
:100F4000CE0101960E942E030AE712E020E030E075
:100F50004FE351E061E070E0CE0101960E942E0364
:100F60000BEB16E025EB36E04EE451E062E070E07A
:100F7000CE0101960E942E0309E512E021E532E040
:100F800048E551E063E070E0CE0101960E942E0337
:100F900003EF12E02DEE32E044E651E069E070E04C
:100FA000CE0101960E942E030DE017E02CEF36E0F3
:100FB0004EE651E06AE070E0CE0101960E942E03F9
:100FC000B701CE0101960E94A00380E090E0A796B1
:100FD0000FB6F894DEBF0FBECDBFDF91CF911F914A
:100FE0000F91FF90EF900895AA1BBB1B51E107C022
:100FF000AA1FBB1FA617B70710F0A61BB70B881FA9
:10100000991F5A95A9F780959095BC01CD01089537
:10101000A1E21A2EAA1BBB1BFD010DC0AA1FBB1FFC
:10102000EE1FFF1FA217B307E407F50720F0A21B6E
:10103000B30BE40BF50B661F771F881F991F1A94DB
:1010400069F760957095809590959B01AC01BD0105
:10105000CF010895EE0FFF1F0590F491E02D099444
:101060000F931F93CF93DF938230910510F482E0AA
:1010700090E0E091EC01F091ED0120E030E0A0E0A3
:10108000B0E0309719F140815181028113814817F6
:101090005907C8F08417950769F4109731F0129634
:1010A0000C93129713961C9327C00093EC01109396
:1010B000ED0122C02115310519F04217530718F42C
:1010C0009A01BD01EF01DF01F801DBCF21153105E8
:1010D000F9F0281B390B2430310580F48A819B817B
:1010E0006115710521F0FB019383828304C0909305
:1010F000ED018093EC01FE01329644C0FE01E20F47
:10110000F31F8193919322503109398328833AC088
:101110002091EA013091EB01232B41F4209104014D
:10112000309105013093EB012093EA0120910201F7
:10113000309103012115310541F42DB73EB740919F
:10114000060150910701241B350BE091EA01F09153
:10115000EB01E217F307A0F42E1B3F0B281739070A
:1011600078F0AC014E5F5F4F2417350748F04E0F03
:101170005F1F5093EB014093EA018193919302C06A
:10118000E0E0F0E0CF01DF91CF911F910F91089542
:10119000CF93DF93009709F481C0FC01329713824B
:1011A0001282A091EC01B091ED01109781F42081A1
:1011B0003181820F931F2091EA013091EB012817B2
:1011C000390751F5F093EB01E093EA0167C0ED01B7
:1011D00020E030E0CE17DF0740F44A815B819E01BA
:1011E00041155105F1F0EA01F5CFD383C283408167
:1011F0005181840F951FC817D90759F488819981A7
:10120000840F951F0296918380838A819B819383AB
:1012100082832115310529F4F093ED01E093EC016F
:101220003DC0E901FB83EA8349915991C40FD51F61
:10123000EC17FD0761F480819181840F951F029660
:10124000E90199838883828193819B838A83E0E08B
:10125000F0E012968D919C911397009719F0FD0183
:10126000DC01F7CF8D919C9111979D012E5F3F4F2F
:10127000820F931F2091EA013091EB012817390763
:1012800069F4309729F41092ED011092EC0102C03C
:1012900013821282B093EB01A093EA01DF91CF9108
:1012A0000895AEE0B0E0E7E5F9E00C94120C0D898A
:1012B0001E8986E08C831A8309838FEF9FE79E83C4
:1012C0008D83AE01475E5F4F6F89788DCE010196A9
:1012D0000E947309EF81F885E00FF11F10822E96AE
:1012E000E4E00C942E0CABE0B0E0E9E7F9E00C94FC
:1012F000040C6C017B018A01FC0117821682838138
:1013000081FFCCC1CE0101963C01F6019381F7012A
:1013100093FD859193FF81917F01882309F4BAC1E0
:10132000853239F493FD859193FF81917F01853258
:1013300029F4B60190E00E946A0BE7CF912C212C92
:10134000312CFFE1F315D8F08B3279F038F480328C
:1013500079F08332A1F4232D20611DC08D3261F01C
:10136000803369F4232D216016C0832D8260382ECE
:10137000E32DE4603E2E2AC0F32DF8601DC037FC3B
:101380002DC020ED280F2A3040F08E32B9F436FC03
:1013900081C1232D2064322E19C036FE06C08AE09A
:1013A000989E200D1124922E11C0EAE02E9E200D51
:1013B0001124222EF32DF0623F2E08C08C3621F42A
:1013C000832D8068382E02C0883641F4F70193FDE2
:1013D000859193FF81917F018111B3CF982F9F7DDC
:1013E0009554933028F40C5F1F4F9FE399830DC0F1
:1013F000833631F0833771F0833509F059C021C04D
:10140000F801808189830E5F1F4F88248394912C7B
:10141000530113C02801F2E04F0E511CF801A080C7
:10142000B18036FE03C0692D70E002C06FEF7FEF20
:10143000C5010E945F0B4C018201F32DFF773F2E07
:1014400016C0280122E0420E511CF801A080B18094
:1014500036FE03C0692D70E002C06FEF7FEFC5015B
:101460000E94540B4C01F32DF0683F2E820133FC97
:101470001BC0822D90E088169906B0F4B60180E278
:1014800090E00E946A0B2A94F4CFF50137FC859115
:1014900037FE81915F01B60190E00E946A0B211036
:1014A0002A9421E0821A91088114910471F7E8C00E
:1014B000843611F0893641F5F80137FE07C06081A6
:1014C0007181828193810C5F1F4F08C0608171819F
:1014D000072E000C880B990B0E5F1F4FF32DFF7624
:1014E0003F2E97FF09C090958095709561957F4F2D
:1014F0008F4F9F4FF0683F2E2AE030E0A3010E94FB
:10150000A60B882E861845C0853731F4232D2F7EF3
:10151000B22E2AE030E025C0932D997FB92E8F3668
:10152000C1F018F4883579F0B5C0803719F08837E4
:1015300021F0B0C0E92FE061BE2EB4FE0DC0FB2D3E
:10154000F460BF2E09C034FE0AC0292F2660B22ED7
:1015500006C028E030E005C020E130E002C020E114
:1015600032E0F801B7FE07C060817181828193810A
:101570000C5F1F4F06C06081718180E090E00E5FBC
:101580001F4FA3010E94A60B882E8618FB2DFF7704
:101590003F2E36FE0DC0232D2E7FA22E891458F427
:1015A00034FE0BC032FC09C0832D8E7EA82E05C0F0
:1015B000B82CA32C03C0B82C01C0B92CA4FE0FC0BA
:1015C000FE01E80DF11D8081803321F49A2D997E72
:1015D000A92E09C0A2FE06C0B394B39404C08A2DFC
:1015E000867809F0B394A3FC11C0A0FE06C0B21423
:1015F00088F4280C922C9B180EC0B21460F4B6012B
:1016000080E290E00E946A0BB394F7CFB21418F412
:101610002B1802C0982C212CA4FE10C0B60180E328
:1016200090E00E946A0BA2FE17C0A1FC03C088E7ED
:1016300090E002C088E590E0B6010CC08A2D867863
:1016400059F0A1FE02C08BE201C080E2A7FC8DE24E
:10165000B60190E00E946A0B891438F4B60180E369
:1016600090E00E946A0B9A94F7CF8A94F301E80DF8
:10167000F11D8081B60190E00E946A0B8110F5CFC8
:10168000222009F442CEB60180E290E00E946A0B6B
:101690002A94F6CFF6018681978102C08FEF9FEFE3
:1016A0002B96E2E10C94200CFC01059061507040F7
:1016B0000110D8F7809590958E0F9F1F0895FC011B
:1016C0006150704001900110D8F7809590958E0F71
:1016D0009F1F08950F931F93CF93DF93FB012381E7
:1016E00021FD03C08FEF9FEF2CC022FF16C0468163
:1016F0005781248135814217530744F4A081B18179
:101700009D012F5F3F4F318320838C93268137814A
:101710002F5F3F4F3783268314C08B01EC01FB0101
:101720000084F185E02D0995892BE1F6D801169604
:101730008D919C911797019617969C938E9316976F
:10174000CE01DF91CF911F910F910895FA01AA2741
:10175000283051F1203181F1E8946F936E7F6E5FF4
:101760007F4F8F4F9F4FAF4FB1E03ED0B4E03CD0A2
:10177000670F781F891F9A1FA11D680F791F8A1F85
:10178000911DA11D6A0F711D811D911DA11D20D0EC
:1017900009F468943F912AE0269F11243019305DA6
:1017A0003193DEF6CF010895462F4770405D419397
:1017B000B3E00FD0C9F7F6CF462F4F70405D4A33E4
:1017C00018F0495D31FD4052419302D0A9F7EACFAC
:1017D000B4E0A6959795879577956795BA95C9F7DB
:1017E00000976105710508959B01AC010A2E0694CE
:1017F0005795479537952795BA95C9F7620F731F87
:10180000841F951FA01D08952F923F924F925F92C3
:101810006F927F928F929F92AF92BF92CF92DF9200
:10182000EF92FF920F931F93CF93DF93CDB7DEB765
:10183000CA1BDB0B0FB6F894DEBF0FBECDBF0994F9
:101840002A88398848885F846E847D848C849B8450
:10185000AA84B984C884DF80EE80FD800C811B815E
:10186000AA81B981CE0FD11D0FB6F894DEBF0FBE8D
:0A187000CDBFED010895F894FFCFFD
:10187A00FCFF0000EE012000496E697400466F7299
:10188A0077617264004C4546545F534F4654005288
:10189A00494748545F534F4654004C6566745F4845
:1018AA004152440052696768745F48415244004398
:1018BA004845434B5F5354415254504F5300434F92
:1018CA00554E54444F574E004C454156455F53546C
:1018DA0041525400434845434B5F4C415000474FE7
:1018EA00414C5F524541434845440045786974007C
:1018FA002573204C3A2564207C204D3A2564207CAF
:10190A0020523A25640A202564207C2025640A0A8C
:10191A00000A33204C61707320636F6D706C6574BC
:06192A00656421730A0050
:00000001FF
