:100000000C9434000C9451000C9451000C94510049
:100010000C9451000C9451000C9451000C943C0130
:100020000C9451000C9451000C9451000C9451000C
:100030000C9451000C9451000C9451000C945100FC
:100040000C9451000C9451000C9451000C945100EC
:100050000C9451000C9451000C9451000C945100DC
:100060000C9451000C94510011241FBECFEFD8E026
:10007000DEBFCDBF11E0A0E0B1E0E8EFFFE002C0DD
:1000800005900D92A438B107D9F721E0A4E8B1E0BA
:1000900001C01D92A83BB207E1F70E9479030C94BE
:1000A000FA070C9400000F931F93CF93DF93EC019A
:1000B0008B010E946F010E94390267E670E080E0C8
:1000C00090E00E94CD0242E050E0B801CE01DF9105
:1000D000CF911F910F910C94E302CF93DF93EB012B
:1000E0000E942902CE01DF91CF910C9442020F931E
:1000F0001F93CF93DF938C01EB0164E180E00E94BA
:10010000A0019983888364E182E00E94A0019D831D
:100110008C83288139812115324034F08115924039
:1001200084F443E050E005C08115924054F044E06F
:1001300050E0BE01C801DF91CF911F910F910C9447
:10014000E302DF91CF911F910F9108950F931F93B9
:10015000CF93DF938C01EB0164E180E00E94A0016A
:100160009983888364E182E00E94A0019D838C834F
:1001700028813981211532401CF08115924054F0BC
:1001800042E050E0BE01C801DF91CF911F910F9175
:100190000C94E302DF91CF911F910F9108950F937B
:1001A0001F93CF93DF938C01EB0164E180E00E9409
:1001B000A0019983888364E182E00E94A0019D836D
:1001C0008C8328813981211532401CF4811592409D
:1001D00054F442E050E0BE01C801DF91CF911F917D
:1001E0000F910C94E302DF91CF911F910F9108952D
:1001F000CF93DF93EB0186E091E00E94C1020E9461
:100200003102CE01DF91CF910C944D02CF93DF9359
:10021000EB010E943502CE01DF91CF910C9459027F
:10022000FC0187811F928F9386811F928F93858116
:100230008F9384818F9383818F9382818F93818128
:100240008F9380818F931F921F9288E191E09F93FB
:100250008F9384E891E09F938F930E9410058DB750
:100260009EB740960FB6F8949EBF0FBE8DBF84E830
:1002700091E00C94C10208951F920F920FB60F9255
:1002800011248F939F938091AE019091AF010196BD
:100290009093AF018093AE018091AC019091AD013C
:1002A00001969093AD018093AC019F918F910F9037
:1002B0000FBE0F901F901895F89481E08093B100C5
:1002C000E0E7F0E080818260808382E08093B0008C
:1002D0001092B2008FEF8093B3007894089587B1A5
:1002E000887F87B980E480937C0087E080937A00E0
:1002F00080917A00806880937A0080917A0080648F
:1003000080937A0080917A0086FDFCCF80917800FE
:1003100090917900089590917C00907E8F71892B47
:1003200080937C0080917A00806480937A00809131
:100330007A0086FDFCCF8091780090917900089535
:10034000CF92DF92EF92FF921F93CF93DF93182FFC
:10035000D62FC0E0C12CD12C7601CD1749F0812FCA
:100360000E948B01C80ED91EE11CF11CCF5FF5CF96
:100370002C2F30E040E050E0C701B6010E94CD03D1
:10038000C901DF91CF911F91FF90EF90DF90CF9047
:1003900008958F3F29F484B58F7C84BD5D9A0895BC
:1003A00094B5906294BD94B59F7E94BD88BD089528
:1003B000F89415BC85B5836085BD14BC84B5836095
:1003C00084BD789408958630A1F484B5611104C089
:1003D0008F7384BD5E9808956F3F21F48F7384BD41
:1003E0005E9A0895806884BD84B58F7B84BD67BDA7
:1003F0000895853051F4611105C084B58F7C84BDAA
:100400005D980895862F0C94C9010895FC014081E0
:1004100021E030E001C0220F6A95EAF7242B208307
:100420000895FC01908121E030E001C0220F6A951F
:10043000EAF720952923208308955F9A2898089544
:10044000289A5F9808952B9A29980895299A2B98AD
:1004500008950E941D020C9423020E9420020C9415
:1004600026020E9420020C9423020E941D020C947A
:1004700026021AB814B880E68AB9579A8BE884B96C
:100480000C94D8012BE9FC01268327838BE90E9479
:10049000C9016BE986E00C94E30126E4FC012683A4
:1004A00028EC278386E40E94C90168EC86E00C945E
:1004B000E30128ECFC01268326E4278388EC0E94D4
:1004C000C90166E486E00C94E301CF932091B20168
:1004D0003091B3012130310521F0FC01878190E09A
:1004E00005C08091B0019091B1010A969093B1013D
:1004F0008093B0018091B0019091B1018617970768
:100500008CF421E030E03093B3012093B201C1E0DC
:10051000C80F6C2F85E00E94E3016C2F86E0CF911D
:100520000C94E30187E691E0CF910C94C1020F9304
:100530001F93CF93DF938B01CFEF8C2F90E00817A1
:10054000190764F4D1E0DC0F6D2F85E00E94E30110
:100550006D2F86E00E94E301C150EFCFDF91CF9174
:100560001F910F9108958091C00087FFFCCF80916B
:10057000C60008959091C00095FFFCCF8093C600FF
:100580000895CF93DF93EC018991882319F00E949D
:10059000BA02FACFDF91CF9108950F931F93072FDF
:1005A000182F292F33270093C5006093C40088E1DA
:1005B0008093C1008EE08093C20087E391E01F9199
:1005C0000F910C94C102FA013196EE0FFF1FE80F54
:1005D000F91F0190F081E02DDC01ED93FC93048084
:1005E000F581E02D309709F009940895AF92BF92FC
:1005F000CF92DF92EF92FF920F931F93CF93DF93EF
:100600007C01EB015A01690188E090E00E94EF0350
:10061000FC01D183C083B382A282D582C4821783B6
:100620000683DE011196AA0FBB1FAE0DBF1DED9311
:10063000FC93CD2B71F4D701ED93FC93C6E0D0E091
:1006400089E7A82E81E0B82EC12CD12C00E010E063
:10065000DBCFDF91CF911F910F91FF90EF90DF9053
:10066000CF90BF90AF9008950F931F93CF93DF93D8
:100670008C010E5F1F4FEC016096F8018081918123
:100680000E948704F801119211928F01EC17FD0767
:10069000A1F7DF91CF911F910F9108950F931F93B1
:1006A000CF93DF93EC018B01E881F9810480F58120
:1006B000E02D0995E881F98180819181069791F07B
:1006C0000680F781E02D309719F0B801CE01099529
:1006D0002FEF84E39CE0215080409040E1F700C080
:1006E0000000E8CFCE01DF91CF911F910F910C94C4
:1006F00034030F931F93CF93DF93CDB7DEB7689783
:100700000FB6F894DEBF0FBECDBF00E010E023E5CA
:1007100030E049E351E060E070E0CE0101960E94D4
:10072000F60207E710E02DE630E04EE351E062E02C
:1007300070E0CE0101960E94F60206EA10E028EF72
:1007400030E047E451E063E070E0CE0101960E94A2
:10075000F6020FEC10E026E031E04CE451E064E0FA
:1007600070E0CE0101960E94F602BE016F5E7F4FDF
:10077000CE0101960E944E0382E591E00E94C102E3
:1007800080E090E068960FB6F894DEBF0FBECDBF54
:10079000DF91CF911F910F910895A1E21A2EAA1B0C
:1007A000BB1BFD010DC0AA1FBB1FEE1FFF1FA21721
:1007B000B307E407F50720F0A21BB30BE40BF50B1E
:1007C000661F771F881F991F1A9469F760957095A7
:1007D000809590959B01AC01BD01CF0108950F93C9
:1007E0001F93CF93DF938230910510F482E090E065
:1007F000E091B601F091B70120E030E0A0E0B0E078
:10080000309719F1408151810281138148175907AE
:10081000C8F08417950769F4109731F012960C937D
:10082000129713961C9327C00093B6011093B7013B
:1008300022C02115310519F04217530718F49A0107
:10084000BD01EF01DF01F801DBCF21153105F9F022
:10085000281B390B2430310580F48A819B81611576
:10086000710521F0FB019383828304C09093B7014B
:100870008093B601FE01329644C0FE01E20FF31FE1
:100880008193919322503109398328833AC0209172
:10089000B4013091B501232B41F420910201309134
:1008A00003013093B5012093B401209100013091F0
:1008B00001012115310541F42DB73EB740910401E6
:1008C00050910501241B350BE091B401F091B50165
:1008D000E217F307A0F42E1B3F0B2817390778F017
:1008E000AC014E5F5F4F2417350748F04E0F5F1F76
:1008F0005093B5014093B4018193919302C0E0E01D
:10090000F0E0CF01DF91CF911F910F910895CF9328
:10091000DF93009709F481C0FC01329713821282A1
:10092000A091B601B091B701109781F42081318177
:10093000820F931F2091B4013091B5012817390718
:1009400051F5F093B501E093B40167C0ED0120E0EB
:1009500030E0CE17DF0740F44A815B819E014115EC
:100960005105F1F0EA01F5CFD383C2834081518173
:10097000840F951FC817D90759F488819981840F6E
:10098000951F0296918380838A819B8193838283C2
:100990002115310529F4F093B701E093B6013DC06C
:1009A000E901FB83EA8349915991C40FD51FEC17E4
:1009B000FD0761F480819181840F951F0296E90102
:1009C00099838883828193819B838A83E0E0F0E02E
:1009D00012968D919C911397009719F0FD01DC01FF
:1009E000F7CF8D919C9111979D012E5F3F4F820F04
:1009F000931F2091B4013091B5012817390769F48C
:100A0000309729F41092B7011092B60102C01382F8
:100A10001282B093B501A093B401DF91CF910895F4
:100A2000AEE0B0E0E6E1F5E00C94D1070D891E8957
:100A300086E08C831A8309838FEF9FE79E838D83E3
:100A4000AE01475E5F4F6F89788DCE0101960E949F
:100A50003205EF81F885E00FF11F10822E96E4E059
:100A60000C94ED07ABE0B0E0E8E3F5E00C94C307CD
:100A70006C017B018A01FC0117821682838181FF50
:100A8000CCC1CE0101963C01F6019381F70193FDA3
:100A9000859193FF81917F01882309F4BAC1853242
:100AA00039F493FD859193FF81917F01853229F47B
:100AB000B60190E00E942907E7CF912C212C312C20
:100AC000FFE1F315D8F08B3279F038F4803279F009
:100AD0008332A1F4232D20611DC08D3261F080335B
:100AE00069F4232D216016C0832D8260382EE32DFA
:100AF000E4603E2E2AC0F32DF8601DC037FC2DC0E7
:100B000020ED280F2A3040F08E32B9F436FC81C136
:100B1000232D2064322E19C036FE06C08AE0989E2E
:100B2000200D1124922E11C0EAE02E9E200D1124DA
:100B3000222EF32DF0623F2E08C08C3621F4832D37
:100B40008068382E02C0883641F4F70193FD859104
:100B500093FF81917F018111B3CF982F9F7D955491
:100B6000933028F40C5F1F4F9FE399830DC08336A9
:100B700031F0833771F0833509F059C021C0F80195
:100B8000808189830E5F1F4F88248394912C5301A9
:100B900013C02801F2E04F0E511CF801A080B18073
:100BA00036FE03C0692D70E002C06FEF7FEFC50114
:100BB0000E941E074C018201F32DFF773F2E16C0C5
:100BC000280122E0420E511CF801A080B18036FEBF
:100BD00003C0692D70E002C06FEF7FEFC5010E9476
:100BE00013074C01F32DF0683F2E820133FC1BC02C
:100BF000822D90E088169906B0F4B60180E290E06C
:100C00000E9429072A94F4CFF50137FC859137FE1D
:100C100081915F01B60190E00E94290721102A947A
:100C200021E0821A91088114910471F7E8C084369A
:100C300011F0893641F5F80137FE07C060817181F6
:100C4000828193810C5F1F4F08C060817181072EE4
:100C5000000C880B990B0E5F1F4FF32DFF763F2E74
:100C600097FF09C090958095709561957F4F8F4F44
:100C70009F4FF0683F2E2AE030E0A3010E946507F5
:100C8000882E861845C0853731F4232D2F7EB22E4D
:100C90002AE030E025C0932D997FB92E8F36C1F020
:100CA00018F4883579F0B5C0803719F0883721F00D
:100CB000B0C0E92FE061BE2EB4FE0DC0FB2DF46084
:100CC000BF2E09C034FE0AC0292F2660B22E06C0EE
:100CD00028E030E005C020E130E002C020E132E051
:100CE000F801B7FE07C060817181828193810C5F3A
:100CF0001F4F06C06081718180E090E00E5F1F4F42
:100D0000A3010E946507882E8618FB2DFF773F2ED2
:100D100036FE0DC0232D2E7FA22E891458F434FEEA
:100D20000BC032FC09C0832D8E7EA82E05C0B82CC6
:100D3000A32C03C0B82C01C0B92CA4FE0FC0FE0127
:100D4000E80DF11D8081803321F49A2D997EA92E22
:100D500009C0A2FE06C0B394B39404C08A2D86785D
:100D600009F0B394A3FC11C0A0FE06C0B21488F42D
:100D7000280C922C9B180EC0B21460F4B60180E2CD
:100D800090E00E942907B394F7CFB21418F42B18FF
:100D900002C0982C212CA4FE10C0B60180E390E084
:100DA0000E942907A2FE17C0A1FC03C088E790E0BB
:100DB00002C088E590E0B6010CC08A2D867859F013
:100DC000A1FE02C08BE201C080E2A7FC8DE2B60169
:100DD00090E00E942907891438F4B60180E390E07E
:100DE0000E9429079A94F7CF8A94F301E80DF11D28
:100DF0008081B60190E00E9429078110F5CF222062
:100E000009F442CEB60180E290E00E9429072A94BC
:100E1000F6CFF6018681978102C08FEF9FEF2B9668
:100E2000E2E10C94DF07FC01059061507040011075
:100E3000D8F7809590958E0F9F1F0895FC01615003
:100E4000704001900110D8F7809590958E0F9F1FEC
:100E500008950F931F93CF93DF93FB01238121FD0F
:100E600003C08FEF9FEF2CC022FF16C04681578131
:100E7000248135814217530744F4A081B1819D013B
:100E80002F5F3F4F318320838C93268137812F5FE3
:100E90003F4F3783268314C08B01EC01FB01008494
:100EA000F185E02D0995892BE1F6D80116968D91F3
:100EB0009C911797019617969C938E931697CE0147
:100EC000DF91CF911F910F910895FA01AA27283041
:100ED00051F1203181F1E8946F936E7F6E5F7F4F07
:100EE0008F4F9F4FAF4FB1E03ED0B4E03CD0670F83
:100EF000781F891F9A1FA11D680F791F8A1F911DD6
:100F0000A11D6A0F711D811D911DA11D20D009F425
:100F100068943F912AE0269F11243019305D319367
:100F2000DEF6CF010895462F4770405D4193B3E050
:100F30000FD0C9F7F6CF462F4F70405D4A3318F0F7
:100F4000495D31FD4052419302D0A9F7EACFB4E0A8
:100F5000A6959795879577956795BA95C9F7009760
:100F60006105710508959B01AC010A2E0694579501
:100F7000479537952795BA95C9F7620F731F841F58
:100F8000951FA01D08952F923F924F925F926F92EE
:100F90007F928F929F92AF92BF92CF92DF92EF9209
:100FA000FF920F931F93CF93DF93CDB7DEB7CA1B8A
:100FB000DB0B0FB6F894DEBF0FBECDBF09942A88B5
:100FC000398848885F846E847D848C849B84AA845D
:100FD000B984C884DF80EE80FD800C811B81AA81EA
:100FE000B981CE0FD11D0FB6F894DEBF0FBECDBFB5
:080FF000ED010895F894FFCF14
:100FF8000000B8012000504F6C6172697479206C50
:1010080065667420726F74002573204C3A2564203D
:101018007C204D3A2564207C20523A25640A2025FC
:1010280064207C2025640A0A00496E6974005374A0
:10103800726169676874004C656674005269676814
:10104800740050726F6772616D6D207465726D699E
:101058006E617465640A000A4943482042494E207B
:10106800464552544947210A005465726D696E61BC
:04107800746500009B
:00000001FF
